:020000040000FA
:0400000095EF71F017
:10E0440093848A9693968A98120000004040FFFFBA
:10E05400FFFF03E701019E96C5809EA634EF70F092
:10E0640036EF70F02FEF70F01200016EACA23DEFAE
:10E0740070F03FEF70F038EF70F001C0ADFF1200A8
:10E084009E96C59AC5889EA64AEF70F04CEF70F034
:10E0940045EF70F012009E96C58AC5889EA655EF7E
:10E0A40070F057EF70F050EF70F012008A988A9673
:10E0B4001A0E016EF80EE82EFED7012EFCD700D002
:10E0C4008A861200D9EC70F09E96C5849EA66DEFE8
:10E0D40070F06FEF70F068EF70F01200026E6F5026
:10E0E400A49E02C06FFFA4AE7AEF70F07CEF70F0D4
:10E0F40075EF70F01200076E8D9007508009076E5F
:10E10400075070EC70F0065070EC70F08D801200C7
:10E11400026ED9EC70F09E9602C0C9FF9EA695EFE0
:10E1240070F097EF70F090EF70F01200056E8D9024
:10E1340005507F0B056E055070EC70F0000EA7ECD7
:10E1440070F0046E8D8004501200026E6F50A49E15
:10E1540002C06FFFA4AEB1EF70F0B3EF70F0ACEF9C
:10E1640070F06FCF03F003501200D9EC70F09E965C
:10E17400C586C7A0C0EF70F0C2EF70F0BBEF70F0BF
:10E184009E96C9CF02F0025012008A849394820EA4
:10E19400016EDE0EE82EFED7012EFCD79384820E8C
:10E1A400016EDE0EE82EFED7012EFCD71200C7B496
:10E1B400DEEF70F0E2EF70F0016A012AE3EF70F035
:10E1C400016AC5501F0B01100009D8A4ECEF70F0D0
:10E1D400EEEF70F0D9EF70F01200948694880F017E
:10E1E4003A973A99C69EC69CC68AC698C650F00B02
:10E1F4000809C66E00F000F000F0130EC86E00F0BF
:10E2040000F000F0C78EC79C9E96A1961200948CD5
:10E21400948E0F013A9F000EAC6E000EAB6EAC985C
:10E22400AC9CAB9CAB88AB969D8A9D98AC84B8861D
:10E234000C0EAF6E000EB06EAC8AAB8E9E9A9D8AA9
:10E24400F28C120095900F013B91210EE82EFED71F
:10E2540000F095820F013B93210EE82EFED700F0CB
:10E26400959896908D806D9E210EE82EFED700F035
:10E274006D8C210EE82EFED700F0200E6C6EC80EB9
:10E28400E82EFED71200000E066E58EF71F006500D
:10E294000224046E000E0320056E04C0F6FF05C0C0
:10E2A400F7FF0800F55037EC70F0062A06500224F8
:10E2B400046E000E0320056E04C0F6FF05C0F7FFD0
:10E2C4000800F5500009D8A46AEF71F06CEF71F002
:10E2D40049EF71F0120022EC70F024EC71F0C7ECFD
:10E2E40070F058EC70F0000E066E010E7DEC70F0CC
:10E2F400800E066E010E7DEC70F0810E066E010E2E
:10E304007DEC70F0020E146E040E136EBA0EE82E3D
:10E31400FED7132EFCD7142EFAD700D083EC73F05B
:10E3240087EC72F012004E0EF66EE00EF76E000EE1
:10E33400F86E00EEA8F010EE0CF00900F5CFEEFF39
:10E34400E550E150FAE101EE00F011EE00F0EE6A62
:10E35400E550E150FCE1E250FAE100EE60F0480ED5
:10E36400EE6AE806FDE100EE57F0090EEE6AE806F3
:10E37400FDE1000EF86E0001C2EF77F0000E066EAC
:10E38400D3EF71F006500224046E000E0320056ED4
:10E3940004C0F6FF05C0F7FF0800F55037EC70F035
:10E3A400062A06500224046E000E0320056E04C0E3
:10E3B400F6FF05C0F7FF0800F5500009D8A4E5EF03
:10E3C40071F0E7EF71F0C4EF71F00D0E37EC70F0FF
:10E3D4000A0E37EC70F012000E6E460E0C6EFF0E35
:10E3E4000D6E0EC001F0026A000E046E100E036E74
:10E3F40025EC72F00CC009F00DC00AF0015009269A
:10E4040002500A2209C0F6FF0AC0F7FF0800F550BF
:10E4140037EC70F00EC009F00F0E091609500C24E9
:10E424000A6E000E0D200B6E0AC0F6FF0BC0F7FF3C
:10E434000800F55037EC70F00D0E37EC70F00A0E52
:10E4440037EC70F01200000E066E04BE2EEF72F070
:10E454002CEF72F034EF72F0036C041ED8B0042A6F
:10E46400010E066E02BE3BEF72F039EF72F041EF1F
:10E4740072F0016C021ED8B0022A010E061A000EB8
:10E48400086E000E076E03500410D8B44CEF72F0FF
:10E494004EEF72F076EF72F0010E056E56EF72F0E9
:10E4A400D89003360436052A04AE5BEF72F05DEFB4
:10E4B40072F052EF72F0D890073608360350015CC0
:10E4C40004500258D8A069EF72F06BEF72F070EF4D
:10E4D40072F00350015E0450025A0780D89004324F
:10E4E4000332052E5DEF72F00650D8B47CEF72F063
:10E4F4007EEF72F082EF72F0076C081ED8B0082A23
:10E5040007C001F008C002F01200000E066E000EF3
:10E514007DEC70F0D80E066E060E7DEC70F0600E89
:10E52400066E070E7DEC70F0000E066E080E7DEC94
:10E5340070F08C0E066E090E7DEC70F0190E066EEE
:10E544000A0E7DEC70F02B0E066E0B0E7DEC70F057
:10E55400230E066E0C0E7DEC70F0000E066E0D0E92
:10E564007DEC70F0800E066E0E0E7DEC70F0000EE9
:10E57400066E0F0E7DEC70F0000E066E110E7DEC33
:10E5840070F0FF0E066E120E7DEC70F0210E066E1A
:10E594001D0E7DEC70F0C70E066E1E0E7DEC70F045
:10E5A400FF0E066E1F0E7DEC70F0000E066E200E40
:10E5B4007DEC70F0080E066E210E7DEC70F0800E7E
:10E5C400066E230E7DEC70F0000E066E240E7DECBC
:10E5D40070F0C30E066E310E7DEC70F0270E066EE1
:10E5E400330E7DEC70F00A0E066E370E7DEC70F083
:10E5F400120E066E390E7DEC70F01200453446346E
:10E604004C6E4C50D8A409EF73F00BEF73F015EF78
:10E6140073F0000E436E000E446E000E456E000E45
:10E62400466E82EF73F043C047F044C048F045C0E3
:10E6340049F046C04AF0200E25EF73F0D8904A32D4
:10E64400493248324732E82E20EF73F047504B6E80
:10E65400458EFF0E4316FF0E4416FF0E4516000EA0
:10E664004616960E4C5E4CBE3CEF73F03AEF73F0D8
:10E6740052EF73F04C50800A970FD8B044EF73F008
:10E6840046EF73F048EF73F00BEF73F0D890463217
:10E694004532443243324C3E48EF73F06AEF73F034
:10E6A4001F0E4C6458EF73F05AEF73F062EF73F07F
:10E6B4000BEF73F0D89043364436453646364C0655
:10E6C4004C50D8A468EF73F06AEF73F05CEF73F00A
:10E6D4004B50D8B470EF73F072EF73F07AEF73F0BD
:10E6E400461E451E441E436C000E4422452246220B
:10E6F40043C043F044C044F045C045F046C046F032
:10E704001200010E98EC70F0126E8A0E026EFF0E6B
:10E71400036E45EC71F01250EEEC71F01250800B68
:10E72400116E1150D8B499EF73F09BEF73F0B6EFFC
:10E7340073F01250400B116E1150D8A4A4EF73F073
:10E74400A6EF73F0AEEF73F0D30E026EFF0E036EFE
:10E75400C0EC71F0BCEF73F06D0E026EFC0E036E34
:10E76400C0EC71F0BCEF73F0DF0E026EFF0E036EAF
:10E77400C0EC71F01250070B116E01EF74F0EA0E49
:10E78400026EFF0E036EC0EC71F02EEF74F0AC0E4F
:10E79400026EFF0E036EC0EC71F02EEF74F0630E88
:10E7A400026EFE0E036EC0EC71F02EEF74F0F50EE7
:10E7B400026EFF0E036EC0EC71F02EEF74F04C0E7F
:10E7C400026EFE0E036EC0EC71F02EEF74F01C0EA0
:10E7D400026EFE0E036EC0EC71F02EEF74F0BF0EED
:10E7E400026EFE0E036EC0EC71F02EEF74F04A0E52
:10E7F400026EFD0E036EC0EC71F02EEF74F011503A
:10E804000F6E106A1050000AD8B40BEF74F02EEF9C
:10E8140074F00F50000AD8B4C1EF73F0010AD8B4F1
:10E82400C9EF73F0030AD8B4D1EF73F0010AD8B476
:10E83400D9EF73F0070AD8B4E1EF73F0010AD8B442
:10E84400E9EF73F0030AD8B4F1EF73F0010AD8B416
:10E85400F9EF73F02EEF74F01200096E0950D8B47A
:10E8640036EF74F038EF74F05AEF74F004BE3FEFF3
:10E8740074F03DEF74F05AEF74F001C005F002C07B
:10E8840006F003C007F004C008F0051E061E071EAC
:10E89400081E052A000E06220722082205C00BF0D6
:10E8A40006C00CF007C00DF008C00EF062EF74F063
:10E8B40001C00BF002C00CF003C00DF004C00EF058
:10E8C4000150021003100410D8A46BEF74F06DEF24
:10E8D40074F077EF74F0000E016E000E026E000EFD
:10E8E400036E000E046E08EF75F0960E0A6E81EF4B
:10E8F40074F00A2AD8900E320D320C320B32000E0C
:10E904000B14056E000E0C14066E000E0D14076E2B
:10E91400FE0E0E14086E0550061007100810D8A439
:10E9240096EF74F098EF74F07BEF74F0A6EF74F048
:10E934000A2A010E0B26000E0C220D220E22D8905C
:10E944000E320D320C320B32000E0B14056E000E1B
:10E954000C14066E000E0D14076EFF0E0E14086ED6
:10E964000550061007100810D8A4BBEF74F0BDEFD3
:10E9740074F09AEF74F0C5EF74F00A06D8900B3671
:10E984000C360D360E360DBECAEF74F0CCEF74F0B3
:10E99400D4EF74F0020E0A60D2EF74F0D4EF74F086
:10E9A400BFEF74F00AB0D9EF74F0DBEF74F0DCEF72
:10E9B40074F00D9ED8900A320AC005F0066A076A00
:10E9C400086A05C008F0076A066A056A05500B1252
:10E9D40006500C1207500D1208500E120950D8B4EC
:10E9E400F6EF74F0F8EF74F000EF75F004BEFFEF8B
:10E9F40074F0FDEF74F000EF75F00E8E0BC001F0B3
:10EA04000CC002F00DC003F00EC004F012002DEC97
:10EA140070F04E0E8AEC70F064EC70F0680E436E89
:10EA2400E40EE82EFED7432EFCD700D02DEC70F078
:10EA34004F0E8AEC70F000F0B7EC70F05C6E42ECB4
:10EA440070F0B7EC70F05B6E42EC70F0B7EC70F005
:10EA54005A6E42EC70F0B7EC70F0596E4DEC70F0F9
:10EA640064EC70F05CC043F03F0E43164350456EB7
:10EA7400446A5B5044100001906F4550916F5A50A6
:10EA8400436E446A060ED89043364436E82E45EF6A
:10EA940075F059504310926F4450936F90C001F039
:10EAA40091C002F0036A046A000E2FEC74F001C0F6
:10EAB40088F002C089F003C08AF004C08BF088C0DB
:10EAC4002AF089C02BF08AC02CF08BC02DF0000EE8
:10EAD4002E6EF80E2F6E7F0E306E460E316EF5ECF4
:10EAE40075F02AC084F02BC085F02CC086F02DC0B0
:10EAF40087F084C011F085C012F086C013F087C07F
:10EB040014F0000E156E000E166EC80E176E420E2F
:10EB1400186EC1EC79F011C080F012C081F013C0FE
:10EB240082F014C083F092C001F093C002F0036A33
:10EB3400046A000E2FEC74F001C07CF002C07DF07A
:10EB440003C07EF004C07FF07CC02AF07DC02BF0AF
:10EB54007EC02CF07FC02DF0000E2E6EF80E2F6EAE
:10EB64007F0E306E460E316EF5EC75F02AC078F0EB
:10EB74002BC079F02CC07AF02DC07BF078C011F056
:10EB840079C012F07AC013F07BC014F0000E156E39
:10EB9400000E166E250E176E430E186EC1EC79F03A
:10EBA40011C074F012C075F013C076F014C077F081
:10EBB40074C001F075C002F076C003F077C004F0B1
:10EBC400000E056E000E066E200E076EC20E086E55
:10EBD400D6EC7BF001C070F002C071F003C072F09B
:10EBE40004C073F012002D50800B3A6E2D502D246A
:10EBF400416E2CAE00EF76F002EF76F003EF76F084
:10EC040041804150D8B409EF76F00BEF76F020EF55
:10EC140076F04128D8A411EF76F013EF76F01BEFCD
:10EC240076F0000E2A6E000E2B6E000E2C6E000E77
:10EC34002D6E2C8E000E2D6E28EF76F0000E2A6EAF
:10EC4400000E2B6E000E2C6E000E2D6E3150800BBC
:10EC54003A1A31503124426E30AE33EF76F035EF4C
:10EC640076F036EF76F042804250D8B43CEF76F03E
:10EC74003EEF76F053EF76F04228D8A444EF76F0D6
:10EC840046EF76F04EEF76F0000E2E6E000E2F6EED
:10EC9400000E306E000E316E308E000E316E5BEF62
:10ECA40076F0000E2E6E000E2F6E000E306E000EEB
:10ECB400316E2E502F1030103110D8A464EF76F03E
:10ECC40066EF76F07EEF76F0000E2A6E000E2B6E65
:10ECD400000E2C6E000E2D6E800E2C127F0E2D1247
:10ECE4003A502D122AC02AF02BC02BF02CC02CF045
:10ECF4002DC02DF0C1EF77F04150D8A484EF76F009
:10ED040086EF76F090EF76F0000E2A6E000E2B6EF2
:10ED1400000E2C6E000E2D6EC1EF77F0425041C0F4
:10ED240032F0336A325E000E335A7F0E32243B6E69
:10ED3400000E33203C6E2AC036F02BC037F02CC0B6
:10ED440038F02DC039F0000E2A6E000E2B6E000E26
:10ED54002C6E000E2D6E000E3D6E000E3E6E000EEB
:10ED64003F6E000E406E000E426EF1EF76F04250A0
:10ED7400D8B4BFEF76F0C1EF76F0D8EF76F0D89044
:10ED84003636373638363936D8902A362B362C363E
:10ED94002D3640AED0EF76F0D2EF76F0D3EF76F0AA
:10EDA4002A80D8903D363E363F3640362E50365C6B
:10EDB4002F5037583050385831503958D8A0E5EFD3
:10EDC40076F0E7EF76F0F0EF76F0408C2E50365E7A
:10EDD4002F50375A3050385A3150395A422A190E66
:10EDE4004264F7EF76F0F9EF76F0B9EF76F036504B
:10EDF400371038103910D8B402EF77F004EF77F0F9
:10EE04001CEF77F03D801CEF77F0D8902A362B3634
:10EE14002C362D3640AE11EF77F013EF77F014EF68
:10EE240077F02A80D8903D363E363F3640363B0652
:10EE3400D8A03C062CAE21EF77F023EF77F007EF54
:10EE440077F0000E426E40AE2AEF77F02CEF77F0A9
:10EE540050EF77F0FF0E3D14326EFF0E3E14336E0A
:10EE6400FF0E3F14346E7F0E4014356E3250331053
:10EE740034103510D8B441EF77F043EF77F047EF13
:10EE840077F0010E426E50EF77F02AA04CEF77F046
:10EE94004EEF77F050EF77F043EF77F04250D8B46D
:10EEA40056EF77F058EF77F07CEF77F0010E2A26D3
:10EEB400000E2B222C222D222DA063EF77F065EF7C
:10EEC40077F07CEF77F02AC032F02BC033F02CC0FF
:10EED40034F02DC035F035343532343233323232F9
:10EEE40032C02AF033C02BF034C02CF035C02DF0E2
:10EEF4003B4A3C2A3CBE87EF77F03C5008E13B2874
:10EF0400D8A087EF77F089EF77F094EF77F0000ED1
:10EF14003C6E3B68000E2A6E000E2B6E000E2C6EAB
:10EF2400000E2D6E3CBEA1EF77F03C5006E13B0491
:10EF3400D8B09FEF77F0A1EF77F0AFEF77F0000E46
:10EF44003C6E000E3B6E000E2A6E000E2B6E000E01
:10EF54002C6E000E2D6E000E3A6E3BC041F041A0A7
:10EF6400B6EF77F0B8EF77F0BBEF77F02C8EBCEF0D
:10EF740077F02C9ED89041302D6E72EF76F012000F
:10EF8400000E5F6E000E5E6E000E0001A56F000E97
:10EF9400A46F4B0E026E000E016E09EC71F06DEC65
:10EFA40071F0EFEC70F0F28E000E0001606F616999
:10EFB4006269030E636F646965690E0E98EC70F004
:10EFC400066E0D0E7DEC70F0040E066E220E7DECC6
:10EFD40070F0000E586E000E576E600E5724D96EF6
:10EFE400000E5820DA6EDF50066E000E7DEC70F0D5
:10EFF400574A582A58BE08EF78F0585009E1040ED1
:10F00400575CD8A008EF78F00AEF78F0EFEF77F0CC
:10F01400030E526E980EE82EFED7522EFCD7830EA6
:10F02400066E010E7DEC70F0020E536E040E526EED
:10F03400BA0EE82EFED7522EFCD7532EFAD700D0A4
:10F0440083EC73F0120E98EC70F05D6E030E536E49
:10F05400080E526E770EE82EFED7522EFCD7532E92
:10F06400FAD700F0FD0E026EFF0E036EC0EC71F0D5
:10F07400E70E026EFE0E036EC0EC71F0120E98ECF9
:10F0840070F05D6EB40E026EFC0E036E45EC71F012
:10F094005D50EEEC71F0FF0E066E120E7DEC70F01A
:10F0A40009EC75F0000E2E6E000E2F6E8C0E306E75
:10F0B400420E316E000E156E000E166E7F0E176E28
:10F0C400430E186E000E056E000E066EF00E076EEF
:10F0D400410E086E70C001F071C002F072C003F0FE
:10F0E40073C004F0D6EC7BF001C011F002C012F042
:10F0F40003C013F004C014F0C1EC79F011C02AF07D
:10F1040012C02BF013C02CF014C02DF0F5EC75F0E8
:10F114002AC043F02BC044F02CC045F02DC046F06B
:10F1240000EC73F04350556E000E2E6E000E2F6EE1
:10F13400C80E306E420E316E000E156E000E166E45
:10F144007F0E176E430E186E80C011F081C012F04E
:10F1540082C013F083C014F0C1EC79F011C02AF01E
:10F1640012C02BF013C02CF014C02DF0F5EC75F088
:10F174002AC043F02BC044F02CC045F02DC046F00B
:10F1840000EC73F04350566E000E2E6E000E2F6E80
:10F19400400E306E400E316E000E156E000E166E6F
:10F1A4007F0E176E430E186EA8C011F0A9C012F09E
:10F1B400AAC013F0ABC014F0C1EC79F011C02AF06E
:10F1C40012C02BF013C02CF014C02DF0F5EC75F028
:10F1D4002AC043F02BC044F02CC045F02DC046F0AB
:10F1E40000EC73F0010E0001666F010E676FE70E0D
:10F1F400686F030E696F55C06AF056C06BF00E0E4F
:10F2040098EC70F0066E0D0E7DEC70F0060E066E36
:10F21400220E7DEC70F0000E586E000E576E660ED6
:10F224005724D96E000E5820DA6EDF50066E000E99
:10F234007DEC70F0574A582A58BE2AEF79F058509E
:10F2440009E1060E575CD8A02AEF79F02CEF79F08B
:10F2540011EF79F0060E526E300EE82EFED7522EC4
:10F26400FCD700D0830E066E010E7DEC70F0020E0A
:10F27400536E040E526EBA0EE82EFED7522EFCD7F1
:10F28400532EFAD700D083EC73F0120E98EC70F082
:10F294005D6E030E536E080E526E770EE82EFED787
:10F2A400522EFCD7532EFAD700F0FD0E026EFF0E3D
:10F2B400036EC0EC71F0E70E026EFE0E036EC0EC3E
:10F2C40071F0120E98EC70F05D6EB40E026EFC0ECE
:10F2D400036E45EC71F05D50EEEC71F0FF0E066EBE
:10F2E400120E7DEC70F0660E536E760E526EC10EE9
:10F2F400E82EFED7522EFCD7532EFAD700F0660E16
:10F30400536E760E526EC10EE82EFED7522EFCD7E7
:10F31400532EFAD700F0660E536E760E526EC10E5F
:10F32400E82EFED7522EFCD7532EFAD700F0660EE5
:10F33400536E760E526EC10EE82EFED7522EFCD7B7
:10F34400532EFAD700F0660E536E760E526EC10E2F
:10F35400E82EFED7522EFCD7532EFAD700F0660EB5
:10F36400536E760E526EC10EE82EFED7522EFCD787
:10F37400532EFAD700F052EF78F000EF00F014505B
:10F38400800B1D6E14501424236E13AECCEF79F051
:10F39400CEEF79F0CFEF79F023802350D8B4D5EFB6
:10F3A40079F0D7EF79F0EAEF79F02328D8A4DDEFEC
:10F3B40079F0DFEF79F0E7EF79F0000E116E000ECF
:10F3C400126E000E136E000E146E138EF2EF79F0AF
:10F3D400000E116E000E126E000E136E000E146EEF
:10F3E4001850800B1D1A18501824226E17AEFDEF0A
:10F3F40079F0FFEF79F000EF7AF022802250D8B450
:10F4040006EF7AF008EF7AF01BEF7AF02228D8A4FE
:10F414000EEF7AF010EF7AF018EF7AF0000E156E16
:10F42400000E166E000E176E000E186E178E23EF68
:10F434007AF0000E156E000E166E000E176E000E9A
:10F44400186E2250D8B429EF7AF02BEF7AF033EF0C
:10F454007AF02350D8A431EF7AF033EF7AF03DEF0D
:10F464007AF0000E116E000E126E000E136E000E76
:10F47400146ED5EF7BF017501102F3CF28F0F4CFC0
:10F4840029F028501E6E1F6A206A216A2950246EB2
:10F49400256A266A276A16501202F3CF28F0F4CFA1
:10F4A40029F028501E26000E1F2220222122295036
:10F4B4002426000E25222622272215501302F3CFDC
:10F4C40028F0F4CF29F028501E26000E1F222022F7
:10F4D400212229502426000E25222622272220C05C
:10F4E40021F01FC020F01EC01FF01E6A155012022A
:10F4F400F3CF28F0F4CF29F028501E2629501F22DC
:10F50400000E2022000E212216501102F3CF28F003
:10F51400F4CF29F028501E2629501F22000E202245
:10F52400000E212220C021F01FC020F01EC01FF0B9
:10F534001E6A15501102F3CF28F0F4CF29F0285099
:10F544001E2629501F22000E2022000E21221750B1
:10F554001202F3CF28F0F4CF29F0285024262950A2
:10F564002522000E2622000E272216501302F3CF66
:10F5740028F0F4CF29F02850242629502522000E03
:10F584002622000E272217501302F3CF28F0F4CFBF
:10F5940029F02850196E29501A6E1B6A1C6A1BC068
:10F5A4001CF01AC01BF019C01AF0196A195024264D
:10F5B4001A5025221B5026221C5027221EC019F047
:10F5C4001FC01AF020C01BF021C01CF0190EF0EF70
:10F5D4007AF0D8901C321B321A321932E82EEBEF33
:10F5E4007AF0195024261A5025221B5026221C502A
:10F5F400272220C021F01FC020F01EC01FF01E6A69
:10F60400225023C019F01A6A1926000E1A22820EFB
:10F614001924286EFF0E1A20296E26EF7BF0D8904D
:10F62400243625362636273621AE1BEF7BF01DEF18
:10F634007BF01EEF7BF02480D8901E361F362036D8
:10F6440021362806D8A0290626AE2BEF7BF02DEF15
:10F654007BF011EF7BF0000E226E21AE34EF7BF0D5
:10F6640036EF7BF05AEF7BF0FF0E1E14196EFF0E7F
:10F674001F141A6EFF0E20141B6E7F0E21141C6EB5
:10F6840019501A101B101C10D8B44BEF7BF04DEF1F
:10F694007BF051EF7BF0010E226E5AEF7BF024A039
:10F6A40056EF7BF058EF7BF05AEF7BF04DEF7BF099
:10F6B4002250D8B460EF7BF062EF7BF086EF7BF0F2
:10F6C400010E2426000E25222622272227A06DEFD4
:10F6D4007BF06FEF7BF086EF7BF024C019F025C040
:10F6E4001AF026C01BF027C01CF01C341C321B323D
:10F6F4001A32193219C024F01AC025F01BC026F0A2
:10F704001CC027F0284A292A29BE91EF7BF02950F2
:10F7140008E12828D8A091EF7BF093EF7BF09DEFD0
:10F724007BF0000E246E000E256E800E266E7F0E7A
:10F73400276ECBEF7BF029BEAAEF7BF0295006E1C0
:10F744002804D8B0A8EF7BF0AAEF7BF0B6EF7BF0EB
:10F75400000E246E000E256E000E266E000E276E1F
:10F76400000E1D6ECBEF7BF028C023F0FF0E241695
:10F77400FF0E25167F0E2616000E271623A0C5EFB2
:10F784007BF0C7EF7BF0C8EF7BF0268ED890233058
:10F79400276E1D50271224C011F025C012F026C078
:10F7A40013F027C014F012000450800B0D6E0450A7
:10F7B40004240F6E03AEE1EF7BF0E3EF7BF0E4EFA4
:10F7C4007BF00F800F50D8B4EAEF7BF0ECEF7BF0C6
:10F7D40001EF7CF00F28D8A4F2EF7BF0F4EF7BF07C
:10F7E400FCEF7BF0000E016E000E026E000E036E45
:10F7F400000E046E038E000E046E09EF7CF0000E02
:10F80400016E000E026E000E036E000E046E0850B0
:10F81400800B0E6E0D500E18D8B413EF7CF015EF5C
:10F824007CF016EF7CF00D8C085008240E6E07AEA9
:10F834001EEF7CF020EF7CF021EF7CF00E800E5068
:10F84400D8B427EF7CF029EF7CF03EEF7CF00E2853
:10F85400D8A42FEF7CF031EF7CF039EF7CF0000E70
:10F86400056E000E066E000E076E000E086E078E03
:10F87400000E086E46EF7CF0000E056E000E066E5C
:10F88400000E076E000E086E0F500E5CD8B04DEFE0
:10F894007CF04FEF7CF076EF7CF00DAC54EF7CF015
:10F8A40056EF7CF058EF7CF0800E0D1A0FC010F06C
:10F8B4000EC00FF010C00EF001C010F005C001F032
:10F8C40010C005F002C010F006C002F010C006F02F
:10F8D40003C010F007C003F010C007F004C010F01C
:10F8E40008C004F010C008F0000E106E0F500EC0D7
:10F8F40009F00A6A095E000E0A5A0ABE8BEF7CF010
:10F904000A5009E11A0E095CD8A08BEF7CF08DEF48
:10F914007CF0C4EF7CF00150021003100410D8A452
:10F9240096EF7CF099EF7CF0010E9AEF7CF0000EDC
:10F93400106E000E016E000E026E000E036E000EBD
:10F94400046E0EC00FF0CDEF7CF010A0ACEF7CF095
:10F95400AEEF7CF0B4EF7CF0D89010300109106E5B
:10F96400B6EF7CF0D890103201A0BBEF7CF0BDEF75
:10F974007CF0BEEF7CF0108E043404320332023289
:10F9840001320F2A0E500F5CD8A0CBEF7CF0CDEFE4
:10F994007CF0A7EF7CF00DBCD2EF7CF0D4EF7CF0D0
:10F9A40014EF7DF00F50D8A4DAEF7CF0DCEF7CF09C
:10F9B400E6EF7CF0000E016E000E026E000E036E88
:10F9C400000E046E35EF7EF005500126065002222B
:10F9D400075003220850042204A0F3EF7CF0F5EF53
:10F9E4007CF0A1EF7DF010A0FAEF7CF0FCEF7CF04E
:10F9F40002EF7DF0D89010300109106E04EF7DF015
:10FA0400D890103201A009EF7DF00BEF7DF00CEFE0
:10FA14007DF0108E043404320332023201320F2A94
:10FA2400A1EF7DF00550015C0650025807500358C1
:10FA34000450800A096E0850800A0958D8B025EF8E
:10FA44007DF027EF7DF052EF7DF00150055C096EEB
:10FA5400025006580A6E035007580B6E045008589B
:10FA64000C6EFF0E0924016EFF0E0A20026EFF0EBB
:10FA74000B20036EFF0E0C20046E800E0D1A106C0A
:10FA84001050D8A448EF7DF04AEF7DF05AEF7DF096
:10FA9400010E0126000E0222032204225AEF7DF0F9
:10FAA4000550015E0650025A0750035A0850045A82
:10FAB4000150021003100410D8A463EF7DF065EF29
:10FAC4007DF09AEF7DF01050D8A46BEF7DF06DEFD0
:10FAD4007DF09AEF7DF0000E016E000E026E000EB6
:10FAE400036E000E046E35EF7EF0D89001360236B8
:10FAF4000336043610AE81EF7DF083EF7DF084EFA2
:10FB04007DF0018010A089EF7DF08BEF7DF08FEF09
:10FB14007DF0D880103691EF7DF0D89010360F50DC
:10FB2400D8B497EF7DF099EF7DF09AEF7DF00F0652
:10FB340003AE9FEF7DF0A1EF7DF077EF7DF0000E37
:10FB44000E6E10AEA8EF7DF0AAEF7DF0C2EF7DF04F
:10FB540010C009F07F0E0916D8B4B3EF7DF0B5EFED
:10FB64007DF0B9EF7DF0010E0E6EC2EF7DF001A0C5
:10FB7400BEEF7DF0C0EF7DF0C2EF7DF0B5EF7DF01C
:10FB84000E50D8B4C8EF7DF0CAEF7DF0F5EF7DF0EC
:10FB9400010E0126000E02220322042204A0D5EF46
:10FBA4007DF0D7EF7DF0F5EF7DF001C009F002C0E4
:10FBB4000AF003C00BF004C00CF00C340C320B320E
:10FBC4000A32093209C001F00AC002F00BC003F086
:10FBD4000CC004F00F28D8B4F2EF7DF0F4EF7DF000
:10FBE400F5EF7DF00F2A0F28D8B4FBEF7DF0FDEF81
:10FBF4007DF005EF7EF00F50D8A403EF7EF005EF03
:10FC04007EF017EF7EF0000E016E000E026E000E05
:10FC1400036E000E046E0F50D8A413EF7EF015EFA0
:10FC24007EF017EF7EF0000E0D6E0FA01CEF7EF03D
:10FC34001EEF7EF021EF7EF0038E22EF7EF0039E16
:10FC4400D8900F30046E0DAE2AEF7EF02CEF7EF0CC
:10FC54002DEF7EF0048E01C001F002C002F003C05B
:10FC640003F004C004F01200006D6F6465203D20B1
:10FC74004C6F526120776974682046534B2072653B
:10FC8400676973746572732061636365737300637A
:10FC94006F6E66696775726174696F6E20726567ED
:10FCA40069737465727320636F6E74656E743A0061
:10FCB4006265666F726520636C6561723A205245B5
:10FCC400475F4952515F464C414753203D203078AD
:10FCD40000616674657220636C6561723A205245F6
:10FCE400475F4952515F464C414753203D2030788D
:10FCF400005245475F444554454354494F4E5F5471
:10FD040048524553484F4C44203D2030780073748A
:10FD1400657020323A20736574206D6F64652074B9
:10FD24006F204C6F5261205458005245475F4D413B
:10FD3400585F5041594C4F41445F4C454E475448DD
:10FD4400203D203078004368616E6E656C2041630D
:10FD540074697669747920446574656374696F6E37
:10FD6400005245475F505245414D424C455F4C530C
:10FD7400425F4C4F5241203D203078005245475F4E
:10FD8400505245414D424C455F4D53425F4C4F529A
:10FD940041203D203078005245475F4649464F5F39
:10FDA40052585F424153455F41444452203D203004
:10FDB40078005245475F4649464F5F54585F424179
:10FDC40053455F41444452203D203078005245471A
:10FDD4005F53594D425F54494D454F55545F4C5301
:10FDE40042203D203078005245475F444554454306
:10FDF400545F4F5054494D495A45203D20307800B6
:10FE04007374657020333A205478446F6E652066AD
:10FE14006C61672073657400636F6E74696E756FCF
:10FE240075732072656365697665206D6F6465001E
:10FE34005245475F4952515F464C4147535F4D41DC
:10FE4400534B203D203078006672657175656E6392
:10FE5400792073796E7468657369732052580066EB
:10FE640072657175656E63792073796E74686573F4
:10FE74006973205458005245475F4D4F44454D5FC8
:10FE8400434F4E46494731203D2030780052454784
:10FE94005F4D4F44454D5F434F4E46494732203DE9
:10FEA400203078005245475F4649464F5F414444FD
:10FEB400525F505452203D2030780073696E676C55
:10FEC400652072656365697665206D6F64650052AF
:10FED40045475F484F505F504552494F44203D20AD
:10FEE4003078007374657020343A20636C656172F5
:10FEF40020666C616773005245475F53594E435FF8
:10FF0400574F5244203D203078005245475F5041BE
:10FF14005F434F4E464947203D20307800524547C5
:10FF24005F494E564552545F4951203D2030780078
:10FF34007374657020313A206C6F616420464946C1
:10FF44004F00303132333435363738394142434447
:10FF54004546005245475F4652465F4C5342203D5A
:10FF6400203078005245475F4652465F4D53422049
:10FF74003D203078005245475F4652465F4D494424
:10FF8400203D203078005245475F4F505F4D4F442D
:10FF940045203D203078005245475F50415F524133
:10FFA4004D50203D203078007374616E6462792076
:10FFB4006D6F6465005245475F4C4E41203D2030D3
:10FFC40078005245475F4F4350203D203078006D04
:10FFD4006F6465203D204C6F5261006D6F64652035
:10FFE4003D2046534B00736C656570206D6F6465EE
:0CFFF400005458206D6F64650020000070
:020000040020DA
:08000000FFFFFFFFFFFFFFFF00
:020000040030CA
:0E000000FF291E3CFFBD81FF0FC00FE00F4027
:00000001FF
