:020000040000FA
:0400000061EF71F04B
:10E07C0093848A9693968A98120000004040FFFF82
:10E08C00FFFF03E701019E96C5809EA650EF70F03E
:10E09C0052EF70F04BEF70F01200016EACA259EF22
:10E0AC0070F05BEF70F054EF70F001C0ADFF120038
:10E0BC009E96C59AC5889EA666EF70F068EF70F0C4
:10E0CC0061EF70F012009E96C58AC5889EA671EF0E
:10E0DC0070F073EF70F06CEF70F012008A988A9603
:10E0EC001A0E016EF80EE82EFED7012EFCD700D0CA
:10E0FC008A861200F5EC70F09E96C5849EA689EF78
:10E10C0070F08BEF70F084EF70F01200026E6F50B5
:10E11C00A49E02C06FFFA4AE96EF70F098EF70F063
:10E12C0091EF70F01200076E8D9007508009076E0A
:10E13C0007508CEC70F006508CEC70F08D80120057
:10E14C00026EF5EC70F09E9602C0C9FF9EA6B1EF70
:10E15C0070F0B3EF70F0ACEF70F01200056E8D90B4
:10E16C0005507F0B056E05508CEC70F0000EC3EC67
:10E17C0070F0046E8D8004501200026E6F50A49EDD
:10E18C0002C06FFFA4AECDEF70F0CFEF70F0C8EF10
:10E19C0070F06FCF03F003501200F5EC70F09E9608
:10E1AC00C586C7A0DCEF70F0DEEF70F0D7EF70F033
:10E1BC009E96C9CF02F0025012008A849394820E6C
:10E1CC00016EDE0EE82EFED7012EFCD79384820E54
:10E1DC00016EDE0EE82EFED7012EFCD71200C7B45E
:10E1EC00FAEF70F0FEEF70F0016A012AFFEF70F0A9
:10E1FC00016AC5501F0B01100009D8A408EF71F07B
:10E20C000AEF71F0F5EF70F01200948694880F010C
:10E21C003A973A99C69EC69CC68AC698C650F00BC9
:10E22C000809C66E00F000F000F0130EC86E00F086
:10E23C0000F000F0C78EC79C9E96A1961200948C9D
:10E24C00948E0F013A9F000EAC6E000EAB6EAC9824
:10E25C00AC9CAB9CAB88AB969D8A9D98AC84B886E5
:10E26C000C0EAF6E000EB06EAC8AAB8E9E9A9D8A71
:10E27C00F28C120095900F013B91210EE82EFED7E7
:10E28C0000F095820F013B93210EE82EFED700F093
:10E29C00959896908D806D9E210EE82EFED700F0FD
:10E2AC006D8C210EE82EFED700F0200E6C6EC80E81
:10E2BC00E82EFED71200860EF66EE00EF76E000EFC
:10E2CC00F86E00EE93F010EE0CF00900F5CFEEFFB7
:10E2DC00E550E150FAE101EE00F011EE00F0EE6ACB
:10E2EC00E550E150FCE1E250FAE100EE60F0330E53
:10E2FC00EE6AE806FDE1000EF86E0001B6EF77F06D
:10E30C00000E066E99EF71F006500224046E000E9A
:10E31C000320056E04C0F6FF05C0F7FF0800F5509A
:10E32C0053EC70F0062A06500224046E000E0320F3
:10E33C00056E04C0F6FF05C0F7FF0800F550000994
:10E34C00D8A4ABEF71F0ADEF71F08AEF71F0120061
:10E35C003EEC70F040EC71F0E3EC70F074EC70F0AB
:10E36C00000E066E010E99EC70F0800E066E010E1A
:10E37C0099EC70F0810E066E010E99EC70F0020EA5
:10E38C00146E040E136EBA0EE82EFED7132EFCD7A5
:10E39C00142EFAD700D099EC73F09DEC72F01200A9
:10E3AC00000E066EE9EF71F006500224046E000EAA
:10E3BC000320056E04C0F6FF05C0F7FF0800F550FA
:10E3CC0053EC70F0062A06500224046E000E032053
:10E3DC00056E04C0F6FF05C0F7FF0800F5500009F4
:10E3EC00D8A4FBEF71F0FDEF71F0DAEF71F00D0EC8
:10E3FC0053EC70F00A0E53EC70F012000E6E460ED9
:10E40C000C6EFF0E0D6E0EC001F0026A000E046E53
:10E41C00100E036E3BEC72F00CC009F00DC00AF04C
:10E42C000150092602500A2209C0F6FF0AC0F7FF64
:10E43C000800F55053EC70F00EC009F00F0E0916E1
:10E44C0009500C240A6E000E0D200B6E0AC0F6FF4C
:10E45C000BC0F7FF0800F55053EC70F00D0E53ECA9
:10E46C0070F00A0E53EC70F01200000E066E04BE33
:10E47C0044EF72F042EF72F04AEF72F0036C041E3C
:10E48C00D8B0042A010E066E02BE51EF72F04FEFA7
:10E49C0072F057EF72F0016C021ED8B0022A010E16
:10E4AC00061A000E086E000E076E03500410D8B446
:10E4BC0062EF72F064EF72F08CEF72F0010E056E89
:10E4CC006CEF72F0D89003360436052A04AE71EF67
:10E4DC0072F073EF72F068EF72F0D890073608366E
:10E4EC000350015C04500258D8A07FEF72F081EF0A
:10E4FC0072F086EF72F00350015E0450025A0780EE
:10E50C00D89004320332052E73EF72F00650D8B453
:10E51C0092EF72F094EF72F098EF72F0076C081EA5
:10E52C00D8B0082A07C001F008C002F01200000E93
:10E53C00066E000E99EC70F0D80E066E060E99EC75
:10E54C0070F0600E066E070E99EC70F0000E066E01
:10E55C00080E99EC70F08C0E066E090E99EC70F0AA
:10E56C00190E066E0A0E99EC70F02B0E066E0B0E41
:10E57C0099EC70F0230E066E0C0E99EC70F0000EF8
:10E58C00066E0D0E99EC70F0800E066E0E0E99EC68
:10E59C0070F0000E066E0F0E99EC70F0000E066E09
:10E5AC00110E99EC70F0FF0E066E120E99EC70F0D5
:10E5BC00210E066E1D0E99EC70F0C70E066E1E0E27
:10E5CC0099EC70F0FF0E066E1F0E99EC70F0000EB9
:10E5DC00066E200E99EC70F0080E066E210E99EC6A
:10E5EC0070F0800E066E230E99EC70F0000E066E25
:10E5FC00240E99EC70F0C30E066E310E99EC70F08F
:10E60C00270E066E330E99EC70F00A0E066E370E5E
:10E61C0099EC70F0120E066E390E99EC70F0120037
:10E62C00533454345A6E5A50D8A41FEF73F021EF60
:10E63C0073F02BEF73F0000E516E000E526E000E45
:10E64C00536E000E546E98EF73F051C055F052C0DB
:10E65C0056F053C057F054C058F0200E3BEF73F0F7
:10E66C00D8905832573256325532E82E36EF73F076
:10E67C005550596E538EFF0E5116FF0E5216FF0E4B
:10E68C005316000E5416960E5A5E5ABE52EF73F085
:10E69C0050EF73F068EF73F05A50800A970FD8B0B0
:10E6AC005AEF73F05CEF73F05EEF73F021EF73F0E1
:10E6BC00D89054325332523251325A3E5EEF73F08C
:10E6CC0080EF73F01F0E5A646EEF73F070EF73F0FF
:10E6DC0078EF73F021EF73F0D890513652365336F1
:10E6EC0054365A065A50D8A47EEF73F080EF73F06C
:10E6FC0072EF73F05950D8B486EF73F088EF73F063
:10E70C0090EF73F0541E531E521E516C000E522289
:10E71C005322542251C051F052C052F053C053F006
:10E72C0054C054F01200010EB4EC70F0126E8A0E4C
:10E73C00026EFF0E036E86EC71F0125004EC72F058
:10E74C001250800B116E1150D8B4AFEF73F0B1EFC3
:10E75C0073F0CCEF73F01250400B116E1150D8A423
:10E76C00BAEF73F0BCEF73F0C4EF73F0D30E026E1C
:10E77C00FF0E036ED6EC71F0D2EF73F06D0E026EDD
:10E78C00FC0E036ED6EC71F0D2EF73F0DF0E026E5E
:10E79C00FF0E036ED6EC71F01250070B116E17EFD3
:10E7AC0074F0EA0E026EFF0E036ED6EC71F044EFBD
:10E7BC0074F0AC0E026EFF0E036ED6EC71F044EFEB
:10E7CC0074F0630E026EFE0E036ED6EC71F044EF25
:10E7DC0074F0F50E026EFF0E036ED6EC71F044EF82
:10E7EC0074F04C0E026EFE0E036ED6EC71F044EF1C
:10E7FC0074F01C0E026EFE0E036ED6EC71F044EF3C
:10E80C0074F0BF0E026EFE0E036ED6EC71F044EF88
:10E81C0074F04A0E026EFD0E036ED6EC71F044EFEE
:10E82C0074F011500F6E106A1050000AD8B421EF1A
:10E83C0074F044EF74F00F50000AD8B4D7EF73F0B3
:10E84C00010AD8B4DFEF73F0030AD8B4E7EF73F022
:10E85C00010AD8B4EFEF73F0070AD8B4F7EF73F0EE
:10E86C00010AD8B4FFEF73F0030AD8B407EF74F0C1
:10E87C00010AD8B40FEF74F044EF74F01200000EDC
:10E88C00556E000E566E000E576E49EC70F04E0E23
:10E89C00A6EC70F080EC70F0680E516EE40EE82E71
:10E8AC00FED7512EFCD700D049EC70F04F0EA6ECE1
:10E8BC0070F000F0D3EC70F0546E5EEC70F0D3ECB2
:10E8CC0070F0556E5EEC70F0D3EC70F0566E5EEC42
:10E8DC0070F0D3EC70F0576E69EC70F080EC70F067
:10E8EC0054C051F03F0E51165150536E526A555050
:10E8FC0052100001766F5350776F5650516E526A1A
:10E90C00060ED89051365236E82E87EF74F05750D9
:10E91C005110786F5250796F000E3C6EF80E3D6EB0
:10E92C007F0E3E6E460E3F6E76C001F077C002F051
:10E93C00036A046A000E0FEC75F001C038F002C0D7
:10E94C0039F003C03AF004C03BF0E9EC75F038C084
:10E95C001FF039C020F03AC021F03BC022F0000E6D
:10E96C00236E000E246EC80E256E420E266EC1EC70
:10E97C0079F01FC06EF020C06FF021C070F022C083
:10E98C0071F0000E236E000E246E250E256E430EC4
:10E99C00266E000E3C6EF80E3D6E7F0E3E6E460EE1
:10E9AC003F6E78C001F079C002F0036A046A000E71
:10E9BC000FEC75F001C038F002C039F003C03AF02A
:10E9CC0004C03BF0E9EC75F038C01FF039C020F002
:10E9DC003AC021F03BC022F0C1EC79F01FC00FF01F
:10E9EC0020C010F021C011F022C012F0000E136EE6
:10E9FC00000E146E200E156EC20E166ED6EC7BF049
:10EA0C000FC06AF010C06BF011C06CF012C06DF04A
:10EA1C001200096E0950D8B416EF75F018EF75F0A6
:10EA2C003AEF75F004BE1FEF75F01DEF75F03AEF7D
:10EA3C0075F001C005F002C006F003C007F004C079
:10EA4C0008F0051E061E071E081E052A000E0622CB
:10EA5C000722082205C00BF006C00CF007C00DF011
:10EA6C0008C00EF042EF75F001C00BF002C00CF0C4
:10EA7C0003C00DF004C00EF001500210031004107E
:10EA8C00D8A44BEF75F04DEF75F057EF75F0000E05
:10EA9C00016E000E026E000E036E000E046EE8EFA7
:10EAAC0075F0960E0A6E61EF75F00A2AD8900E3248
:10EABC000D320C320B32000E0B14056E000E0C14C2
:10EACC00066E000E0D14076EFE0E0E14086E055029
:10EADC00061007100810D8A476EF75F078EF75F0D3
:10EAEC005BEF75F086EF75F00A2A010E0B26000E0F
:10EAFC000C220D220E22D8900E320D320C320B321B
:10EB0C00000E0B14056E000E0C14066E000E0D1488
:10EB1C00076EFF0E0E14086E055006100710081035
:10EB2C00D8A49BEF75F09DEF75F07AEF75F0A5EF1B
:10EB3C0075F00A06D8900B360C360D360E360DBE17
:10EB4C00AAEF75F0ACEF75F0B4EF75F0020E0A6039
:10EB5C00B2EF75F0B4EF75F09FEF75F00AB0B9EF46
:10EB6C0075F0BBEF75F0BCEF75F00D9ED8900A32C6
:10EB7C000AC005F0066A076A086A05C008F0076A49
:10EB8C00066A056A05500B1206500C1207500D123E
:10EB9C0008500E120950D8B4D6EF75F0D8EF75F0B6
:10EBAC00E0EF75F004BEDFEF75F0DDEF75F0E0EF30
:10EBBC0075F00E8E0BC001F00CC002F00DC003F00E
:10EBCC000EC004F012003B50800B486E3B503B24AF
:10EBDC004F6E3AAEF4EF75F0F6EF75F0F7EF75F0A7
:10EBEC004F804F50D8B4FDEF75F0FFEF75F014EF78
:10EBFC0076F04F28D8A405EF76F007EF76F00FEFFC
:10EC0C0076F0000E386E000E396E000E3A6E000E65
:10EC1C003B6E3A8E000E3B6E1CEF76F0000E386E9B
:10EC2C00000E396E000E3A6E000E3B6E3F50800B9C
:10EC3C00481A3F503F24506E3EAE27EF76F029EF36
:10EC4C0076F02AEF76F050805050D8B430EF76F052
:10EC5C0032EF76F047EF76F05028D8A438EF76F004
:10EC6C003AEF76F042EF76F0000E3C6E000E3D6E01
:10EC7C00000E3E6E000E3F6E3E8E000E3F6E4FEF4E
:10EC8C0076F0000E3C6E000E3D6E000E3E6E000ED9
:10EC9C003F6E3C503D103E103F10D8A458EF76F01C
:10ECAC005AEF76F072EF76F0000E386E000E396E79
:10ECBC00000E3A6E000E3B6E800E3A127F0E3B1227
:10ECCC0048503B1238C038F039C039F03AC03AF0ED
:10ECDC003BC03BF0B5EF77F04F50D8A478EF76F00F
:10ECEC007AEF76F084EF76F0000E386E000E396E07
:10ECFC00000E3A6E000E3B6EB5EF77F050504FC0E1
:10ED0C0040F0416A405E000E415A7F0E4024496E2D
:10ED1C00000E41204A6E38C044F039C045F03AC06C
:10ED2C0046F03BC047F0000E386E000E396E000EF8
:10ED3C003A6E000E3B6E000E4B6E000E4C6E000ECB
:10ED4C004D6E000E4E6E000E506EE5EF76F050508C
:10ED5C00D8B4B3EF76F0B5EF76F0CCEF76F0D89080
:10ED6C004436453646364736D890383639363A36F4
:10ED7C003B364EAEC4EF76F0C6EF76F0C7EF76F0CA
:10ED8C003880D8904B364C364D364E363C50445C21
:10ED9C003D5045583E5046583F504758D8A0D9EFA3
:10EDAC0076F0DBEF76F0E4EF76F04E8C3C50445E80
:10EDBC003D50455A3E50465A3F50475A502A190E1C
:10EDCC005064EBEF76F0EDEF76F0ADEF76F044506B
:10EDDC00451046104710D8B4F6EF76F0F8EF76F001
:10EDEC0010EF77F04B8010EF77F0D890383639363B
:10EDFC003A363B364EAE05EF77F007EF77F008EF7B
:10EE0C0077F03880D8904B364C364D364E36490616
:10EE1C00D8A04A063AAE15EF77F017EF77F0FBEF74
:10EE2C0076F0000E506E4EAE1EEF77F020EF77F0BE
:10EE3C0044EF77F0FF0E4B14406EFF0E4C14416EF6
:10EE4C00FF0E4D14426E7F0E4E14436E4050411017
:10EE5C0042104310D8B435EF77F037EF77F03BEF33
:10EE6C0077F0010E506E44EF77F038A040EF77F05A
:10EE7C0042EF77F044EF77F037EF77F05050D8B49B
:10EE8C004AEF77F04CEF77F070EF77F0010E382601
:10EE9C00000E39223A223B223BA057EF77F059EF74
:10EEAC0077F070EF77F038C040F039C041F03AC0DD
:10EEBC0042F03BC043F043344332423241324032A1
:10EECC0040C038F041C039F042C03AF043C03BF08A
:10EEDC00494A4A2A4ABE7BEF77F04A5008E1492852
:10EEEC00D8A07BEF77F07DEF77F088EF77F0000E0E
:10EEFC004A6E4968000E386E000E396E000E3A6E7E
:10EF0C00000E3B6E4ABE95EF77F04A5006E149047D
:10EF1C00D8B093EF77F095EF77F0A3EF77F0000E82
:10EF2C004A6E000E496E000E386E000E396E000EE1
:10EF3C003A6E000E3B6E000E486E49C04FF04FA06B
:10EF4C00AAEF77F0ACEF77F0AFEF77F03A8EB0EF47
:10EF5C0077F03A9ED8904F303B6E66EF76F0120009
:10EF6C00000E0001906F000E8F6F000E8E6F000E62
:10EF7C008D6F4B0E026E000E016E25EC71F0AEEC37
:10EF8C0071F00BEC71F0F28E000E0001606F616994
:10EF9C006269030E636F0E0EB4EC70F0066E0D0E0C
:10EFAC0099EC70F0040E066E220E99EC70F0000EC7
:10EFBC0000017D6F000E7C6F600E7C25D96E000EFB
:10EFCC007D21DA6EDF50066E000E99EC70F00001B8
:10EFDC007C4B7D2B7DBFFCEF77F07D5109E1040E5E
:10EFEC007C5DD8A0FCEF77F0FEEF77F0E2EF77F0E6
:10EFFC00030E00019F6F970EE82EFED79F2FFCD7B4
:10F00C0000D0830E066E010E99EC70F0020E00011A
:10F01C00A06F040E9F6FBA0EE82EFED79F2FFCD761
:10F02C00A02FFAD700F0120EB4EC70F000018A6F2A
:10F03C00030E0001A06F080E9F6F770EE82EFED70F
:10F04C009F2FFCD7A02FFAD7FD0E026EFF0E036E7A
:10F05C00D6EC71F0E70E026EFE0E036ED6EC71F07C
:10F06C00120EB4EC70F000018A6FB40E026EFC0E3E
:10F07C00036E86EC71F000018A5104EC72F0FF0E05
:10F08C00066E120E99EC70F045EC74F0000E3C6EAE
:10F09C00000E3D6E8C0E3E6E420E3F6E000E236EC9
:10F0AC00000E246E7F0E256E430E266E000E136E20
:10F0BC00000E146EF00E156E410E166E6AC00FF037
:10F0CC006BC010F06CC011F06DC012F0D6EC7BF080
:10F0DC000FC01FF010C020F011C021F012C022F0A0
:10F0EC00C1EC79F01FC038F020C039F021C03AF0E3
:10F0FC0022C03BF0E9EC75F038C051F039C052F049
:10F10C003AC053F03BC054F016EC73F05150000170
:10F11C00A26F000E3C6E000E3D6EC80E3E6E420E8F
:10F12C003F6E000E236E000E246E7F0E256E430E76
:10F13C00266E6EC01FF06FC020F070C021F071C041
:10F14C0022F0C1EC79F01FC038F020C039F021C09A
:10F15C003AF022C03BF0E9EC75F038C051F039C000
:10F16C0052F03AC053F03BC054F016EC73F05150CF
:10F17C000001A36F000E3C6E000E3D6E400E3E6E05
:10F18C00400E3F6E000E236E000E246E7F0E256E19
:10F19C00430E266E93C01FF094C020F095C021F052
:10F1AC0096C022F0C1EC79F01FC038F020C039F0C5
:10F1BC0021C03AF022C03BF0E9EC75F038C051F0B8
:10F1CC0039C052F03AC053F03BC054F016EC73F017
:10F1DC000E0EB4EC70F0066E0D0E99EC70F0060E7F
:10F1EC00066E220E99EC70F0010E0001606F010E9C
:10F1FC00616FE70E626F030E636FA2C064F0A3C071
:10F20C0065F0000E7D6F000E7C6F600E7C25D96E54
:10F21C00000E7D21DA6EDF50066E000E99EC70F058
:10F22C0000017C4B7D2B7DBF25EF79F07D5109E1F1
:10F23C00060E7C5DD8A025EF79F027EF79F00BEF67
:10F24C0079F0060E00019F6F300EE82EFED79F2F2F
:10F25C00FCD700F0830E066E010E99EC70F0020ED6
:10F26C000001A06F040E9F6FBA0EE82EFED79F2FE1
:10F27C00FCD7A02FFAD700F099EC73F0120EB4EC77
:10F28C0070F000018A6F030E0001A06F080E9F6FD3
:10F29C00770EE82EFED79F2FFCD7A02FFAD7FD0EA6
:10F2AC00026EFF0E036ED6EC71F0E70E026EFE0ED0
:10F2BC00036ED6EC71F0120EB4EC70F000018A6F94
:10F2CC00B40E026EFC0E036E86EC71F000018A51D6
:10F2DC0004EC72F0FF0E066E120E99EC70F0660ED6
:10F2EC000001A06F760E9F6FC10EE82EFED79F2FE8
:10F2FC00FCD7A02FFAD7660E0001A06F760E9F6F79
:10F30C00C10EE82EFED79F2FFCD7A02FFAD7660E82
:10F31C000001A06F760E9F6FC10EE82EFED79F2FB7
:10F32C00FCD7A02FFAD7660E0001A06F760E9F6F48
:10F33C00C10EE82EFED79F2FFCD7A02FFAD7660E52
:10F34C000001A06F760E9F6FC10EE82EFED79F2F87
:10F35C00FCD7A02FFAD7660E0001A06F760E9F6F18
:10F36C00C10EE82EFED79F2FFCD7A02FFAD74AEF5D
:10F37C0078F000EF00F02250800B2B6E22502224EC
:10F38C00316E21AECCEF79F0CEEF79F0CFEF79F092
:10F39C0031803150D8B4D5EF79F0D7EF79F0EAEF6E
:10F3AC0079F03128D8A4DDEF79F0DFEF79F0E7EFD1
:10F3BC0079F0000E1F6E000E206E000E216E000EF6
:10F3CC00226E218EF2EF79F0000E1F6E000E206E71
:10F3DC00000E216E000E226E2650800B2B1A26502A
:10F3EC002624306E25AEFDEF79F0FFEF79F000EFBB
:10F3FC007AF030803050D8B406EF7AF008EF7AF01B
:10F40C001BEF7AF03028D8A40EEF7AF010EF7AF0D8
:10F41C0018EF7AF0000E236E000E246E000E256E8F
:10F42C00000E266E258E23EF7AF0000E236E000E52
:10F43C00246E000E256E000E266E3050D8B429EFC7
:10F44C007AF02BEF7AF033EF7AF03150D8A431EF19
:10F45C007AF033EF7AF03DEF7AF0000E1F6E000E6B
:10F46C00206E000E216E000E226ED5EF7BF0255023
:10F47C001F02F3CF36F0F4CF37F036502C6E2D6AD6
:10F48C002E6A2F6A3750326E336A346A356A2450CA
:10F49C002002F3CF36F0F4CF37F036502C26000E86
:10F4AC002D222E222F2237503226000E33223422C8
:10F4BC00352223502102F3CF36F0F4CF37F03650FB
:10F4CC002C26000E2D222E222F2237503226000EF3
:10F4DC003322342235222EC02FF02DC02EF02CC01A
:10F4EC002DF02C6A23502002F3CF36F0F4CF37F0F6
:10F4FC0036502C2637502D22000E2E22000E2F2295
:10F50C0024501F02F3CF36F0F4CF37F036502C26B0
:10F51C0037502D22000E2E22000E2F222EC02FF03F
:10F52C002DC02EF02CC02DF02C6A23501F02F3CFCF
:10F53C0036F0F4CF37F036502C2637502D22000EF3
:10F54C002E22000E2F2225502002F3CF36F0F4CFBE
:10F55C0037F03650322637503322000E3422000E4C
:10F56C00352224502102F3CF36F0F4CF37F0365049
:10F57C00322637503322000E3422000E352225500D
:10F58C002102F3CF36F0F4CF37F03650276E3750D8
:10F59C00286E296A2A6A29C02AF028C029F027C0B7
:10F5AC0028F0276A2750322628503322295034223B
:10F5BC002A5035222CC027F02DC028F02EC029F05F
:10F5CC002FC02AF0190EF0EF7AF0D8902A32293297
:10F5DC0028322732E82EEBEF7AF0275032262850CB
:10F5EC003322295034222A5035222EC02FF02DC020
:10F5FC002EF02CC02DF02C6A305031C027F0286A28
:10F60C002726000E2822820E2724366EFF0E282075
:10F61C00376E26EF7BF0D8903236333634363536AB
:10F62C002FAE1BEF7BF01DEF7BF01EEF7BF03280DB
:10F63C00D8902C362D362E362F363606D8A03706D7
:10F64C0034AE2BEF7BF02DEF7BF011EF7BF0000E47
:10F65C00306E2FAE34EF7BF036EF7BF05AEF7BF051
:10F66C00FF0E2C14276EFF0E2D14286EFF0E2E1479
:10F67C00296E7F0E2F142A6E2750281029102A105D
:10F68C00D8B44BEF7BF04DEF7BF051EF7BF0010EDC
:10F69C00306E5AEF7BF032A056EF7BF058EF7BF0D8
:10F6AC005AEF7BF04DEF7BF03050D8B460EF7BF02D
:10F6BC0062EF7BF086EF7BF0010E3226000E3322D8
:10F6CC003422352235A06DEF7BF06FEF7BF086EFA7
:10F6DC007BF032C027F033C028F034C029F035C09D
:10F6EC002AF02A342A3229322832273227C032F023
:10F6FC0028C033F029C034F02AC035F0364A372AF6
:10F70C0037BE91EF7BF0375008E13628D8A091EF47
:10F71C007BF093EF7BF09DEF7BF0000E326E000ED2
:10F72C00336E800E346E7F0E356ECBEF7BF037BEB2
:10F73C00AAEF7BF0375006E13604D8B0A8EF7BF087
:10F74C00AAEF7BF0B6EF7BF0000E326E000E336E3C
:10F75C00000E346E000E356E000E2B6ECBEF7BF070
:10F76C0036C031F0FF0E3216FF0E33167F0E3416F4
:10F77C00000E351631A0C5EF7BF0C7EF7BF0C8EF5C
:10F78C007BF0348ED8903130356E2B50351232C020
:10F79C001FF033C020F034C021F035C022F012002D
:10F7AC001250800B1B6E125012241D6E11AEE1EF25
:10F7BC007BF0E3EF7BF0E4EF7BF01D801D50D8B4C1
:10F7CC00EAEF7BF0ECEF7BF001EF7CF01D28D8A486
:10F7DC00F2EF7BF0F4EF7BF0FCEF7BF0000E0F6EA2
:10F7EC00000E106E000E116E000E126E118E000EB9
:10F7FC00126E09EF7CF0000E0F6E000E106E000EF4
:10F80C00116E000E126E1650800B1C6E1B501C18C5
:10F81C00D8B413EF7CF015EF7CF016EF7CF01B8C5A
:10F82C00165016241C6E15AE1EEF7CF020EF7CF0EB
:10F83C0021EF7CF01C801C50D8B427EF7CF029EF12
:10F84C007CF03EEF7CF01C28D8A42FEF7CF031EF3D
:10F85C007CF039EF7CF0000E136E000E146E000E6F
:10F86C00156E000E166E158E000E166E46EF7CF0A1
:10F87C00000E136E000E146E000E156E000E166E3A
:10F88C001D501C5CD8B04DEF7CF04FEF7CF076EF48
:10F89C007CF01BAC54EF7CF056EF7CF058EF7CF016
:10F8AC00800E1B1A1DC01EF01CC01DF01EC01CF0CB
:10F8BC000FC01EF013C00FF01EC013F010C01EF0CE
:10F8CC0014C010F01EC014F011C01EF015C011F0C1
:10F8DC001EC015F012C01EF016C012F01EC016F09D
:10F8EC00000E1E6E1D501CC017F0186A175E000E1D
:10F8FC00185A18BE8BEF7CF0185009E11A0E175CE1
:10F90C00D8A08BEF7CF08DEF7CF0C4EF7CF00F5027
:10F91C00101011101210D8A496EF7CF099EF7CF017
:10F92C00010E9AEF7CF0000E1E6E000E0F6E000E94
:10F93C00106E000E116E000E126E1CC01DF0CDEF7D
:10F94C007CF01EA0ACEF7CF0AEEF7CF0B4EF7CF062
:10F95C00D8901E3001091E6EB6EF7CF0D8901E3286
:10F96C000FA0BBEF7CF0BDEF7CF0BEEF7CF01E8EE9
:10F97C0012341232113210320F321D2A1C501D5CFF
:10F98C00D8A0CBEF7CF0CDEF7CF0A7EF7CF01BBCCC
:10F99C00D2EF7CF0D4EF7CF014EF7DF01D50D8A4A6
:10F9AC00DAEF7CF0DCEF7CF0E6EF7CF0000E0F6E13
:10F9BC00000E106E000E116E000E126E35EF7EF002
:10F9CC0013500F26145010221550112216501222CB
:10F9DC0012A0F3EF7CF0F5EF7CF0A1EF7DF01EA010
:10F9EC00FAEF7CF0FCEF7CF002EF7DF0D8901E304B
:10F9FC0001091E6E04EF7DF0D8901E320FA009EFA6
:10FA0C007DF00BEF7DF00CEF7DF01E8E1234123278
:10FA1C00113210320F321D2AA1EF7DF013500F5C02
:10FA2C0014501058155011581250800A176E165059
:10FA3C00800A1758D8B025EF7DF027EF7DF052EFF4
:10FA4C007DF00F50135C176E10501458186E115037
:10FA5C001558196E125016581A6EFF0E17240F6E89
:10FA6C00FF0E1820106EFF0E1920116EFF0E1A20BB
:10FA7C00126E800E1B1A1E6C1E50D8A448EF7DF01F
:10FA8C004AEF7DF05AEF7DF0010E0F26000E10228A
:10FA9C00112212225AEF7DF013500F5E1450105A9F
:10FAAC001550115A1650125A0F50101011101210E6
:10FABC00D8A463EF7DF065EF7DF09AEF7DF01E50DA
:10FACC00D8A46BEF7DF06DEF7DF09AEF7DF0000E1A
:10FADC000F6E000E106E000E116E000E126E35EFD2
:10FAEC007EF0D8900F361036113612361EAE81EFDE
:10FAFC007DF083EF7DF084EF7DF00F801EA089EF09
:10FB0C007DF08BEF7DF08FEF7DF0D8801E3691EF7E
:10FB1C007DF0D8901E361D50D8B497EF7DF099EF3C
:10FB2C007DF09AEF7DF01D0611AE9FEF7DF0A1EFF9
:10FB3C007DF077EF7DF0000E1C6E1EAEA8EF7DF011
:10FB4C00AAEF7DF0C2EF7DF01EC017F07F0E1716E6
:10FB5C00D8B4B3EF7DF0B5EF7DF0B9EF7DF0010EC9
:10FB6C001C6EC2EF7DF00FA0BEEF7DF0C0EF7DF0FC
:10FB7C00C2EF7DF0B5EF7DF01C50D8B4C8EF7DF02E
:10FB8C00CAEF7DF0F5EF7DF0010E0F26000E10226E
:10FB9C001122122212A0D5EF7DF0D7EF7DF0F5EFF8
:10FBAC007DF00FC017F010C018F011C019F012C082
:10FBBC001AF01A341A3219321832173217C00FF0E1
:10FBCC0018C010F019C011F01AC012F01D28D8B4CA
:10FBDC00F2EF7DF0F4EF7DF0F5EF7DF01D2A1D289E
:10FBEC00D8B4FBEF7DF0FDEF7DF005EF7EF01D50FE
:10FBFC00D8A403EF7EF005EF7EF017EF7EF0000E39
:10FC0C000F6E000E106E000E116E000E126E1D5057
:10FC1C00D8A413EF7EF015EF7EF017EF7EF0000EF8
:10FC2C001B6E1DA01CEF7EF01EEF7EF021EF7EF010
:10FC3C00118E22EF7EF0119ED8901D30126E1BAEED
:10FC4C002AEF7EF02CEF7EF02DEF7EF0128E0FC09F
:10FC5C000FF010C010F011C011F012C012F0120011
:10FC6C00006D6F6465203D204C6F52612077697484
:10FC7C00682046534B2072656769737465727320F4
:10FC8C0061636365737300636F6E66696775726138
:10FC9C0074696F6E20726567697374657273206323
:10FCAC006F6E74656E743A006265666F7265206380
:10FCBC006C6561723A205245475F4952515F464C20
:10FCCC00414753203D203078006166746572206393
:10FCDC006C6561723A205245475F4952515F464C00
:10FCEC00414753203D203078005245475F444554EE
:10FCFC00454354494F4E5F5448524553484F4C442A
:10FD0C00203D203078007374657020323A20736582
:10FD1C0074206D6F646520746F204C6F5261205499
:10FD2C0058005245475F4D41585F5041594C4F4127
:10FD3C00445F4C454E475448203D20307800436882
:10FD4C00616E6E656C2041637469766974792044C8
:10FD5C006574656374696F6E005245475F50524518
:10FD6C00414D424C455F4C53425F4C4F5241203DFC
:10FD7C00203078005245475F505245414D424C452A
:10FD8C005F4D53425F4C4F5241203D203078005222
:10FD9C0045475F4649464F5F52585F424153455F66
:10FDAC0041444452203D203078005245475F46493B
:10FDBC00464F5F54585F424153455F414444522083
:10FDCC003D203078005245475F53594D425F5449AE
:10FDDC004D454F55545F4C5342203D2030780052D6
:10FDEC0045475F4445544543545F4F5054494D4932
:10FDFC005A45203D203078007374657020333A20CA
:10FE0C005478446F6E6520666C616720736574006E
:10FE1C00636F6E74696E756F757320726563656957
:10FE2C007665206D6F6465005245475F4952515F9E
:10FE3C00464C4147535F4D41534B203D2030780099
:10FE4C006672657175656E63792073796E74686519
:10FE5C00736973205258006672657175656E6379AB
:10FE6C002073796E74686573697320545800524519
:10FE7C00475F4D4F44454D5F434F4E4649473120F8
:10FE8C003D203078005245475F4D4F44454D5F4310
:10FE9C004F4E46494732203D203078005245475F4F
:10FEAC004649464F5F414444525F505452203D20D6
:10FEBC0030780073696E676C65207265636569766E
:10FECC0065206D6F6465005245475F484F505F5029
:10FEDC004552494F44203D203078007374657020A2
:10FEEC00343A20636C65617220666C6167730052F2
:10FEFC0045475F53594E435F574F5244203D203086
:10FF0C0078005245475F50415F434F4E464947206A
:10FF1C003D203078005245475F494E564552545F5C
:10FF2C004951203D203078007374657020313A209F
:10FF3C006C6F6164204649464F00303132333435A2
:10FF4C0036373839414243444546005245475F46AF
:10FF5C0052465F4C5342203D203078005245475F5B
:10FF6C004652465F4D5342203D2030780052454763
:10FF7C005F4652465F4D4944203D20307800524543
:10FF8C00475F4F505F4D4F4445203D203078005225
:10FF9C0045475F50415F52414D50203D2030780025
:10FFAC007374616E646279206D6F646500524547AD
:10FFBC005F4C4E41203D203078005245475F4F4307
:10FFCC0050203D203078006D6F6465203D204C6FD3
:10FFDC005261006D6F6465203D2046534B00736C7D
:10FFEC00656570206D6F6465005458206D6F646595
:04FFFC0000200000E1
:020000040020DA
:08000000FFFFFFFFFFFFFFFF00
:020000040030CA
:0E000000FF291E3CFFBD81FF0FC00FE00F4027
:00000001FF
