:020000040000FA
:040000007EEF70F02F
:10DD9A00120E86EC6FF01200870ED56E200EF26E10
:10DDAA00120093848A9693968A981200FF0E066E42
:10DDBA00120E6BEC6FF0120000004040FFFFFFFFF5
:10DDCA0003E70101928095809582958695889486CD
:10DDDA0094881200D39ED3508F0B6009D36ED386DA
:10DDEA00D384D390D39212009E96C5809EA600EF4C
:10DDFA006FF002EF6FF0FBEF6EF01200016E01C0E0
:10DE0A00A9FF000EAA6EA69EA69CA680A850120084
:10DE1A00EFEC6EF0E7EC6EF03FEC70F051EC6FF067
:10DE2A00D1EC6EF01200016EACA21EEF6FF020EF83
:10DE3A006FF019EF6FF001C0ADFF12009E96C59A00
:10DE4A00C5889EA62BEF6FF02DEF6FF026EF6FF0CF
:10DE5A0012009E96C58AC5889EA636EF6FF038EFE7
:10DE6A006FF031EF6FF012008A988A961A0E016EDF
:10DE7A00F80EE82EFED7012EFCD700D08A861200B3
:10DE8A00D9EC6FF09E96C5849EA64EEF6FF050EFC8
:10DE9A006FF049EF6FF012000F013881389338950F
:10DEAA003897389B000E3B6F000E3A6F000E3C6F9E
:10DEBA001200026E6F50A49E02C06FFFA4AE68EFFC
:10DECA006FF06AEF6FF063EF6FF01200076E8D90DC
:10DEDA0007508009076E07505EEC6FF006505EEC43
:10DEEA006FF08D801200026ED9EC6FF09E9602C020
:10DEFA00C9FF9EA683EF6FF085EF6FF07EEF6FF09C
:10DF0A001200056E8D9005507F0B056E05505EEC74
:10DF1A006FF0000E95EC6FF0046E8D8004501200C5
:10DF2A00026E6F50A49E02C06FFFA4AE9FEF6FF007
:10DF3A00A1EF6FF09AEF6FF06FCF03F0035012006A
:10DF4A00D9EC6FF09E96C586C7A0AEEF6FF0B0EF22
:10DF5A006FF0A9EF6FF09E96C9CF02F0025012003F
:10DF6A008A849394820E016EDE0EE82EFED7012E6D
:10DF7A00FCD79384820E016EDE0EE82EFED7012EA8
:10DF8A00FCD71200830E066E010E6BEC6FF0020EC8
:10DF9A00096E040E086EBA0EE82EFED7082EFCD7BC
:10DFAA00092EFAD700D01200C7B4DEEF6FF0E2EF05
:10DFBA006FF0016A012AE3EF6FF0016AC5501F0B87
:10DFCA0001100009D8A4ECEF6FF0EEEF6FF0D9EF73
:10DFDA006FF01200948694880F013A973A99C69E78
:10DFEA00C69CC68AC698C650F00B0809C66E00F0D1
:10DFFA0000F000F0130EC86E00F000F000F0C78EBB
:10E00A00C79C9E96A1961200948C948E0F013A9FFB
:10E01A00000EAC6E000EAB6EAC98AC9CAB9CAB88A1
:10E02A00AB969D8A9D98AC84B8860C0EAF6E000E96
:10E03A00B06EAC8AAB8E9E9A9D8AF28C1200026EEA
:10E04A0002C0A9FF000EAA6E01C0A8FFA69EA69C48
:10E05A00A684F29E550EA76EAA0EA76EA682A6B237
:10E06A0039EF70F03BEF70F034EF70F0A19800F0E8
:10E07A00F28E12000F01428F4251CF0B2009426FDC
:10E08A0042AD4AEF70F04CEF70F045EF70F0C08E81
:10E09A00380EC012C084C082C090C280830EC216DD
:10E0AA00C2925451F00B0B09546FC19E9E9C1200F0
:10E0BA0095900F013B91210EE82EFED700F0958234
:10E0CA000F013B93210EE82EFED700F0959896900B
:10E0DA008D806D9E210EE82EFED700F06D8C210EEC
:10E0EA00E82EFED700F0200E6C6EC80EE82EFED782
:10E0FA001200C20EF66EDD0EF76E000EF86E00EE1E
:10E10A00B1F010EE0CF00900F5CFEEFFE550E1504A
:10E11A00FAE101EE00F011EE00F0EE6AE550E1508E
:10E12A00FCE1E250FAE100EE60F0320EEE6AE80637
:10E13A00FDE15F6A000EF86E000126EF74F0000E32
:10E14A00066EB7EF70F006500224046E000E03202C
:10E15A00056E04C0F6FF05C0F7FF0800F55018EC7D
:10E16A006FF0062A06500224046E000E0320056E84
:10E17A0004C0F6FF05C0F7FF0800F5500009D8A44F
:10E18A00C9EF70F0CBEF70F0A8EF70F01200D6EC88
:10E19A006EF05DEC70F0B5EC6FF039EC6FF0000EDC
:10E1AA00066E010E6BEC6FF0800E066E010E6BECC4
:10E1BA006FF0810E066E010E6BEC6FF0020E146E9C
:10E1CA00040E136EBA0EE82EFED7132EFCD7142EA9
:10E1DA00FAD700D07AEC73F07EEC72F01200000EDF
:10E1EA00066E07EF71F006500224046E000E03203B
:10E1FA00056E04C0F6FF05C0F7FF0800F55018ECDD
:10E20A006FF0062A06500224046E000E0320056EE3
:10E21A0004C0F6FF05C0F7FF0800F5500009D8A4AE
:10E22A0019EF71F01BEF71F0F8EF70F00D0E18ECAA
:10E23A006FF00A0E18EC6FF012000A500B10D8B4E7
:10E24A0029EF71F02BEF71F04FEF71F0010E0C6EA8
:10E25A0033EF71F0D8900A360B360C2A0BAE38EF32
:10E26A0071F03AEF71F02FEF71F00A50085C0B5021
:10E27A000958D8A043EF71F045EF71F049EF71F0FA
:10E28A000A50085E0B50095AD8900B320A320C2EEB
:10E29A003AEF71F008C008F009C009F012000E6EDA
:10E2AA00460E0C6EFF0E0D6E0EC001F0026A000ED5
:10E2BA00046E100E036E1CEC72F00CC009F00DC057
:10E2CA000AF00150092602500A2209C0F6FF0AC0C4
:10E2DA00F7FF0800F55018EC6FF00EC009F00F0EAA
:10E2EA00091609500C240A6E000E0D200B6E0AC086
:10E2FA00F6FF0BC0F7FF0800F55018EC6FF00D0E93
:10E30A0018EC6FF00A0E18EC6FF01200000E066E91
:10E31A00000E056E03500410D8B496EF71F098EF12
:10E32A0071F0C0EF71F0010E076EA0EF71F0D89096
:10E33A0003360436072A04AEA5EF71F0A7EF71F091
:10E34A009CEF71F0D890053606360350015C0450F4
:10E35A000258D8A0B3EF71F0B5EF71F0BAEF71F0CF
:10E36A000350015E0450025A0580D89004320332E9
:10E37A00072EA7EF71F005C001F006C002F01200E7
:10E38A000001986F000E2C6E000E2D6E200E2E6E60
:10E39A00410E2F6E94C028F095C029F096C02AF03D
:10E3AA0097C02BF005EC7AF028C051F029C052F042
:10E3BA002AC053F02BC054F0F7EC72F05150000110
:10E3CA009D6F0E0E86EC6FF0066E0D0E6BEC6FF005
:10E3DA00040E066E220E6BEC6FF098C099F092C094
:10E3EA009AF093C09BF09DC09CF0000E00019F6FB5
:10E3FA00000E9E6F990E9E25D96E000E9F21DA6E31
:10E40A00DF50066E000E6BEC6FF000019E4B9F2BE7
:10E41A009FBF19EF72F09F5109E1060E9E5DD8A0C9
:10E42A0019EF72F01BEF72F0FFEF71F01200000E9D
:10E43A00066E04BE25EF72F023EF72F02BEF72F036
:10E44A00036C041ED8B0042A010E066E02BE32EF17
:10E45A0072F030EF72F038EF72F0016C021ED8B031
:10E46A00022A010E061A000E086E000E076E0350ED
:10E47A000410D8B443EF72F045EF72F06DEF72F00A
:10E48A00010E056E4DEF72F0D89003360436052A58
:10E49A0004AE52EF72F054EF72F049EF72F0D89076
:10E4AA00073608360350015C04500258D8A060EFC2
:10E4BA0072F062EF72F067EF72F00350015E04507F
:10E4CA00025A0780D89004320332052E54EF72F0B4
:10E4DA000650D8B473EF72F075EF72F079EF72F0FC
:10E4EA00076C081ED8B0082A07C001F008C002F05D
:10E4FA001200000E066E000E6BEC6FF0D80E066E60
:10E50A00060E6BEC6FF0600E066E070E6BEC6FF08A
:10E51A00000E066E080E6BEC6FF08C0E066E090E7E
:10E52A006BEC6FF0190E066E0A0E6BEC6FF02B0E89
:10E53A00066E0B0E6BEC6FF0230E066E0C0E6BEC78
:10E54A006FF0000E066E0D0E6BEC6FF0800E066E0D
:10E55A000E0E6BEC6FF0000E066E0F0E6BEC6FF08A
:10E56A00000E066E110E6BEC6FF0FF0E066E120EA9
:10E57A006BEC6FF0210E066E1D0E6BEC6FF0C70E82
:10E58A00066E1E0E6BEC6FF0FF0E066E1F0E6BEC26
:10E59A006FF0000E066E200E6BEC6FF0080E066E22
:10E5AA00210E6BEC6FF0800E066E230E6BEC6FF093
:10E5BA00000E066E240E6BEC6FF0C30E066E310E63
:10E5CA006BEC6FF0270E066E330E6BEC6FF00A0ED3
:10E5DA00066E370E6BEC6FF0120E066E390E6BEC90
:10E5EA006FF01200533454345A6E5A50D8A400EFC4
:10E5FA0073F002EF73F00CEF73F0000E516E000E21
:10E60A00526E000E536E000E546E79EF73F051C0C5
:10E61A0055F052C056F053C057F054C058F0200E6F
:10E62A001CEF73F0D8905832573256325532E82ED2
:10E63A0017EF73F05550596E538EFF0E5116FF0E99
:10E64A005216FF0E5316000E5416960E5A5E5ABEF6
:10E65A0033EF73F031EF73F049EF73F05A50800AD9
:10E66A00970FD8B03BEF73F03DEF73F03FEF73F0C5
:10E67A0002EF73F0D89054325332523251325A3E2A
:10E68A003FEF73F061EF73F01F0E5A644FEF73F0B0
:10E69A0051EF73F059EF73F002EF73F0D8905136DF
:10E6AA005236533654365A065A50D8A45FEF73F08E
:10E6BA0061EF73F053EF73F05950D8B467EF73F00A
:10E6CA0069EF73F071EF73F0541E531E521E516CB2
:10E6DA00000E52225322542251C051F052C052F01D
:10E6EA0053C053F054C054F01200010E86EC6FF080
:10E6FA00126E8A0E026EFF0E036EA4EC70F01250B8
:10E70A0054EC71F01250800B116E1150D8B490EF86
:10E71A0073F092EF73F0ADEF73F01250400B116E7D
:10E72A001150D8A49BEF73F09DEF73F0A5EF73F02F
:10E73A00D30E026EFF0E036EF4EC70F0B3EF73F0BB
:10E74A00F50E026EFC0E036EF4EC70F0B3EF73F08C
:10E75A00DF0E026EFF0E036EF4EC70F01250070B20
:10E76A00116EF8EF73F0EA0E026EFF0E036EF4EC10
:10E77A0070F025EF74F0AC0E026EFF0E036EF4EC2F
:10E78A0070F025EF74F0760E026EFE0E036EF4EC56
:10E79A0070F025EF74F0F50E026EFF0E036EF4ECC6
:10E7AA0070F025EF74F05F0E026EFE0E036EF4EC4D
:10E7BA0070F025EF74F02F0E026EFE0E036EF4EC6D
:10E7CA0070F025EF74F0D20E026EFE0E036EF4ECBA
:10E7DA0070F025EF74F0750E026EFD0E036EF4EC08
:10E7EA0070F025EF74F011500F6E106A1050000A85
:10E7FA00D8B402EF74F025EF74F00F50000AD8B4C1
:10E80A00B8EF73F0010AD8B4C0EF73F0030AD8B4B2
:10E81A00C8EF73F0010AD8B4D0EF73F0070AD8B47E
:10E82A00D8EF73F0010AD8B4E0EF73F0030AD8B452
:10E83A00E8EF73F0010AD8B4F0EF73F025EF74F043
:10E84A001200000E00018F6F000E8E6F000E8D6F8A
:10E85A00000E8C6F4B0E026E000E016E09EC70F00A
:10E86A000DEC6FF0CCEC70F0EFEC6FF0F28EEAEC9E
:10E87A0074F0000E03EC6FF00001BC6F010E03ECA4
:10E88A006FF00001BA6FBC29016E000E24EC70F023
:10E89A000001BA51020F016E010E24EC70F0BAC0E9
:10E8AA0092F0BCC093F0B1C094F0B2C095F0B3C07E
:10E8BA0096F0B4C097F0000EC5EC71F0C7EC6FF09B
:10E8CA00CDEC6EF0DBEC6EF0B3EC75F0EAEC74F0C4
:10E8DA00BAC092F0BCC093F0B1C094F0B2C095F047
:10E8EA00B3C096F0B4C097F06AC098F06BC099F0C4
:10E8FA006CC09AF06DC09BF06EC09CF06FC09DF02A
:10E90A0070C09EF071C09FF0010E57EC77F0C7EC13
:10E91A006FF0CDEC6EF0DBEC6EF0030E5E6E080E5F
:10E92A005D6E770EE82EFED75D2EFCD75E2EFAD7E7
:10E93A0000F0660E5E6E760E5D6EC10EE82EFED794
:10E94A005D2EFCD75E2EFAD700F0660E5E6E760E4E
:10E95A005D6EC10EE82EFED75D2EFCD75E2EFAD76D
:10E96A0000F0660E5E6E760E5D6EC10EE82EFED764
:10E97A005D2EFCD75E2EFAD700F0660E5E6E760E1E
:10E98A005D6EC10EE82EFED75D2EFCD75E2EFAD73D
:10E99A0000F0660E5E6E760E5D6EC10EE82EFED734
:10E9AA005D2EFCD75E2EFAD700F0660E5E6E760EEE
:10E9BA005D6EC10EE82EFED75D2EFCD75E2EFAD70D
:10E9CA0000F069EF74F000EF00F0C282C2B2F0EF1B
:10E9DA0074F0F2EF74F0EBEF74F09E9CC350C4CF66
:10E9EA005BF05C6A5BC05CF05B6A5B100001906F75
:10E9FA005C50916F90C001F091C002F0036A046A02
:10EA0A00000E7DEC76F001C028F002C029F003C0A8
:10EA1A002AF004C02BF03B0E2C6E330E2D6E030E23
:10EA2A002E6E3B0E2F6E05EC7AF028C072F029C0CC
:10EA3A0073F02AC074F02BC075F072C028F073C04E
:10EA4A0029F074C02AF075C02BF03D0E2C6E0A0E08
:10EA5A002D6E170E2E6E400E2F6E05EC7AF028C022
:10EA6A00B1F029C0B2F02AC0B3F02BC0B4F0000E46
:10EA7A002C6E000E2D6EC80E2E6E420E2F6EB1C079
:10EA8A0028F0B2C029F0B3C02AF0B4C02BF005ECCC
:10EA9A007AF028C051F029C052F02AC053F02BC096
:10EAAA0054F0F7EC72F051C084F052C085F0000EB9
:10EABA002C6E000E2D6EC80E2E6E420E2F6EB1C039
:10EACA0028F0B2C029F0B3C02AF0B4C02BF005EC8C
:10EADA007AF028C051F029C052F02AC053F02BC056
:10EAEA0054F0F7EC72F051C082F052C083F084C047
:10EAFA0001F085C002F0000E046E640E036E8BEC0A
:10EB0A0071F001505F6E82C008F083C009F0000EF8
:10EB1A000B6E0A0E0A6E22EC71F008C05BF009C097
:10EB2A005CF0000E046E0A0E036E82C001F083C010
:10EB3A0002F08BEC71F001C008F002C009F0000E7F
:10EB4A000B6E0A0E0A6E22EC71F00838F00B5B109D
:10EB5A0000018B6F140EE82EFED71200000E556EC0
:10EB6A00000E566E000E576EF9EC6EF04E0E78ECF3
:10EB7A006FF045EC6FF0680E516EE40EE82EFED78A
:10EB8A00512EFCD700D0F9EC6EF04F0E78EC6FF0F6
:10EB9A0000F0A5EC6FF0546E23EC6FF0A5EC6FF06B
:10EBAA00556E23EC6FF0A5EC6FF0566E23EC6FF008
:10EBBA00A5EC6FF0576E2EEC6FF045EC6FF054C079
:10EBCA0051F03F0E51165150536E526A5550521021
:10EBDA000001766F5350776F5650516E526A060E87
:10EBEA00D89051365236E82EF5EF75F0575051103D
:10EBFA00786F5250796F000E136EF80E146E7F0EF6
:10EC0A00156E460E166E76C001F077C002F0036AE2
:10EC1A00046A000E7DEC76F001C00FF002C010F01D
:10EC2A0003C011F004C012F038EC78F00FC028F0DD
:10EC3A0010C029F011C02AF012C02BF0000E2C6E61
:10EC4A00000E2D6EC80E2E6E420E2F6E05EC7AF057
:10EC5A0028C06EF029C06FF02AC070F02BC071F086
:10EC6A00000E2C6E000E2D6E250E2E6E430E2F6E8C
:10EC7A00000E136EF80E146E7F0E156E460E166E8B
:10EC8A0078C001F079C002F0036A046A000E7DECD4
:10EC9A0076F001C00FF002C010F003C011F004C0FA
:10ECAA0012F038EC78F00FC028F010C029F011C02B
:10ECBA002AF012C02BF005EC7AF028C041F029C0E6
:10ECCA0042F02AC043F02BC044F0000E456E000EFD
:10ECDA00466E200E476EC20E486E1AEC7CF041C09A
:10ECEA006AF042C06BF043C06CF044C06DF0120091
:10ECFA00096E0950D8B484EF76F086EF76F0A8EF63
:10ED0A0076F004BE8DEF76F08BEF76F0A8EF76F012
:10ED1A0001C005F002C006F003C007F004C008F005
:10ED2A00051E061E071E081E052A000E06220722B9
:10ED3A00082205C00BF006C00CF007C00DF008C091
:10ED4A000EF0B0EF76F001C00BF002C00CF003C079
:10ED5A000DF004C00EF00150021003100410D8A4E4
:10ED6A00B9EF76F0BBEF76F0C5EF76F0000E016EE4
:10ED7A00000E026E000E036E000E046E56EF77F060
:10ED8A00960E0A6ECFEF76F00A2AD8900E320D321E
:10ED9A000C320B32000E0B14056E000E0C14066EAC
:10EDAA00000E0D14076EFE0E0E14086E05500610A6
:10EDBA0007100810D8A4E4EF76F0E6EF76F0C9EF72
:10EDCA0076F0F4EF76F00A2A010E0B26000E0C22DA
:10EDDA000D220E22D8900E320D320C320B32000E5A
:10EDEA000B14056E000E0C14066E000E0D14076E41
:10EDFA00FF0E0E14086E0550061007100810D8A44E
:10EE0A0009EF77F00BEF77F0E8EF76F013EF77F092
:10EE1A000A06D8900B360C360D360E360DBE18EF94
:10EE2A0077F01AEF77F022EF77F0020E0A6020EF00
:10EE3A0077F022EF77F00DEF77F00AB027EF77F04F
:10EE4A0029EF77F02AEF77F00D9ED8900A320AC0A0
:10EE5A0005F0066A076A086A05C008F0076A066AC2
:10EE6A00056A05500B1206500C1207500D12085075
:10EE7A000E120950D8B444EF77F046EF77F04EEF10
:10EE8A0077F004BE4DEF77F04BEF77F04EEF77F067
:10EE9A000E8E0BC001F00CC002F00DC003F00EC0C4
:10EEAA0004F012000001A66F000E136E000E146E1D
:10EEBA008C0E156E420E166E000E2C6E000E2D6E06
:10EECA007F0E2E6E430E2F6E000E456E000E466E9E
:10EEDA00F00E476E410E486E98C041F099C042F05C
:10EEEA009AC043F09BC044F01AEC7CF041C028F071
:10EEFA0042C029F043C02AF044C02BF005EC7AF056
:10EF0A0028C00FF029C010F02AC011F02BC012F04F
:10EF1A0038EC78F00FC051F010C052F011C053F025
:10EF2A0012C054F0F7EC72F051500001A76F000EB6
:10EF3A00136E000E146EC80E156E420E166E000E7B
:10EF4A002C6E000E2D6E7F0E2E6E430E2F6E9CC001
:10EF5A0028F09DC029F09EC02AF09FC02BF005EC36
:10EF6A007AF028C00FF029C010F02AC011F02BC087
:10EF7A0012F038EC78F00FC051F010C052F011C006
:10EF8A0053F012C054F0F7EC72F051500001A86F20
:10EF9A00000E2C6E000E2D6E7A0E2E6E440E2F6E03
:10EFAA00000E456E000E466E300E476EC00E486E5D
:10EFBA0094C041F095C042F096C043F097C044F027
:10EFCA001AEC7CF041C028F042C029F043C02AF074
:10EFDA0044C02BF005EC7AF028C051F029C052F059
:10EFEA002AC053F02BC054F0F7EC72F051500001D4
:10EFFA00A96F0E0E86EC6FF0066E0D0E6BEC6FF0BD
:10F00A00060E066E220E6BEC6FF0A6C0A0F092C040
:10F01A00A1F093C0A2F0A9C0A3F0A7C0A4F0A8C011
:10F02A00A5F0000E0001AB6F000EAA6FA00EAA2574
:10F03A00D96E000EAB21DA6EDF50066E000E6BEC55
:10F04A006FF00001AA4BAB2BABBF35EF78F0AB5199
:10F05A0009E1060EAA5DD8A035EF78F037EF78F00F
:10F06A001BEF78F012001250800B1F6E1250122400
:10F07A00266E11AE43EF78F045EF78F046EF78F060
:10F08A0026802650D8B44CEF78F04EEF78F063EF34
:10F09A0078F02628D8A454EF78F056EF78F05EEF8F
:10F0AA0078F0000E0F6E000E106E000E116E000E3C
:10F0BA00126E118E000E126E6BEF78F0000E0F6E4C
:10F0CA00000E106E000E116E000E126E1650800B9E
:10F0DA001F1A16501624276E15AE76EF78F078EFC1
:10F0EA0078F079EF78F027802750D8B47FEF78F05E
:10F0FA0081EF78F096EF78F02728D8A487EF78F098
:10F10A0089EF78F091EF78F0000E136E000E146E0E
:10F11A00000E156E000E166E158E000E166E9EEF00
:10F12A0078F0000E136E000E146E000E156E000EAF
:10F13A00166E1350141015101610D8A4A7EF78F0F5
:10F14A00A9EF78F0C1EF78F0000E0F6E000E106E86
:10F15A00000E116E000E126E800E11127F0E121228
:10F16A001F5012120FC00FF010C010F011C011F092
:10F17A0012C012F004EF7AF02650D8A4C7EF78F044
:10F18A00C9EF78F0D3EF78F0000E0F6E000E106E14
:10F19A00000E116E000E126E04EF7AF0275026C090
:10F1AA0017F0186A175E000E185A7F0E1724206E81
:10F1BA00000E1820216E0FC01BF010C01CF011C0E9
:10F1CA001DF012C01EF0000E0F6E000E106E000E23
:10F1DA00116E000E126E000E226E000E236E000ECD
:10F1EA00246E000E256E000E276E34EF79F027503C
:10F1FA00D8B402EF79F004EF79F01BEF79F0D890E8
:10F20A001B361C361D361E36D8900F361036113670
:10F21A00123625AE13EF79F015EF79F016EF79F083
:10F22A000F80D890223623362436253613501B5C9D
:10F23A0014501C5815501D5816501E58D8A028EFA7
:10F24A0079F02AEF79F033EF79F0258C13501B5EB1
:10F25A0014501C5A15501D5A16501E5A272A190E98
:10F26A0027643AEF79F03CEF79F0FCEF78F01B5025
:10F27A001C101D101E10D8B445EF79F047EF79F035
:10F28A005FEF79F022805FEF79F0D8900F36103671
:10F29A001136123625AE54EF79F056EF79F057EF62
:10F2AA0079F00F80D8902236233624362536200668
:10F2BA00D8A0210611AE64EF79F066EF79F04AEF33
:10F2CA0079F0000E276E25AE6DEF79F06FEF79F0C9
:10F2DA0093EF79F0FF0E2214176EFF0E2314186EA7
:10F2EA00FF0E2414196E7F0E25141A6E175018106B
:10F2FA0019101A10D8B484EF79F086EF79F08AEFF2
:10F30A0079F0010E276E93EF79F00FA08FEF79F065
:10F31A0091EF79F093EF79F086EF79F02750D8B42E
:10F32A0099EF79F09BEF79F0BFEF79F0010E0F2694
:10F33A00000E10221122122212A0A6EF79F0A8EFD5
:10F34A0079F0BFEF79F00FC017F010C018F011C0B4
:10F35A0019F012C01AF01A341A3219321832173246
:10F36A0017C00FF018C010F019C011F01AC012F02F
:10F37A00204A212A21BECAEF79F0215008E120282B
:10F38A00D8A0CAEF79F0CCEF79F0D7EF79F0000E78
:10F39A00216E2068000E0F6E000E106E000E116EA8
:10F3AA00000E126E21BEE4EF79F0215006E120042E
:10F3BA00D8B0E2EF79F0E4EF79F0F2EF79F0000EED
:10F3CA00216E000E206E000E0F6E000E106E000EE3
:10F3DA00116E000E126E000E1F6E20C026F026A0BF
:10F3EA00F9EF79F0FBEF79F0FEEF79F0118EFFEF8C
:10F3FA0079F0119ED8902630126EB5EF78F012008F
:10F40A002B50800B346E2B502B243A6E2AAE10EF01
:10F41A007AF012EF7AF013EF7AF03A803A50D8B4D1
:10F42A0019EF7AF01BEF7AF02EEF7AF03A28D8A487
:10F43A0021EF7AF023EF7AF02BEF7AF0000E286EA4
:10F44A00000E296E000E2A6E000E2B6E2A8E36EFE3
:10F45A007AF0000E286E000E296E000E2A6E000E3B
:10F46A002B6E2F50800B341A2F502F24396E2EAE4C
:10F47A0041EF7AF043EF7AF044EF7AF0398039506D
:10F48A00D8B44AEF7AF04CEF7AF05FEF7AF0392885
:10F49A00D8A452EF7AF054EF7AF05CEF7AF0000ECB
:10F4AA002C6E000E2D6E000E2E6E000E2F6E2E8EFE
:10F4BA0067EF7AF0000E2C6E000E2D6E000E2E6E87
:10F4CA00000E2F6E3950D8B46DEF7AF06FEF7AF0E4
:10F4DA0077EF7AF03A50D8A475EF7AF077EF7AF0AE
:10F4EA0081EF7AF0000E286E000E296E000E2A6E49
:10F4FA00000E2B6E19EF7CF02E502802F3CF3FF04E
:10F50A00F4CF40F03F50356E366A376A386A405059
:10F51A003B6E3C6A3D6A3E6A2D502902F3CF3FF0AA
:10F52A00F4CF40F03F503526000E362237223822DB
:10F53A0040503B26000E3C223D223E222C502A02FD
:10F54A00F3CF3FF0F4CF40F03F503526000E36227D
:10F55A003722382240503B26000E3C223D223E22D2
:10F56A0037C038F036C037F035C036F0356A2C501F
:10F57A002902F3CF3FF0F4CF40F03F5035264050F8
:10F58A003622000E3722000E38222D502802F3CFE1
:10F59A003FF0F4CF40F03F50352640503622000E5F
:10F5AA003722000E382237C038F036C037F035C05F
:10F5BA0036F0356A2C502802F3CF3FF0F4CF40F0F2
:10F5CA003F50352640503622000E3722000E382290
:10F5DA002E502902F3CF3FF0F4CF40F03F503B26A4
:10F5EA0040503C22000E3D22000E3E222D502A029F
:10F5FA00F3CF3FF0F4CF40F03F503B2640503C223F
:10F60A00000E3D22000E3E222E502A02F3CF3FF07A
:10F61A00F4CF40F03F50306E4050316E326A336A58
:10F62A0032C033F031C032F030C031F0306A30507D
:10F63A003B2631503C2232503D2233503E2235C0C7
:10F64A0030F036C031F037C032F038C033F0190E1E
:10F65A0034EF7BF0D8903332323231323032E82E06
:10F66A002FEF7BF030503B2631503C2232503D2266
:10F67A0033503E2237C038F036C037F035C036F046
:10F68A00356A39503AC030F0316A3026000E3122DC
:10F69A00820E30243F6EFF0E3120406E6AEF7BF0FF
:10F6AA00D8903B363C363D363E3638AE5FEF7BF07F
:10F6BA0061EF7BF062EF7BF03B80D89035363636CF
:10F6CA00373638363F06D8A040063DAE6FEF7BF09E
:10F6DA0071EF7BF055EF7BF0000E396E38AE78EFA4
:10F6EA007BF07AEF7BF09EEF7BF0FF0E3514306EE5
:10F6FA00FF0E3614316EFF0E3714326E7F0E381439
:10F70A00336E3050311032103310D8B48FEF7BF093
:10F71A0091EF7BF095EF7BF0010E396E9EEF7BF057
:10F72A003BA09AEF7BF09CEF7BF09EEF7BF091EF92
:10F73A007BF03950D8B4A4EF7BF0A6EF7BF0CAEF88
:10F74A007BF0010E3B26000E3C223D223E223EA0CB
:10F75A00B1EF7BF0B3EF7BF0CAEF7BF03BC030F048
:10F76A003CC031F03DC032F03EC033F03334333266
:10F77A0032323132303230C03BF031C03CF032C02C
:10F78A003DF033C03EF03F4A402A40BED5EF7BF001
:10F79A00405008E13F28D8A0D5EF7BF0D7EF7BF0A7
:10F7AA00E1EF7BF0000E3B6E000E3C6E800E3D6E6C
:10F7BA007F0E3E6E0FEF7CF040BEEEEF7BF04050C6
:10F7CA0006E13F04D8B0ECEF7BF0EEEF7BF0FAEF06
:10F7DA007BF0000E3B6E000E3C6E000E3D6E000E7E
:10F7EA003E6E000E346E0FEF7CF03FC03AF0FF0E13
:10F7FA003B16FF0E3C167F0E3D16000E3E163AA033
:10F80A0009EF7CF00BEF7CF00CEF7CF03D8ED8908A
:10F81A003A303E6E34503E123BC028F03CC029F0CC
:10F82A003DC02AF03EC02BF012004450800B4D6EB2
:10F83A00445044244F6E43AE25EF7CF027EF7CF012
:10F84A0028EF7CF04F804F50D8B42EEF7CF030EF89
:10F85A007CF045EF7CF04F28D8A436EF7CF038EFE7
:10F86A007CF040EF7CF0000E416E000E426E000EFE
:10F87A00436E000E446E438E000E446E4DEF7CF0D4
:10F88A00000E416E000E426E000E436E000E446E74
:10F89A004850800B4E6E4D504E18D8B457EF7CF03E
:10F8AA0059EF7CF05AEF7CF04D8C485048244E6E4C
:10F8BA0047AE62EF7CF064EF7CF065EF7CF04E803F
:10F8CA004E50D8B46BEF7CF06DEF7CF082EF7CF099
:10F8DA004E28D8A473EF7CF075EF7CF07DEF7CF0B6
:10F8EA00000E456E000E466E000E476E000E486E04
:10F8FA00478E000E486E8AEF7CF0000E456E000EB1
:10F90A00466E000E476E000E486E4F504E5CD8B0E1
:10F91A0091EF7CF093EF7CF0BAEF7CF04DAC98EF6E
:10F92A007CF09AEF7CF09CEF7CF0800E4D1A4FC071
:10F93A0050F04EC04FF050C04EF041C050F045C09C
:10F94A0041F050C045F042C050F046C042F050C0AD
:10F95A0046F043C050F047C043F050C047F044C09F
:10F96A0050F048C044F050C048F0000E506E4F505E
:10F97A004EC049F04A6A495E000E4A5A4ABECFEF63
:10F98A007CF04A5009E11A0E495CD8A0CFEF7CF00E
:10F99A00D1EF7CF008EF7DF0415042104310441043
:10F9AA00D8A4DAEF7CF0DDEF7CF0010EDEEF7CF01C
:10F9BA00000E506E000E416E000E426E000E436E37
:10F9CA00000E446E4EC04FF011EF7DF050A0F0EFE4
:10F9DA007CF0F2EF7CF0F8EF7CF0D890503001091F
:10F9EA00506EFAEF7CF0D890503241A0FFEF7CF0D5
:10F9FA0001EF7DF002EF7DF0508E44344432433201
:10FA0A00423241324F2A4E504F5CD8A00FEF7DF060
:10FA1A0011EF7DF0EBEF7CF04DBC16EF7DF018EFA7
:10FA2A007DF058EF7DF04F50D8A41EEF7DF020EF07
:10FA3A007DF02AEF7DF0000E416E000E426E000E40
:10FA4A00436E000E446E79EF7EF0455041264650D3
:10FA5A004222475043224850442244A037EF7DF0C7
:10FA6A0039EF7DF0E5EF7DF050A03EEF7DF040EFFD
:10FA7A007DF046EF7DF0D89050300109506E48EF86
:10FA8A007DF0D890503241A04DEF7DF04FEF7DF0E0
:10FA9A0050EF7DF0508E4434443243324232413288
:10FAAA004F2AE5EF7DF04550415C46504258475099
:10FABA0043584450800A496E4850800A4958D8B081
:10FACA0069EF7DF06BEF7DF096EF7DF04150455C7C
:10FADA00496E425046584A6E435047584B6E4450FE
:10FAEA0048584C6EFF0E4924416EFF0E4A20426E62
:10FAFA00FF0E4B20436EFF0E4C20446E800E4D1AB3
:10FB0A00506C5050D8A48CEF7DF08EEF7DF09EEFB4
:10FB1A007DF0010E4126000E4222432244229EEF2E
:10FB2A007DF04550415E4650425A4750435A48502C
:10FB3A00445A4150421043104410D8A4A7EF7DF014
:10FB4A00A9EF7DF0DEEF7DF05050D8A4AFEF7DF045
:10FB5A00B1EF7DF0DEEF7DF0000E416E000E426ED9
:10FB6A00000E436E000E446E79EF7EF0D890413657
:10FB7A0042364336443650AEC5EF7DF0C7EF7DF0CE
:10FB8A00C8EF7DF0418050A0CDEF7DF0CFEF7DF042
:10FB9A00D3EF7DF0D8805036D5EF7DF0D89050362F
:10FBAA004F50D8B4DBEF7DF0DDEF7DF0DEEF7DF076
:10FBBA004F0643AEE3EF7DF0E5EF7DF0BBEF7DF05E
:10FBCA00000E4E6E50AEECEF7DF0EEEF7DF006EFDC
:10FBDA007EF050C049F07F0E4916D8B4F7EF7DF099
:10FBEA00F9EF7DF0FDEF7DF0010E4E6E06EF7EF02F
:10FBFA0041A002EF7EF004EF7EF006EF7EF0F9EF0F
:10FC0A007DF04E50D8B40CEF7EF00EEF7EF039EF57
:10FC1A007EF0010E4126000E42224322442244A0D5
:10FC2A0019EF7EF01BEF7EF039EF7EF041C049F00C
:10FC3A0042C04AF043C04BF044C04CF04C344C3202
:10FC4A004B324A32493249C041F04AC042F04BC0B5
:10FC5A0043F04CC044F04F28D8B436EF7EF038EF6A
:10FC6A007EF039EF7EF04F2A4F28D8B43FEF7EF06E
:10FC7A0041EF7EF049EF7EF04F50D8A447EF7EF077
:10FC8A0049EF7EF05BEF7EF0000E416E000E426E91
:10FC9A00000E436E000E446E4F50D8A457EF7EF00C
:10FCAA0059EF7EF05BEF7EF0000E4D6E4FA060EFD5
:10FCBA007EF062EF7EF065EF7EF0438E66EF7EF0B7
:10FCCA00439ED8904F30446E4DAE6EEF7EF070EF8B
:10FCDA007EF071EF7EF0448E41C041F042C042F0A6
:10FCEA0043C043F044C044F01200006D6F646520C5
:10FCFA003D204C6F526120776974682046534B202F
:10FD0A00726567697374657273206163636573737F
:10FD1A0000636F6E66696775726174696F6E2072CF
:10FD2A00656769737465727320636F6E74656E7448
:10FD3A003A005245475F444554454354494F4E5F44
:10FD4A005448524553484F4C44203D203078005285
:10FD5A0045475F4D41585F5041594C4F41445F4CB4
:10FD6A00454E475448203D203078004368616E6E06
:10FD7A00656C204163746976697479204465746599
:10FD8A006374696F6E005245475F505245414D4258
:10FD9A004C455F4C53425F4C4F5241203D203078D6
:10FDAA00005245475F505245414D424C455F4D53C5
:10FDBA00425F4C4F5241203D203078005245475F08
:10FDCA004649464F5F52585F424153455F4144445A
:10FDDA0052203D203078005245475F4649464F5FE2
:10FDEA0054585F424153455F41444452203D2030BC
:10FDFA0078005245475F53594D425F54494D454F2C
:10FE0A0055545F4C5342203D203078005245475F9D
:10FE1A004445544543545F4F5054494D495A45202F
:10FE2A003D20307800636F6E74696E756F7573204C
:10FE3A0072656365697665206D6F64650052454732
:10FE4A005F4952515F464C4147535F4D41534B20E6
:10FE5A003D203078006672657175656E637920732E
:10FE6A00796E746865736973205258006672657199
:10FE7A0075656E63792073796E746865736973202A
:10FE8A005458005245475F4D4F44454D5F434F4ECE
:10FE9A0046494731203D203078005245475F4D4F53
:10FEAA0044454D5F434F4E46494732203D20307806
:10FEBA00005245475F4649464F5F414444525F50AE
:10FECA005452203D2030780073696E676C65207249
:10FEDA00656365697665206D6F6465005245475FA5
:10FEEA00484F505F504552494F44203D20307800DA
:10FEFA005245475F53594E435F574F5244203D2066
:10FF0A003078005245475F50415F434F4E4649475C
:10FF1A00203D203078005245475F494E564552549D
:10FF2A005F4951203D203078005245475F49525180
:10FF3A005F464C414753203D203078003031323300
:10FF4A0034353637383941424344454600524547ED
:10FF5A005F4652465F4C5342203D2030780052455E
:10FF6A00475F4652465F4D5342203D20307800524B
:10FF7A0045475F4652465F4D4944203D2030780050
:10FF8A005245475F4F505F4D4F4445203D203078E2
:10FF9A00005245475F50415F52414D50203D20304D
:10FFAA0078007374616E646279206D6F64650052C3
:10FFBA0045475F4C4E41203D203078005245475F0F
:10FFCA004F4350203D203078006D6F6465203D20FE
:10FFDA004C6F5261006D6F6465203D2046534B00A3
:10FFEA00736C656570206D6F6465005458206D6F81
:06FFFA0064650020000018
:020000040020DA
:08000000FFFFFFFFFFFFFFFF00
:020000040030CA
:0E000000FF291E3CFFBD81FF0FC00FE00F4027
:00000001FF
