:020000040000FA
:0400000060EF70F04D
:10DD8400870ED56E200EF26E120093848A969396B7
:10DD94008A98120000004040FFFFFFFF03E70101E3
:10DDA40092809580958295869588948694881200B1
:10DDB400D39ED3508F0B6009D36ED386D384D39074
:10DDC400D39212009E96C5809EA6EBEF6EF0EDEF07
:10DDD4006EF0E6EF6EF01200016EACA2F4EF6EF09E
:10DDE400F6EF6EF0EFEF6EF001C0ADFF12009E96FD
:10DDF400C59AC5889EA601EF6FF003EF6FF0FCEFA4
:10DE04006EF012009E96C58AC5889EA60CEF6FF030
:10DE14000EEF6FF007EF6FF012008A988A961A0ED1
:10DE2400016EF80EE82EFED7012EFCD700D08A86AC
:10DE34001200AEEC6FF09E96C5849EA624EF6FF0A0
:10DE440026EF6FF01FEF6FF012000F013881389347
:10DE540038953897389B000E3B6F000E3A6F000ED2
:10DE64003C6F1200026E6F50A49E02C06FFFA4AEFE
:10DE74003EEF6FF040EF6FF039EF6FF01200076E76
:10DE84008D9007508009076E075034EC6FF00650F0
:10DE940034EC6FF08D801200026EAEEC6FF09E9643
:10DEA40002C0C9FF9EA659EF6FF05BEF6FF054EF0D
:10DEB4006FF01200056E8D9005507F0B056E0550B6
:10DEC40034EC6FF0000E6BEC6FF0046E8D80045038
:10DED4001200026E6F50A49E02C06FFFA4AE75EFD5
:10DEE4006FF077EF6FF070EF6FF06FCF03F00350C8
:10DEF4001200AEEC6FF09E96C586C7A084EF6FF05B
:10DF040086EF6FF07FEF6FF09E96C9CF02F002505C
:10DF14001200106E8D9010507F0B106E105034EC68
:10DF24006FF0000E6BEC6FF00F6E8D800F50B9EC3C
:10DF340070F012008A849394820E016EDE0EE82E35
:10DF4400FED7012EFCD79384820E016EDE0EE82EDE
:10DF5400FED7012EFCD71200C7B4B3EF6FF0B7EFB2
:10DF64006FF0016A012AB8EF6FF0016AC5501F0B08
:10DF740001100009D8A4C1EF6FF0C3EF6FF0AEEF4A
:10DF84006FF01200948694880F013A973A99C69ECE
:10DF9400C69CC68AC698C650F00B0809C66E00F027
:10DFA40000F000F0130EC86E00F000F000F0C78E11
:10DFB400C79C9E96A1961200948C948E0F013A9F52
:10DFC400000EAC6E000EAB6EAC98AC9CAB9CAB88F8
:10DFD400AB969D8A9D98AC84B8860C0EAF6E000EED
:10DFE400B06EAC8AAB8E9E9A9D8AF28C12000F01A1
:10DFF400428F4251CF0B2009426F42AD04EF70F0C3
:10E0040006EF70F0FFEF6FF0C08E380EC012C084C0
:10E01400C082C090C280830EC216C2925451F00BCB
:10E024000B09546FC19E9E9C120095900F013B9169
:10E03400210EE82EFED700F095820F013B93210EAE
:10E04400E82EFED700F0959896908D806D9E210E57
:10E05400E82EFED700F06D8C210EE82EFED700F0DE
:10E06400200E6C6EC80EE82EFED71200000E066E4F
:10E074004BEF70F006500224046E000E0320056E70
:10E0840004C0F6FF05C0F7FF0800F550EEEC6EF093
:10E09400062A06500224046E000E0320056E04C0F6
:10E0A400F6FF05C0F7FF0800F5500009D8A45DEF9E
:10E0B40070F05FEF70F03CEF70F01200980EF66EA7
:10E0C400DD0EF76E000EF86E00EEA8F010EE0CF008
:10E0D4000900F5CFEEFFE550E150FAE101EE00F062
:10E0E40011EE00F0EE6AE550E150FCE1E250FAE195
:10E0F40000EE60F0480EEE6AE806FDE100EE57F02F
:10E10400090EEE6AE806FDE1000EF86E0001A5EFC7
:10E1140077F0000E066E9EEF70F006500224046E37
:10E12400000E0320056E04C0F6FF05C0F7FF0800CB
:10E13400F550EEEC6EF0062A06500224046E000E32
:10E144000320056E04C0F6FF05C0F7FF0800F55074
:10E154000009D8A4B0EF70F0B2EF70F08FEF70F058
:10E164000D0EEEEC6EF00A0EEEEC6EF012000E6E7A
:10E17400480E0C6EFF0E0D6E0EC001F0026A000E0A
:10E18400046E100E036E2CEC71F00CC009F00DC07F
:10E194000AF00150092602500A2209C0F6FF0AC0FB
:10E1A400F7FF0800F550EEEC6EF00EC009F00F0E0C
:10E1B400091609500C240A6E000E0D200B6E0AC0BD
:10E1C400F6FF0BC0F7FF0800F550EEEC6EF00D0EF5
:10E1D400EEEC6EF00A0EEEEC6EF0120013C001F0DD
:10E1E40014C002F0DEEC6FF0C7EC6EF017EC70F0C8
:10E1F4009CEC6FF00FEC6FF0C10E026EFD0E036E1F
:10E204008BEC70F0000E066E010E41EC6FF0800E88
:10E21400066E010E41EC6FF0810E066E010E41ECAC
:10E224006FF0020E166E040E156EBA0EE82EFED7AF
:10E23400152EFCD7162EFAD700D08AEC72F0EA0E0F
:10E24400026EFE0E036E8BEC70F08EEC71F010EC2F
:10E2540074F01200000E066E04BE35EF71F033EF59
:10E2640071F03BEF71F0036C041ED8B0042A010E68
:10E27400066E02BE42EF71F040EF71F048EF71F0AC
:10E28400016C021ED8B0022A010E061A000E086E96
:10E29400000E076E03500410D8B453EF71F055EF1D
:10E2A40071F07DEF71F0010E056E5DEF71F0D890A5
:10E2B40003360436052A04AE62EF71F064EF71F0A0
:10E2C40059EF71F0D890073608360350015C0450BA
:10E2D4000258D8A070EF71F072EF71F077EF71F01F
:10E2E4000350015E0450025A0780D890043203326E
:10E2F400052E64EF71F00650D8B483EF71F085EF0A
:10E3040071F089EF71F0076C081ED8B0082A07C0B5
:10E3140001F008C002F01200000E066E000E41EC7F
:10E324006FF0D80E066E060E41EC6FF0600E066EAE
:10E33400070E41EC6FF0000E066E080E41EC6FF014
:10E344008C0E066E090E41EC6FF0190E066E0A0E65
:10E3540041EC6FF02B0E066E0B0E41EC6FF0230EAA
:10E36400066E0C0E41EC6FF0000E066E0D0E41ECC5
:10E374006FF0800E066E0E0E41EC6FF0000E066E0E
:10E384000F0E41EC6FF0000E066E110E41EC6FF0B3
:10E39400FF0E066E120E41EC6FF0210E066E1D0E7E
:10E3A40041EC6FF0C70E066E1E0E41EC6FF0FF0ECF
:10E3B400066E1F0E41EC6FF0000E066E200E41EC4F
:10E3C4006FF0080E066E210E41EC6FF0800E066EA3
:10E3D400230E41EC6FF0000E066E240E41EC6FF03C
:10E3E400C30E066E310E41EC6FF0270E066E330E2F
:10E3F40041EC6FF00A0E066E370E41EC6FF0120E10
:10E40400066E390E41EC6FF01200453446344C6E02
:10E414004C50D8A410EF72F012EF72F01CEF72F0AF
:10E42400000E436E000E446E000E456E000E466EE6
:10E4340089EF72F043C047F044C048F045C049F04A
:10E4440046C04AF0200E2CEF72F0D8904A3249327E
:10E4540048324732E82E27EF72F047504B6E458E14
:10E46400FF0E4316FF0E4416FF0E4516000E461609
:10E47400960E4C5E4CBE43EF72F041EF72F059EFD2
:10E4840072F04C50800A970FD8B04BEF72F04DEFFA
:10E4940072F04FEF72F012EF72F0D89046324532BC
:10E4A400443243324C3E4FEF72F071EF72F01F0E64
:10E4B4004C645FEF72F061EF72F069EF72F012EF8B
:10E4C40072F0D89043364436453646364C064C50A6
:10E4D400D8A46FEF72F071EF72F063EF72F04B50EB
:10E4E400D8B477EF72F079EF72F081EF72F0461ED4
:10E4F400451E441E436C000E44224522462243C05E
:10E5040043F044C044F045C045F046C046F0120014
:10E51400010E5CEC6FF0126E8C0E026EFF0E036E39
:10E5240038EC70F01250B9EC70F01250800B116E90
:10E534001150D8B4A0EF72F0A2EF72F0BDEF72F0F8
:10E544001250400B116E1150D8A4ABEF72F0ADEF26
:10E5540072F0B5EF72F0D50E026EFF0E036E8BEC07
:10E5640070F0C3EF72F0430E026EFC0E036E8BEC80
:10E5740070F0C3EF72F0E10E026EFF0E036E8BECCF
:10E5840070F01250070B116E08EF73F0EC0E026E70
:10E59400FF0E036E8BEC70F035EF73F0AE0E026E6F
:10E5A400FF0E036E8BEC70F035EF73F0520E026EBB
:10E5B400FE0E036E8BEC70F035EF73F0F70E026E07
:10E5C400FF0E036E8BEC70F035EF73F03B0E026EB2
:10E5D400FE0E036E8BEC70F035EF73F00B0E026ED3
:10E5E400FE0E036E8BEC70F035EF73F0AE0E026E20
:10E5F400FE0E036E8BEC70F035EF73F0200E026E9E
:10E60400FD0E036E8BEC70F035EF73F011500F6E4E
:10E61400106A1050000AD8B412EF73F035EF73F09B
:10E624000F50000AD8B4C8EF72F0010AD8B4D0EF82
:10E6340072F0030AD8B4D8EF72F0010AD8B4E0EF4C
:10E6440072F0070AD8B4E8EF72F0010AD8B4F0EF18
:10E6540072F0030AD8B4F8EF72F0010AD8B400EFEC
:10E6640073F035EF73F01200096E0950D8B43DEF22
:10E6740073F03FEF73F061EF73F004BE46EF73F095
:10E6840044EF73F061EF73F001C005F002C006F0CF
:10E6940003C007F004C008F0051E061E071E081E6E
:10E6A400052A000E06220722082205C00BF006C028
:10E6B4000CF007C00DF008C00EF069EF73F001C054
:10E6C4000BF002C00CF003C00DF004C00EF00150BA
:10E6D400021003100410D8A472EF73F074EF73F0F7
:10E6E4007EEF73F0000E016E000E026E000E036EDC
:10E6F400000E046E0FEF74F0960E0A6E88EF73F03E
:10E704000A2AD8900E320D320C320B32000E0B1442
:10E71400056E000E0C14066E000E0D14076EFE0E30
:10E724000E14086E0550061007100810D8A49DEFAB
:10E7340073F09FEF73F082EF73F0ADEF73F00A2A7A
:10E74400010E0B26000E0C220D220E22D8900E3242
:10E754000D320C320B32000E0B14056E000E0C142D
:10E76400066E000E0D14076EFF0E0E14086E055093
:10E77400061007100810D8A4C2EF73F0C4EF73F0AA
:10E78400A1EF73F0CCEF73F00A06D8900B360C3679
:10E794000D360E360DBED1EF73F0D3EF73F0DBEF11
:10E7A40073F0020E0A60D9EF73F0DBEF73F0C6EF7B
:10E7B40073F00AB0E0EF73F0E2EF73F0E3EF73F09D
:10E7C4000D9ED8900A320AC005F0066A076A086AE4
:10E7D40005C008F0076A066A056A05500B12065060
:10E7E4000C1207500D1208500E120950D8B4FDEF48
:10E7F40073F0FFEF73F007EF74F004BE06EF74F0EC
:10E8040004EF74F007EF74F00E8E0BC001F00CC02F
:10E8140002F00DC003F00EC004F01200FB0E026EF5
:10E82400FE0E036E8BEC70F0690E026EFC0E036E2E
:10E834008BEC70F06A0E026EFF0E036E38EC70F013
:10E84400060E8BEC6FF07B0E026EFF0E036E38EC3F
:10E8540070F0070E8BEC6FF0590E026EFF0E036E14
:10E8640038EC70F0080E8BEC6FF0100E026EFF0E99
:10E87400036E38EC70F0090E8BEC6FF09D0E026E97
:10E88400FF0E036E38EC70F00A0E8BEC6FF0C80EBE
:10E89400026EFF0E036E38EC70F00B0E8BEC6FF013
:10E8A400BB0E026EFF0E036E38EC70F00C0E8BEC98
:10E8B4006FF0970E026EFE0E036E38EC70F00D0EC4
:10E8C4008BEC6FF08C0E026EFD0E036E38EC70F064
:10E8D4000E0E8BEC6FF0710E026EFD0E036E38ECB3
:10E8E40070F00F0E8BEC6FF0230E026EFE0E036EB3
:10E8F40038EC70F0110E8BEC6FF0980E026EFC0E7B
:10E90400036E38EC70F0120E8BEC6FF0690E026E31
:10E91400FE0E036E38EC70F01D0E8BEC6FF0800E63
:10E92400026EFE0E036E38EC70F01E0E8BEC6FF070
:10E93400A70E026EFD0E036E38EC70F01F0E8BEC0A
:10E944006FF0560E026EFD0E036E38EC70F0200E62
:10E954008BEC6FF03B0E026EFD0E036E38EC70F024
:10E96400210E8BEC6FF0040E026EFD0E036E38EC7C
:10E9740070F0230E8BEC6FF0C20E026EFE0E036E6F
:10E9840038EC70F0240E8BEC6FF0DA0E026EFD0E94
:10E99400036E38EC70F0310E8BEC6FF0230E026EC8
:10E9A400FF0E036E38EC70F0330E8BEC6FF0CB0E71
:10E9B400026EFC0E036E38EC70F0370E8BEC6FF0C9
:10E9C400FD0E026EFE0E036E38EC70F0390E8BEC09
:10E9D4006FF01200E4EC6EF04E0E4EEC6FF01BEC98
:10E9E4006FF0680E436EE40EE82EFED7432EFCD77C
:10E9F40000D0E4EC6EF04F0E4EEC6FF000F07BECC8
:10EA04006FF05C6EF9EC6EF07BEC6FF05B6EF9EC22
:10EA14006EF07BEC6FF05A6EF9EC6EF07BEC6FF0FD
:10EA2400596E04EC6FF01BEC6FF05CC043F03F0ECA
:10EA340043164350456E446A5B5044100001906F86
:10EA44004550916F5A50436E446A060ED89043362F
:10EA54004436E82E28EF75F059504310926F445015
:10EA6400936F90C001F091C002F0036A046A000E33
:10EA740036EC73F001C088F002C089F003C08AF05C
:10EA840004C08BF088C02AF089C02BF08AC02CF017
:10EA94008BC02DF0000E2E6EF80E2F6E7F0E306E92
:10EAA400460E316ED8EC75F02AC084F02BC085F088
:10EAB4002CC086F02DC087F084C011F085C012F000
:10EAC40086C013F087C014F0000E156E000E166E8B
:10EAD400C80E176E420E186EACEC79F011C080F0BF
:10EAE40012C081F013C082F014C083F092C001F010
:10EAF40093C002F0036A046A000E36EC73F001C09E
:10EB04007CF002C07DF003C07EF004C07FF07CC0C6
:10EB14002AF07DC02BF07EC02CF07FC02DF0000EBB
:10EB24002E6EF80E2F6E7F0E306E460E316ED8ECC0
:10EB340075F02AC078F02BC079F02CC07AF02DC083
:10EB44007BF078C011F079C012F07AC013F07BC06A
:10EB540014F0000E156E000E166E250E176E430E81
:10EB6400186EACEC79F011C074F012C075F013C0DB
:10EB740076F014C077F074C001F075C002F076C06E
:10EB840003F077C004F0000E056E000E066E200E32
:10EB9400076EC20E086EC1EC7BF001C070F002C0BB
:10EBA40071F003C072F004C073F012002D50800B9A
:10EBB4003A6E2D502D24416E2CAEE3EF75F0E5EF47
:10EBC40075F0E6EF75F041804150D8B4ECEF75F084
:10EBD400EEEF75F003EF76F04128D8A4F4EF75F06A
:10EBE400F6EF75F0FEEF75F0000E2A6E000E2B6E38
:10EBF400000E2C6E000E2D6E2C8E000E2D6E0BEF63
:10EC040076F0000E2A6E000E2B6E000E2C6E000E97
:10EC14002D6E3150800B3A1A31503124426E30AE91
:10EC240016EF76F018EF76F019EF76F04280425046
:10EC3400D8B41FEF76F021EF76F036EF76F0422865
:10EC4400D8A427EF76F029EF76F031EF76F0000EB6
:10EC54002E6E000E2F6E000E306E000E316E308E52
:10EC6400000E316E3EEF76F0000E2E6E000E2F6E0B
:10EC7400000E306E000E316E2E502F1030103110F9
:10EC8400D8A447EF76F049EF76F061EF76F0000E06
:10EC94002A6E000E2B6E000E2C6E000E2D6E800E52
:10ECA4002C127F0E2D123A502D122AC02AF02BC09E
:10ECB4002BF02CC02CF02DC02DF0A4EF77F0415098
:10ECC400D8A467EF76F069EF76F073EF76F0000E74
:10ECD4002A6E000E2B6E000E2C6E000E2D6EA4EF0D
:10ECE40077F0425041C032F0336A325E000E335A3C
:10ECF4007F0E32243B6E000E33203C6E2AC036F069
:10ED04002BC037F02CC038F02DC039F0000E2A6E1D
:10ED1400000E2B6E000E2C6E000E2D6E000E3D6E3E
:10ED2400000E3E6E000E3F6E000E406E000E426EF0
:10ED3400D4EF76F04250D8B4A2EF76F0A4EF76F098
:10ED4400BBEF76F0D8903636373638363936D89029
:10ED54002A362B362C362D3640AEB3EF76F0B5EF8F
:10ED640076F0B6EF76F02A80D8903D363E363F36C0
:10ED740040362E50365C2F5037583050385831506A
:10ED84003958D8A0C8EF76F0CAEF76F0D3EF76F012
:10ED9400408C2E50365E2F50375A3050385A3150EE
:10EDA400395A422A190E4264DAEF76F0DCEF76F033
:10EDB4009CEF76F03650371038103910D8B4E5EFA0
:10EDC40076F0E7EF76F0FFEF76F03D80FFEF76F038
:10EDD400D8902A362B362C362D3640AEF4EF76F00A
:10EDE400F6EF76F0F7EF76F02A80D8903D363E368F
:10EDF4003F3640363B06D8A03C062CAE04EF77F0F5
:10EE040006EF77F0EAEF76F0000E426E40AE0DEFBB
:10EE140077F00FEF77F033EF77F0FF0E3D14326E9B
:10EE2400FF0E3E14336EFF0E3F14346E7F0E4014FB
:10EE3400356E3250331034103510D8B424EF77F0D7
:10EE440026EF77F02AEF77F0010E426E33EF77F07A
:10EE54002AA02FEF77F031EF77F033EF77F026EF3A
:10EE640077F04250D8B439EF77F03BEF77F05FEFAB
:10EE740077F0010E2A26000E2B222C222D222DA003
:10EE840046EF77F048EF77F05FEF77F02AC032F083
:10EE94002BC033F02CC034F02DC035F0353435326E
:10EEA40034323332323232C02AF033C02BF034C021
:10EEB4002CF035C02DF03B4A3C2A3CBE6AEF77F07B
:10EEC4003C5008E13B28D8A06AEF77F06CEF77F06C
:10EED40077EF77F0000E3C6E3B68000E2A6E000E52
:10EEE4002B6E000E2C6E000E2D6E3CBE84EF77F060
:10EEF4003C5006E13B04D8B082EF77F084EF77F022
:10EF040092EF77F0000E3C6E000E3B6E000E2A6E00
:10EF1400000E2B6E000E2C6E000E2D6E000E3A6E3F
:10EF24003BC041F041A099EF77F09BEF77F09EEF63
:10EF340077F02C8E9FEF77F02C9ED89041302D6E79
:10EF440055EF76F01200000E5F6E000E5E6E000E3E
:10EF54000001A56F000EA46FDAEC6EF0D2EC6EF037
:10EF6400F9EC6FF027EC6FF0C2EC6EF04B0E146E00
:10EF7400000E136EF0EC70F0C4EC6FF0F28E000E25
:10EF84000001606F61696269030E636F646965699A
:10EF94000E0E5CEC6FF0066E0D0E41EC6FF0060E7B
:10EFA400066E220E41EC6FF0000E586E000E576E86
:10EFB400600E5724D96E000E5820DA6EDF50066EAC
:10EFC400000E41EC6FF0574A582A58BEF3EF77F021
:10EFD400585009E1060E575CD8A0F3EF77F0F5EF2F
:10EFE40077F0DAEF77F0030E526E980EE82EFED724
:10EFF400522EFCD7830E066E010E41EC6FF0020E0A
:10F00400536E040E526EBA0EE82EFED7522EFCD763
:10F01400532EFAD700D08AEC72F0120E5CEC6FF02B
:10F024005D6E030E536E080E526E770EE82EFED7F9
:10F03400522EFCD7532EFAD700F0FB0E026EFE0EB2
:10F04400036E8BEC70F0D60E026EFE0E036E8BEC2C
:10F0540070F0120E5CEC6FF05D6E8A0E026EFC0EA8
:10F06400036E38EC70F05D50B9EC70F0FF0E066E74
:10F07400120E41EC6FF0ECEC74F0000E2E6E000EEC
:10F084002F6E8C0E306E420E316E000E156E000E19
:10F09400166E7F0E176E430E186E000E056E000E70
:10F0A400066EF00E076E410E086E70C001F071C05E
:10F0B40002F072C003F073C004F0C1EC7BF001C035
:10F0C40011F002C012F003C013F004C014F0ACEC51
:10F0D40079F011C02AF012C02BF013C02CF014C028
:10F0E4002DF0D8EC75F02AC043F02BC044F02CC0AE
:10F0F40045F02DC046F007EC72F04350556E000EFB
:10F104002E6E000E2F6EC80E306E420E316E000E43
:10F11400156E000E166E7F0E176E430E186E80C0AD
:10F1240011F081C012F082C013F083C014F0ACEC73
:10F1340079F011C02AF012C02BF013C02CF014C0C7
:10F144002DF0D8EC75F02AC043F02BC044F02CC04D
:10F1540045F02DC046F007EC72F04350566E000E99
:10F164002E6E000E2F6E400E306E400E316E000E6D
:10F17400156E000E166E7F0E176E430E186EA8C025
:10F1840011F0A9C012F0AAC013F0ABC014F0ACEC9B
:10F1940079F011C02AF012C02BF013C02CF014C067
:10F1A4002DF0D8EC75F02AC043F02BC044F02CC0ED
:10F1B40045F02DC046F007EC72F0010E0001666FB9
:10F1C400010E676FE70E686F030E696F55C06AF032
:10F1D40056C06BF00E0E5CEC6FF0066E0D0E41EC3B
:10F1E4006FF0060E066E220E41EC6FF0000E586EA4
:10F1F400000E576E660E5724D96E000E5820DA6E34
:10F20400DF50066E000E41EC6FF0574A582A58BE84
:10F2140015EF79F0585009E1060E575CD8A015EFA8
:10F2240079F017EF79F0FCEF78F0060E526E300E9D
:10F23400E82EFED7522EFCD700D0830E066E010EA8
:10F2440041EC6FF0020E536E040E526EBA0EE82EAD
:10F25400FED7522EFCD7532EFAD700D08AEC72F088
:10F26400120E5CEC6FF05D6E030E536E080E526E60
:10F27400770EE82EFED7522EFCD7532EFAD700F085
:10F28400FB0E026EFE0E036E8BEC70F0D60E026E59
:10F29400FE0E036E8BEC70F0120E5CEC6FF05D6E84
:10F2A4008A0E026EFC0E036E38EC70F05D50B9EC01
:10F2B40070F0FF0E066E120E41EC6FF0660E536E88
:10F2C400760E526EC10EE82EFED7522EFCD7532E68
:10F2D400FAD700F0660E536E760E526EC10EE82E0B
:10F2E400FED7522EFCD7532EFAD700F0660E536E7B
:10F2F400760E526EC10EE82EFED7522EFCD7532E38
:10F30400FAD700F0660E536E760E526EC10EE82EDA
:10F31400FED7522EFCD7532EFAD700F0660E536E4A
:10F32400760E526EC10EE82EFED7522EFCD7532E07
:10F33400FAD700F0660E536E760E526EC10EE82EAA
:10F34400FED7522EFCD7532EFAD700F03DEF78F0BB
:10F3540000EF00F01450800B1D6E14501424236E23
:10F3640013AEB7EF79F0B9EF79F0BAEF79F0238003
:10F374002350D8B4C0EF79F0C2EF79F0D5EF79F02B
:10F384002328D8A4C8EF79F0CAEF79F0D2EF79F046
:10F39400000E116E000E126E000E136E000E146E2F
:10F3A400138EDDEF79F0000E116E000E126E000E5A
:10F3B400136E000E146E1850800B1D1A185018246A
:10F3C400226E17AEE8EF79F0EAEF79F0EBEF79F01F
:10F3D40022802250D8B4F1EF79F0F3EF79F006EF00
:10F3E4007AF02228D8A4F9EF79F0FBEF79F003EF53
:10F3F4007AF0000E156E000E166E000E176E000EDB
:10F40400186E178E0EEF7AF0000E156E000E166E43
:10F41400000E176E000E186E2250D8B414EF7AF056
:10F4240016EF7AF01EEF7AF02350D8A41CEF7AF08E
:10F434001EEF7AF028EF7AF0000E116E000E126EB5
:10F44400000E136E000E146EC0EF7BF01750110205
:10F45400F3CF28F0F4CF29F028501E6E1F6A206ADB
:10F46400216A2950246E256A266A276A16501202D8
:10F47400F3CF28F0F4CF29F028501E26000E1F22C7
:10F484002022212229502426000E2522262227224A
:10F4940015501302F3CF28F0F4CF29F028501E267C
:10F4A400000E1F222022212229502426000E25226C
:10F4B4002622272220C021F01FC020F01EC01FF0EA
:10F4C4001E6A15501202F3CF28F0F4CF29F0285009
:10F4D4001E2629501F22000E2022000E2122165023
:10F4E4001102F3CF28F0F4CF29F028501E2629501A
:10F4F4001F22000E2022000E212220C021F01FC056
:10F5040020F01EC01FF01E6A15501102F3CF28F020
:10F51400F4CF29F028501E2629501F22000E202245
:10F52400000E212217501202F3CF28F0F4CF29F055
:10F534002850242629502522000E2622000E272298
:10F5440016501302F3CF28F0F4CF29F028502426C4
:10F5540029502522000E2622000E272217501302BE
:10F56400F3CF28F0F4CF29F02850196E29501A6EE1
:10F574001B6A1C6A1BC01CF01AC01BF019C01AF0CD
:10F58400196A195024261A5025221B5026221C5071
:10F5940027221EC019F01FC01AF020C01BF021C082
:10F5A4001CF0190EDBEF7AF0D8901C321B321A32A1
:10F5B4001932E82ED6EF7AF0195024261A50252253
:10F5C4001B5026221C50272220C021F01FC020F0EF
:10F5D4001EC01FF01E6A225023C019F01A6A192691
:10F5E400000E1A22820E1924286EFF0E1A20296E8C
:10F5F40011EF7BF0D890243625362636273621AEF7
:10F6040006EF7BF008EF7BF009EF7BF02480D890C5
:10F614001E361F36203621362806D8A0290626AEE7
:10F6240016EF7BF018EF7BF0FCEF7AF0000E226E01
:10F6340021AE1FEF7BF021EF7BF045EF7BF0FF0E57
:10F644001E14196EFF0E1F141A6EFF0E20141B6E6B
:10F654007F0E21141C6E19501A101B101C10D8B4E4
:10F6640036EF7BF038EF7BF03CEF7BF0010E226E3F
:10F6740045EF7BF024A041EF7BF043EF7BF045EFB7
:10F684007BF038EF7BF02250D8B44BEF7BF04DEF9A
:10F694007BF071EF7BF0010E2426000E252226223A
:10F6A400272227A058EF7BF05AEF7BF071EF7BF015
:10F6B40024C019F025C01AF026C01BF027C01CF086
:10F6C4001C341C321B321A32193219C024F01AC0ED
:10F6D40025F01BC026F01CC027F0284A292A29BE81
:10F6E4007CEF7BF0295008E12828D8A07CEF7BF040
:10F6F4007EEF7BF088EF7BF0000E246E000E256E0B
:10F70400800E266E7F0E276EB6EF7BF029BE95EF36
:10F714007BF0295006E12804D8B093EF7BF095EFF5
:10F724007BF0A1EF7BF0000E246E000E256E000E20
:10F73400266E000E276E000E1D6EB6EF7BF028C0FD
:10F7440023F0FF0E2416FF0E25167F0E2616000E3C
:10F75400271623A0B0EF7BF0B2EF7BF0B3EF7BF082
:10F76400268ED8902330276E1D50271224C011F006
:10F7740025C012F026C013F027C014F01200045064
:10F78400800B0D6E045004240F6E03AECCEF7BF09F
:10F79400CEEF7BF0CFEF7BF00F800F50D8B4D5EFD6
:10F7A4007BF0D7EF7BF0ECEF7BF00F28D8A4DDEFF4
:10F7B4007BF0DFEF7BF0E7EF7BF0000E016E000ED5
:10F7C400026E000E036E000E046E038E000E046EB5
:10F7D400F4EF7BF0000E016E000E026E000E036E5D
:10F7E400000E046E0850800B0E6E0D500E18D8B427
:10F7F400FEEF7BF000EF7CF001EF7CF00D8C085005
:10F8040008240E6E07AE09EF7CF00BEF7CF00CEFD2
:10F814007CF00E800E50D8B412EF7CF014EF7CF024
:10F8240029EF7CF00E28D8A41AEF7CF01CEF7CF0B2
:10F8340024EF7CF0000E056E000E066E000E076EBF
:10F84400000E086E078E000E086E31EF7CF0000E7D
:10F85400056E000E066E000E076E000E086E0F5049
:10F864000E5CD8B038EF7CF03AEF7CF061EF7CF0BE
:10F874000DAC3FEF7CF041EF7CF043EF7CF0800E69
:10F884000D1A0FC010F00EC00FF010C00EF001C022
:10F8940010F005C001F010C005F002C010F006C061
:10F8A40002F010C006F003C010F007C003F010C04F
:10F8B40007F004C010F008C004F010C008F0000EF7
:10F8C400106E0F500EC009F00A6A095E000E0A5A43
:10F8D4000ABE76EF7CF00A5009E11A0E095CD8A042
:10F8E40076EF7CF078EF7CF0AFEF7CF00150021003
:10F8F40003100410D8A481EF7CF084EF7CF0010E97
:10F9040085EF7CF0000E106E000E016E000E026E8C
:10F91400000E036E000E046E0EC00FF0B8EF7CF004
:10F9240010A097EF7CF099EF7CF09FEF7CF0D890DB
:10F9340010300109106EA1EF7CF0D890103201A0B4
:10F94400A6EF7CF0A8EF7CF0A9EF7CF0108E0434D5
:10F9540004320332023201320F2A0E500F5CD8A057
:10F96400B6EF7CF0B8EF7CF092EF7CF00DBCBDEF0D
:10F974007CF0BFEF7CF0FFEF7CF00F50D8A4C5EF14
:10F984007CF0C7EF7CF0D1EF7CF0000E016E000E2E
:10F99400026E000E036E000E046E20EF7EF0055022
:10F9A400012606500222075003220850042204A014
:10F9B400DEEF7CF0E0EF7CF08CEF7DF010A0E5EF63
:10F9C4007CF0E7EF7CF0EDEF7CF0D890103001098B
:10F9D400106EEFEF7CF0D890103201A0F4EF7CF0C1
:10F9E400F6EF7CF0F7EF7CF0108E0434043203322F
:10F9F400023201320F2A8CEF7DF00550015C065073
:10FA04000258075003580450800A096E0850800AAF
:10FA14000958D8B010EF7DF012EF7DF03DEF7DF086
:10FA24000150055C096E025006580A6E03500758CF
:10FA34000B6E045008580C6EFF0E0924016EFF0E65
:10FA44000A20026EFF0E0B20036EFF0E0C20046EC4
:10FA5400800E0D1A106C1050D8A433EF7DF035EFE2
:10FA64007DF045EF7DF0010E0126000E02220322F7
:10FA7400042245EF7DF00550015E0650025A0750FE
:10FA8400035A0850045A0150021003100410D8A459
:10FA94004EEF7DF050EF7DF085EF7DF01050D8A44F
:10FAA40056EF7DF058EF7DF085EF7DF0000E016E8E
:10FAB400000E026E000E036E000E046E20EF7EF048
:10FAC400D890013602360336043610AE6CEF7DF062
:10FAD4006EEF7DF06FEF7DF0018010A074EF7DF08C
:10FAE40076EF7DF07AEF7DF0D88010367CEF7DF0F4
:10FAF400D89010360F50D8B482EF7DF084EF7DF0AB
:10FB040085EF7DF00F0603AE8AEF7DF08CEF7DF07C
:10FB140062EF7DF0000E0E6E10AE93EF7DF095EF68
:10FB24007DF0ADEF7DF010C009F07F0E0916D8B45A
:10FB34009EEF7DF0A0EF7DF0A4EF7DF0010E0E6E40
:10FB4400ADEF7DF001A0A9EF7DF0ABEF7DF0ADEF5F
:10FB54007DF0A0EF7DF00E50D8B4B3EF7DF0B5EF9B
:10FB64007DF0E0EF7DF0010E0126000E022203225B
:10FB7400042204A0C0EF7DF0C2EF7DF0E0EF7DF041
:10FB840001C009F002C00AF003C00BF004C00CF07D
:10FB94000C340C320B320A32093209C001F00AC0AB
:10FBA40002F00BC003F00CC004F00F28D8B4DDEF52
:10FBB4007DF0DFEF7DF0E0EF7DF00F2A0F28D8B461
:10FBC400E6EF7DF0E8EF7DF0F0EF7DF00F50D8A484
:10FBD400EEEF7DF0F0EF7DF002EF7EF0000E016EAF
:10FBE400000E026E000E036E000E046E0F50D8A4B9
:10FBF400FEEF7DF000EF7EF002EF7EF0000E0D6E62
:10FC04000FA007EF7EF009EF7EF00CEF7EF0038E7D
:10FC14000DEF7EF0039ED8900F30046E0DAE15EFFD
:10FC24007EF017EF7EF018EF7EF0048E01C001F035
:10FC340002C002F003C003F004C004F01200006D1F
:10FC44006F6465203D204C6F526120776974682091
:10FC540046534B20726567697374657273206163E0
:10FC64006365737300636F6E666967757261746947
:10FC74006F6E2072656769737465727320636F6E4B
:10FC840074656E743A006265666F726520636C65B4
:10FC940061723A205245475F4952515F464C414791
:10FCA40053203D20307800616674657220636C6572
:10FCB40061723A205245475F4952515F464C414771
:10FCC40053203D203078005245475F444554454316
:10FCD40054494F4E5F5448524553484F4C44203D7D
:10FCE400203078007374657020323A207365742074
:10FCF4006D6F646520746F204C6F526120545800FE
:10FD04005245475F4D41585F5041594C4F41445F04
:10FD14004C454E475448203D203078004368616E7E
:10FD24006E656C20416374697669747920446574E6
:10FD3400656374696F6E005245475F505245414D8B
:10FD4400424C455F4C53425F4C4F5241203D203062
:10FD540078005245475F505245414D424C455F4DF6
:10FD640053425F4C4F5241203D203078005245476A
:10FD74005F4649464F5F52585F424153455F414495
:10FD84004452203D203078005245475F4649464F53
:10FD94005F54585F424153455F41444452203D20E3
:10FDA4003078005245475F53594D425F54494D45A1
:10FDB4004F55545F4C5342203D2030780073657496
:10FDC400206D6F646520746F204C6F5261207374D2
:10FDD400616E646279005245475F4445544543541B
:10FDE4005F4F5054494D495A45203D2030780073A7
:10FDF40074657020333A205478446F6E6520666CC5
:10FE040061672073657400636F6E74696E756F75D6
:10FE1400732072656365697665206D6F6465005251
:10FE240045475F4952515F464C4147535F4D4153EB
:10FE34004B203D203078006672657175656E63797C
:10FE44002073796E74686573697320525800667202
:10FE5400657175656E63792073796E74686573690D
:10FE640073205458005245475F4D4F44454D5F43FE
:10FE74004F4E46494731203D203078005245475F78
:10FE84004D4F44454D5F434F4E46494732203D2038
:10FE94003078005245475F4649464F5F41444452DB
:10FEA4005F505452203D2030780073696E676C6552
:10FEB4002072656365697665206D6F6465005245DF
:10FEC400475F484F505F504552494F44203D2030D2
:10FED40078007374657020343A20636C6561722015
:10FEE400666C61677300696E697469616C697A65CF
:10FEF400206D6F64756C6520005245475F53594E01
:10FF0400435F574F5244203D203078005245475FAD
:10FF140050415F434F4E464947203D2030780052C0
:10FF240045475F494E564552545F4951203D203064
:10FF340078007374657020313A206C6F61642046D8
:10FF440049464F003031323334353637383941423F
:10FF540043444546005245475F4652465F4C534230
:10FF6400203D203078005245475F4652465F4D534E
:10FF740042203D203078005245475F4652465F4D4F
:10FF84004944203D203078005245475F4F505F4D33
:10FF94004F4445203D203078005245475F50415F33
:10FFA40052414D50203D203078007374616E64627C
:10FFB40079206D6F6465005245475F4C4E41203D8A
:10FFC400203078005245475F4F4350203D20307821
:10FFD400006D6F6465203D204C6F5261006D6F644D
:10FFE40065203D2046534B00736C656570206D6F32
:0CFFF4006465005458206D6F64650000C7
:020000040020DA
:08000000FFFFFFFFFFFFFFFF00
:020000040030CA
:0E000000FF291E3CFFBD81FF0FC00FE00F4027
:00000001FF
