:020000040000FA
:0400000092EF70F01B
:10DE0C00120EB5EC6FF01200870ED56E200EF26E6E
:10DE1C00120093848A9693968A981200FF0E066ECF
:10DE2C00120E9AEC6FF0120000004040FFFFFFFF53
:10DE3C0003E701019280958095829586958894865A
:10DE4C0094881200D39ED3508F0B6009D36ED38667
:10DE5C00D384D390D39212009E96C5809EA639EFA0
:10DE6C006FF03BEF6FF034EF6FF0120028EC6FF0B7
:10DE7C0020EC6FF053EC70F080EC6FF00AEC6FF06C
:10DE8C001200016EACA24DEF6FF04FEF6FF048EF48
:10DE9C006FF001C0ADFF12009E96C59AC5889EA674
:10DEAC005AEF6FF05CEF6FF055EF6FF012009E962B
:10DEBC00C58AC5889EA665EF6FF067EF6FF060EFBF
:10DECC006FF012008A988A961A0E016EF80EE82EE0
:10DEDC00FED7012EFCD700D08A86120008EC70F019
:10DEEC009E96C5849EA67DEF6FF07FEF6FF078EF66
:10DEFC006FF012000F013881389338953897389BA2
:10DF0C00000E3B6F000E3A6F000E3C6F1200026E5B
:10DF1C006F50A49E02C06FFFA4AE97EF6FF099EF05
:10DF2C006FF092EF6FF01200076E8D900750800922
:10DF3C00076E07508DEC6FF006508DEC6FF08D80F6
:10DF4C001200026E08EC70F09E9602C0C9FF9EA6ED
:10DF5C00B2EF6FF0B4EF6FF0ADEF6FF01200056E33
:10DF6C008D9005507F0B056E05508DEC6FF0000EFB
:10DF7C00C4EC6FF0046E8D8004501200026E6F5072
:10DF8C00A49E02C06FFFA4AECEEF6FF0D0EF6FF087
:10DF9C00C9EF6FF06FCF03F00350120008EC70F074
:10DFAC009E96C586C7A0DDEF6FF0DFEF6FF0D8EF60
:10DFBC006FF09E96C9CF02F0025012008A8493949F
:10DFCC00820E016EDE0EE82EFED7012EFCD7938456
:10DFDC00820E016EDE0EE82EFED7012EFCD712004B
:10DFEC00830E066E010E9AEC6FF0020E096E040E93
:10DFFC00086EBA0EE82EFED7082EFCD7092EFAD7DB
:10E00C0000D01200C7B40DEF70F011EF70F0016A80
:10E01C00012A12EF70F0016AC5501F0B01100009A4
:10E02C00D8A41BEF70F01DEF70F008EF70F0120029
:10E03C00948694880F013A973A99C69EC69CC68AD4
:10E04C00C698C650F00B0809C66E00F000F000F040
:10E05C00130EC86E00F000F000F0C78EC79C9E96A1
:10E06C00A1961200948C948E0F013A9F000EAC6E08
:10E07C00000EAB6EAC98AC9CAB9CAB88AB969D8AFF
:10E08C009D98AC84B8860C0EAF6E000EB06EAC8A48
:10E09C00AB8E9E9A9D8AF28C12000F01428F4251D8
:10E0AC00CF0B2009426F42AD5EEF70F060EF70F065
:10E0BC0059EF70F0C08E380EC012C084C082C09070
:10E0CC00C280830EC216C2925451F00B0B09546FCE
:10E0DC00C19E9E9C120095900F013B91210EE82E43
:10E0EC00FED700F095820F013B93210EE82EFED750
:10E0FC0000F0959896908D806D9E210EE82EFED79F
:10E10C0000F06D8C210EE82EFED700F0200E6C6E08
:10E11C00C80EE82EFED71200340EF66EDE0EF76E29
:10E12C00000EF86E00EEB1F010EE0CF00900F5CF19
:10E13C00EEFFE550E150FAE101EE00F011EE00F0D7
:10E14C00EE6AE550E150FCE1E250FAE100EE60F0DD
:10E15C00320EEE6AE806FDE15F6A000EF86E000111
:10E16C003AEF74F0000E066ECBEF70F006500224FE
:10E17C00046E000E0320056E04C0F6FF05C0F7FF09
:10E18C000800F55047EC6FF0062A06500224046E86
:10E19C00000E0320056E04C0F6FF05C0F7FF080053
:10E1AC00F5500009D8A4DDEF70F0DFEF70F0BCEF94
:10E1BC0070F012000FEC6FF071EC70F0E4EC6FF09B
:10E1CC0068EC6FF0000E066E010E9AEC6FF0800E8C
:10E1DC00066E010E9AEC6FF0810E066E010E9AEC33
:10E1EC006FF0020E146E040E136EBA0EE82EFED7EC
:10E1FC00132EFCD7142EFAD700D08EEC73F092ECC1
:10E20C0072F01200000E066E1BEF71F00650022425
:10E21C00046E000E0320056E04C0F6FF05C0F7FF68
:10E22C000800F55047EC6FF0062A06500224046EE5
:10E23C00000E0320056E04C0F6FF05C0F7FF0800B2
:10E24C00F5500009D8A42DEF71F02FEF71F00CEF01
:10E25C0071F00D0E47EC6FF00A0E47EC6FF01200E8
:10E26C000A500B10D8B43DEF71F03FEF71F063EF33
:10E27C0071F0010E0C6E47EF71F0D8900A360B3628
:10E28C000C2A0BAE4CEF71F04EEF71F043EF71F0C6
:10E29C000A50085C0B500958D8A057EF71F059EF91
:10E2AC0071F05DEF71F00A50085E0B50095AD8906E
:10E2BC000B320A320C2E4EEF71F008C008F009C078
:10E2CC0009F012000E6E460E0C6EFF0E0D6E0EC097
:10E2DC0001F0026A000E046E100E036E30EC72F048
:10E2EC000CC009F00DC00AF00150092602500A2298
:10E2FC0009C0F6FF0AC0F7FF0800F55047EC6FF0B5
:10E30C000EC009F00F0E091609500C240A6E000EEF
:10E31C000D200B6E0AC0F6FF0BC0F7FF0800F5507E
:10E32C0047EC6FF00D0E47EC6FF00A0E47EC6FF0F8
:10E33C001200000E066E000E056E03500410D8B4C9
:10E34C00AAEF71F0ACEF71F0D4EF71F0010E076E23
:10E35C00B4EF71F0D89003360436072A04AEB9EF47
:10E36C0071F0BBEF71F0B0EF71F0D8900536063656
:10E37C000350015C04500258D8A0C7EF71F0C9EFEC
:10E38C0071F0CEEF71F00350015E0450025A05801B
:10E39C00D89004320332072EBBEF71F005C001F0A8
:10E3AC0006C002F012000001986F000E2C6E000ED9
:10E3BC002D6E200E2E6E410E2F6E94C028F095C03F
:10E3CC0029F096C02AF097C02BF005EC7AF028C003
:10E3DC0051F029C052F02AC053F02BC054F00BEC72
:10E3EC0073F0515000019D6F0E0EB5EC6FF0066E80
:10E3FC000D0E9AEC6FF0040E066E220E9AEC6FF076
:10E40C0098C099F093C09AF092C09BF09DC09CF07C
:10E41C00000E00019F6F000E9E6F990E9E25D96E07
:10E42C00000E9F21DA6EDF50066E000E9AEC6FF034
:10E43C0000019E4B9F2B9FBF2DEF72F09F5109E166
:10E44C00060E9E5DD8A02DEF72F02FEF72F013EF39
:10E45C0072F01200000E066E04BE39EF72F037EF48
:10E46C0072F03FEF72F0036C041ED8B0042A010E58
:10E47C00066E02BE46EF72F044EF72F04CEF72F093
:10E48C00016C021ED8B0022A010E061A000E086E8C
:10E49C00000E076E03500410D8B457EF72F059EF0A
:10E4AC0072F081EF72F0010E056E61EF72F0D89090
:10E4BC0003360436052A04AE66EF72F068EF72F08C
:10E4CC005DEF72F0D890073608360350015C0450AB
:10E4DC000258D8A074EF72F076EF72F07BEF72F006
:10E4EC000350015E0450025A0780D8900432033264
:10E4FC00052E68EF72F00650D8B487EF72F089EFF2
:10E50C0072F08DEF72F0076C081ED8B0082A07C0A5
:10E51C0001F008C002F01200000E066E000E9AEC1C
:10E52C006FF0D80E066E060E9AEC6FF0600E066E4B
:10E53C00070E9AEC6FF0000E066E080E9AEC6FF058
:10E54C008C0E066E090E9AEC6FF0190E066E0A0E02
:10E55C009AEC6FF02B0E066E0B0E9AEC6FF0230EEE
:10E56C00066E0C0E9AEC6FF0000E066E0D0E9AEC09
:10E57C006FF0800E066E0E0E9AEC6FF0000E066EAB
:10E58C000F0E9AEC6FF0000E066E110E9AEC6FF0F7
:10E59C00FF0E066E120E9AEC6FF0210E066E1D0E1B
:10E5AC009AEC6FF0C70E066E1E0E9AEC6FF0FF0E13
:10E5BC00066E1F0E9AEC6FF0000E066E200E9AEC93
:10E5CC006FF0080E066E210E9AEC6FF0800E066E40
:10E5DC00230E9AEC6FF0000E066E240E9AEC6FF080
:10E5EC00C30E066E310E9AEC6FF0270E066E330ECC
:10E5FC009AEC6FF00A0E066E370E9AEC6FF0120E54
:10E60C00066E390E9AEC6FF01200533454345A6E75
:10E61C005A50D8A414EF73F016EF73F020EF73F088
:10E62C00000E516E000E526E000E536E000E546EA4
:10E63C008DEF73F051C055F052C056F053C057F0E7
:10E64C0054C058F0200E30EF73F0D8905832573237
:10E65C0056325532E82E2BEF73F05550596E538EBF
:10E66C00FF0E5116FF0E5216FF0E5316000E5416C7
:10E67C00960E5A5E5ABE47EF73F045EF73F05DEF9E
:10E68C0073F05A50800A970FD8B04FEF73F051EFD8
:10E69C0073F053EF73F016EF73F0D890543253328B
:10E6AC00523251325A3E53EF73F075EF73F01F0E26
:10E6BC005A6463EF73F065EF73F06DEF73F016EF60
:10E6CC0073F0D89051365236533654365A065A5047
:10E6DC00D8A473EF73F075EF73F067EF73F05950C4
:10E6EC00D8B47BEF73F07DEF73F085EF73F0541EAD
:10E6FC00531E521E516C000E52225322542251C0F2
:10E70C0051F052C052F053C053F054C054F01200A8
:10E71C00010EB5EC6FF0126E8A0E026EFF0E036ED8
:10E72C00B8EC70F0125068EC71F01250800B116E56
:10E73C001150D8B4A4EF73F0A6EF73F0C1EF73F0DF
:10E74C001250400B116E1150D8A4AFEF73F0B1EF13
:10E75C0073F0B9EF73F0D30E026EFF0E036E08EC7C
:10E76C0071F0C7EF73F0F50E026EFC0E036E08EC41
:10E77C0071F0C7EF73F0DF0E026EFF0E036E08EC44
:10E78C0071F01250070B116E0CEF74F0EA0E026E62
:10E79C00FF0E036E08EC71F039EF74F0AC0E026EE4
:10E7AC00FF0E036E08EC71F039EF74F0760E026E0A
:10E7BC00FE0E036E08EC71F039EF74F0F50E026E7C
:10E7CC00FF0E036E08EC71F039EF74F05F0E026E01
:10E7DC00FE0E036E08EC71F039EF74F02F0E026E22
:10E7EC00FE0E036E08EC71F039EF74F0D20E026E6F
:10E7FC00FE0E036E08EC71F039EF74F0750E026EBC
:10E80C00FD0E036E08EC71F039EF74F011500F6EC1
:10E81C00106A1050000AD8B416EF74F039EF74F087
:10E82C000F50000AD8B4CCEF73F0010AD8B4D4EF6F
:10E83C0073F0030AD8B4DCEF73F0010AD8B4E4EF38
:10E84C0073F0070AD8B4ECEF73F0010AD8B4F4EF04
:10E85C0073F0030AD8B4FCEF73F0010AD8B404EFD8
:10E86C0074F039EF74F01200000E00018F6F000E7F
:10E87C008E6F000E8D6F000E8C6F4B0E026E000EA5
:10E88C00016E38EC70F03CEC6FF0E0EC70F01EECCC
:10E89C0070F0F28EEAEC74F0FF0E0001926FFF0E36
:10E8AC00936FB1C094F0B2C095F0B3C096F0B4C001
:10E8BC0097F0000ED9EC71F0F6EC6FF006EC6FF0FF
:10E8CC0014EC6FF0B3EC75F0EAEC74F0010E00018F
:10E8DC00926FE70E936FB1C094F0B2C095F0B3C0D5
:10E8EC0096F0B4C097F06AC098F06BC099F06CC009
:10E8FC009AF06DC09BF06EC09CF06FC09DF070C024
:10E90C009EF071C09FF0010E57EC77F0F6EC6FF0B3
:10E91C0006EC6FF014EC6FF0030E5E6E080E5D6E7D
:10E92C00770EE82EFED75D2EFCD75E2EFAD700F0C0
:10E93C00660E5E6E760E5D6EC10EE82EFED75D2EF7
:10E94C00FCD75E2EFAD700F0660E5E6E760E5D6E0C
:10E95C00C10EE82EFED75D2EFCD75E2EFAD700F046
:10E96C00660E5E6E760E5D6EC10EE82EFED75D2EC7
:10E97C00FCD75E2EFAD700F0660E5E6E760E5D6EDC
:10E98C00C10EE82EFED75D2EFCD75E2EFAD700F016
:10E99C00660E5E6E760E5D6EC10EE82EFED75D2E97
:10E9AC00FCD75E2EFAD700F0660E5E6E760E5D6EAC
:10E9BC00C10EE82EFED75D2EFCD75E2EFAD700F0E6
:10E9CC0068EF74F000EF00F0C282C2B2F0EF74F0A6
:10E9DC00F2EF74F0EBEF74F09E9CC350C4CF5BF07D
:10E9EC005C6A5BC05CF05B6A5B100001906F5C5012
:10E9FC00916F90C001F091C002F0036A046A000E9E
:10EA0C007DEC76F001C028F002C029F003C02AF09A
:10EA1C0004C02BF03B0E2C6E330E2D6E030E2E6E9F
:10EA2C003B0E2F6E05EC7AF028C072F029C073F003
:10EA3C002AC074F02BC075F072C028F073C029F096
:10EA4C0074C02AF075C02BF0290E2C6E5C0E2D6E46
:10EA5C00070E2E6E400E2F6E05EC7AF028C0B1F02A
:10EA6C0029C0B2F02AC0B3F02BC0B4F0000E2C6E4B
:10EA7C00000E2D6EC80E2E6E420E2F6EB1C028F0F9
:10EA8C00B2C029F0B3C02AF0B4C02BF005EC7AF078
:10EA9C0028C051F029C052F02AC053F02BC054F0BA
:10EAAC000BEC73F051C084F052C085F0000E2C6E4C
:10EABC00000E2D6EC80E2E6E420E2F6EB1C028F0B9
:10EACC00B2C029F0B3C02AF0B4C02BF005EC7AF038
:10EADC0028C051F029C052F02AC053F02BC054F07A
:10EAEC000BEC73F051C082F052C083F084C001F083
:10EAFC0085C002F0000E046E640E036E9FEC71F084
:10EB0C0001505F6E82C008F083C009F0000E0B6EDE
:10EB1C000A0E0A6E36EC71F008C05BF009C05CF0AE
:10EB2C00000E046E0A0E036E82C001F083C002F068
:10EB3C009FEC71F001C008F002C009F0000E0B6EE2
:10EB4C000A0E0A6E36EC71F00838F00B5B100001FF
:10EB5C008B6F140EE82EFED71200000E556E000EB1
:10EB6C00566E000E576E32EC6FF04E0EA7EC6FF037
:10EB7C0074EC6FF0680E516EE40EE82EFED7512E39
:10EB8C00FCD700D032EC6FF04F0EA7EC6FF000F01A
:10EB9C00D4EC6FF0546E52EC6FF0D4EC6FF0556E09
:10EBAC0052EC6FF0D4EC6FF0566E52EC6FF0D4EC7C
:10EBBC006FF0576E5DEC6FF074EC6FF054C051F069
:10EBCC003F0E51165150536E526A5550521000015F
:10EBDC00766F5350776F5650516E526A060ED8901E
:10EBEC0051365236E82EF5EF75F057505110786FBC
:10EBFC005250796F000E136EF80E146E7F0E156E58
:10EC0C00460E166E76C001F077C002F0036A046AF5
:10EC1C00000E7DEC76F001C00FF002C010F003C0C6
:10EC2C0011F004C012F038EC78F00FC028F010C0CE
:10EC3C0029F011C02AF012C02BF0000E2C6E000E21
:10EC4C002D6EC80E2E6E420E2F6E05EC7AF028C07B
:10EC5C006EF029C06FF02AC070F02BC071F0000E5E
:10EC6C002C6E000E2D6E250E2E6E430E2F6E000E8A
:10EC7C00136EF80E146E7F0E156E460E166E78C05F
:10EC8C0001F079C002F0036A046A000E7DEC76F0A4
:10EC9C0001C00FF002C010F003C011F004C012F05C
:10ECAC0038EC78F00FC028F010C029F011C02AF011
:10ECBC0012C02BF005EC7AF028C041F029C042F0CC
:10ECCC002AC043F02BC044F0000E456E000E466E79
:10ECDC00200E476EC20E486E1AEC7CF041C06AF0F2
:10ECEC0042C06BF043C06CF044C06DF01200096E72
:10ECFC000950D8B484EF76F086EF76F0A8EF76F072
:10ED0C0004BE8DEF76F08BEF76F0A8EF76F001C0B5
:10ED1C0005F002C006F003C007F004C008F0051EA1
:10ED2C00061E071E081E052A000E062207220822B0
:10ED3C0005C00BF006C00CF007C00DF008C00EF0BB
:10ED4C00B0EF76F001C00BF002C00CF003C00DF078
:10ED5C0004C00EF00150021003100410D8A4B9EF37
:10ED6C0076F0BBEF76F0C5EF76F0000E016E000E7C
:10ED7C00026E000E036E000E046E56EF77F0960EC8
:10ED8C000A6ECFEF76F00A2AD8900E320D320C3282
:10ED9C000B32000E0B14056E000E0C14066E000EDA
:10EDAC000D14076EFE0E0E14086E0550061007109B
:10EDBC000810D8A4E4EF76F0E6EF76F0C9EF76F021
:10EDCC00F4EF76F00A2A010E0B26000E0C220D220F
:10EDDC000E22D8900E320D320C320B32000E0B1468
:10EDEC00056E000E0C14066E000E0D14076EFF0E51
:10EDFC000E14086E0550061007100810D8A409EF61
:10EE0C0077F00BEF77F0E8EF76F013EF77F00A0678
:10EE1C00D8900B360C360D360E360DBE18EF77F03B
:10EE2C001AEF77F022EF77F0020E0A6020EF77F0FE
:10EE3C0022EF77F00DEF77F00AB027EF77F029EF9C
:10EE4C0077F02AEF77F00D9ED8900A320AC005F0C1
:10EE5C00066A076A086A05C008F0076A066A056A46
:10EE6C0005500B1206500C1207500D1208500E12C2
:10EE7C000950D8B444EF77F046EF77F04EEF77F0C7
:10EE8C0004BE4DEF77F04BEF77F04EEF77F00E8E30
:10EE9C000BC001F00CC002F00DC003F00EC004F06A
:10EEAC0012000001A66F000E136E000E146E8C0E75
:10EEBC00156E420E166E000E2C6E000E2D6E7F0E11
:10EECC002E6E430E2F6E000E456E000E466EF00E2B
:10EEDC00476E410E486E98C041F099C042F09AC0FE
:10EEEC0043F09BC044F01AEC7CF041C028F042C0C7
:10EEFC0029F043C02AF044C02BF005EC7AF028C06E
:10EF0C000FF029C010F02AC011F02BC012F038EC11
:10EF1C0078F00FC051F010C052F011C053F012C075
:10EF2C0054F00BEC73F051500001A76F000E136EF0
:10EF3C00000E146EC80E156E420E166E000E2C6E60
:10EF4C00000E2D6E7F0E2E6E430E2F6E9CC028F081
:10EF5C009DC029F09EC02AF09FC02BF005EC7AF0E2
:10EF6C0028C00FF029C010F02AC011F02BC012F0ED
:10EF7C0038EC78F00FC051F010C052F011C053F0C3
:10EF8C0012C054F00BEC73F051500001A86F000E3E
:10EF9C002C6E000E2D6E7A0E2E6E440E2F6E000E01
:10EFAC00456E000E466E300E476EC00E486E94C015
:10EFBC0041F095C042F096C043F097C044F01AEC73
:10EFCC007CF041C028F042C029F043C02AF044C074
:10EFDC002BF005EC7AF028C051F029C052F02AC071
:10EFEC0053F02BC054F00BEC73F051500001A96F8F
:10EFFC000E0EB5EC6FF0066E0D0E9AEC6FF0060E61
:10F00C00066E220E9AEC6FF0A6C0A0F093C0A1F091
:10F01C0092C0A2F0A9C0A3F0A7C0A4F0A8C0A5F00C
:10F02C00000E0001AB6F000EAA6FA00EAA25D96EC0
:10F03C00000EAB21DA6EDF50066E000E9AEC6FF00C
:10F04C000001AA4BAB2BABBF35EF78F0AB5109E10C
:10F05C00060EAA5DD8A035EF78F037EF78F01BEFED
:10F06C0078F012001250800B1F6E12501224266E74
:10F07C0011AE43EF78F045EF78F046EF78F026804C
:10F08C002650D8B44CEF78F04EEF78F063EF78F070
:10F09C002628D8A454EF78F056EF78F05EEF78F08D
:10F0AC00000E0F6E000E106E000E116E000E126E22
:10F0BC00118E000E126E6BEF78F0000E0F6E000EBC
:10F0CC00106E000E116E000E126E1650800B1F1A71
:10F0DC0016501624276E15AE76EF78F078EF78F090
:10F0EC0079EF78F027802750D8B47FEF78F081EF54
:10F0FC0078F096EF78F02728D8A487EF78F089EF8E
:10F10C0078F091EF78F0000E136E000E146E000E76
:10F11C00156E000E166E158E000E166E9EEF78F0A4
:10F12C00000E136E000E146E000E156E000E166E91
:10F13C001350141015101610D8A4A7EF78F0A9EFDF
:10F14C0078F0C1EF78F0000E0F6E000E106E000E0E
:10F15C00116E000E126E800E11127F0E12121F50C5
:10F16C0012120FC00FF010C010F011C011F012C02D
:10F17C0012F004EF7AF02650D8A4C7EF78F0C9EF5C
:10F18C0078F0D3EF78F0000E0F6E000E106E000EBC
:10F19C00116E000E126E04EF7AF0275026C017F095
:10F1AC00186A175E000E185A7F0E1724206E000E78
:10F1BC001820216E0FC01BF010C01CF011C01DF0E8
:10F1CC0012C01EF0000E0F6E000E106E000E116EAF
:10F1DC00000E126E000E226E000E236E000E246EB8
:10F1EC00000E256E000E276E34EF79F02750D8B440
:10F1FC0002EF79F004EF79F01BEF79F0D8901B3621
:10F20C001C361D361E36D8900F3610361136123677
:10F21C0025AE13EF79F015EF79F016EF79F00F803A
:10F22C00D890223623362436253613501B5C1450C6
:10F23C001C5815501D5816501E58D8A028EF79F0A0
:10F24C002AEF79F033EF79F0258C13501B5E1450B4
:10F25C001C5A15501D5A16501E5A272A190E27646F
:10F26C003AEF79F03CEF79F0FCEF78F01B501C1082
:10F27C001D101E10D8B445EF79F047EF79F05FEF11
:10F28C0079F022805FEF79F0D8900F361036113676
:10F29C00123625AE54EF79F056EF79F057EF79F03E
:10F2AC000F80D89022362336243625362006D8A057
:10F2BC00210611AE64EF79F066EF79F04AEF79F040
:10F2CC00000E276E25AE6DEF79F06FEF79F093EFAE
:10F2DC0079F0FF0E2214176EFF0E2314186EFF0E1A
:10F2EC002414196E7F0E25141A6E1750181019104D
:10F2FC001A10D8B484EF79F086EF79F08AEF79F0B0
:10F30C00010E276E93EF79F00FA08FEF79F091EF4C
:10F31C0079F093EF79F086EF79F02750D8B499EF24
:10F32C0079F09BEF79F0BFEF79F0010E0F26000E0C
:10F33C0010221122122212A0A6EF79F0A8EF79F078
:10F34C00BFEF79F00FC017F010C018F011C019F012
:10F35C0012C01AF01A341A3219321832173217C076
:10F36C000FF018C010F019C011F01AC012F0204A9A
:10F37C00212A21BECAEF79F0215008E12028D8A01B
:10F38C00CAEF79F0CCEF79F0D7EF79F0000E216E5F
:10F39C002068000E0F6E000E106E000E116E000E27
:10F3AC00126E21BEE4EF79F0215006E12004D8B0B2
:10F3BC00E2EF79F0E4EF79F0F2EF79F0000E216EE4
:10F3CC00000E206E000E0F6E000E106E000E116EF1
:10F3DC00000E126E000E1F6E20C026F026A0F9EF54
:10F3EC0079F0FBEF79F0FEEF79F0118EFFEF79F009
:10F3FC00119ED8902630126EB5EF78F012002B507B
:10F40C00800B346E2B502B243A6E2AAE10EF7AF010
:10F41C0012EF7AF013EF7AF03A803A50D8B419EF31
:10F42C007AF01BEF7AF02EEF7AF03A28D8A421EF7D
:10F43C007AF023EF7AF02BEF7AF0000E286E000EA4
:10F44C00296E000E2A6E000E2B6E2A8E36EF7AF085
:10F45C00000E286E000E296E000E2A6E000E2B6E0A
:10F46C002F50800B341A2F502F24396E2EAE41EFB3
:10F47C007AF043EF7AF044EF7AF039803950D8B40F
:10F48C004AEF7AF04CEF7AF05FEF7AF03928D8A493
:10F49C0052EF7AF054EF7AF05CEF7AF0000E2C6EAB
:10F4AC00000E2D6E000E2E6E000E2F6E2E8E67EF40
:10F4BC007AF0000E2C6E000E2D6E000E2E6E000ECD
:10F4CC002F6E3950D8B46DEF7AF06FEF7AF077EF8A
:10F4DC007AF03A50D8A475EF7AF077EF7AF081EFA2
:10F4EC007AF0000E286E000E296E000E2A6E000EA9
:10F4FC002B6E19EF7CF02E502802F3CF3FF0F4CF97
:10F50C0040F03F50356E366A376A386A40503B6E71
:10F51C003C6A3D6A3E6A2D502902F3CF3FF0F4CF8E
:10F52C0040F03F503526000E36223722382240500C
:10F53C003B26000E3C223D223E222C502A02F3CFC9
:10F54C003FF0F4CF40F03F503526000E36223722E4
:10F55C00382240503B26000E3C223D223E2237C032
:10F56C0038F036C037F035C036F0356A2C502902E9
:10F57C00F3CF3FF0F4CF40F03F50352640503622C9
:10F58C00000E3722000E38222D502802F3CF3FF008
:10F59C00F4CF40F03F50352640503622000E372233
:10F5AC00000E382237C038F036C037F035C036F090
:10F5BC00356A2C502802F3CF3FF0F4CF40F03F5087
:10F5CC00352640503622000E3722000E38222E509F
:10F5DC002902F3CF3FF0F4CF40F03F503B26405090
:10F5EC003C22000E3D22000E3E222D502A02F3CF6B
:10F5FC003FF0F4CF40F03F503B2640503C22000EF1
:10F60C003D22000E3E222E502A02F3CF3FF0F4CFC3
:10F61C0040F03F50306E4050316E326A336A32C027
:10F62C0033F031C032F030C031F0306A30503B260C
:10F63C0031503C2232503D2233503E2235C030F006
:10F64C0036C031F037C032F038C033F0190E34EF19
:10F65C007BF0D8903332323231323032E82E2FEF09
:10F66C007BF030503B2631503C2232503D223350FF
:10F67C003E2237C038F036C037F035C036F0356A28
:10F68C0039503AC030F0316A3026000E3122820EE9
:10F69C0030243F6EFF0E3120406E6AEF7BF0D89025
:10F6AC003B363C363D363E3638AE5FEF7BF061EF95
:10F6BC007BF062EF7BF03B80D890353636363736B0
:10F6CC0038363F06D8A040063DAE6FEF7BF071EFA9
:10F6DC007BF055EF7BF0000E396E38AE78EF7BF097
:10F6EC007AEF7BF09EEF7BF0FF0E3514306EFF0E41
:10F6FC003614316EFF0E3714326E7F0E3814336EA3
:10F70C003050311032103310D8B48FEF7BF091EFB2
:10F71C007BF095EF7BF0010E396E9EEF7BF03BA0FA
:10F72C009AEF7BF09CEF7BF09EEF7BF091EF7BF000
:10F73C003950D8B4A4EF7BF0A6EF7BF0CAEF7BF086
:10F74C00010E3B26000E3C223D223E223EA0B1EF94
:10F75C007BF0B3EF7BF0CAEF7BF03BC030F03CC0EA
:10F76C0031F03DC032F03EC033F0333433323232FC
:10F77C003132303230C03BF031C03CF032C03DF061
:10F78C0033C03EF03F4A402A40BED5EF7BF040509C
:10F79C0008E13F28D8A0D5EF7BF0D7EF7BF0E1EF65
:10F7AC007BF0000E3B6E000E3C6E800E3D6E7F0EAD
:10F7BC003E6E0FEF7CF040BEEEEF7BF0405006E16A
:10F7CC003F04D8B0ECEF7BF0EEEF7BF0FAEF7BF080
:10F7DC00000E3B6E000E3C6E000E3D6E000E3E6E3B
:10F7EC00000E346E0FEF7CF03FC03AF0FF0E3B166C
:10F7FC00FF0E3C167F0E3D16000E3E163AA009EF8A
:10F80C007CF00BEF7CF00CEF7CF03D8ED8903A3016
:10F81C003E6E34503E123BC028F03CC029F03DC037
:10F82C002AF03EC02BF012004450800B4D6E445019
:10F83C0044244F6E43AE25EF7CF027EF7CF028EF8D
:10F84C007CF04F804F50D8B42EEF7CF030EF7CF032
:10F85C0045EF7CF04F28D8A436EF7CF038EF7CF0E5
:10F86C0040EF7CF0000E416E000E426E000E436EB7
:10F87C00000E446E438E000E446E4DEF7CF0000E75
:10F88C00416E000E426E000E436E000E446E4850E8
:10F89C00800B4E6E4D504E18D8B457EF7CF059EF8C
:10F8AC007CF05AEF7CF04D8C485048244E6E47AE9D
:10F8BC0062EF7CF064EF7CF065EF7CF04E804E5094
:10F8CC00D8B46BEF7CF06DEF7CF082EF7CF04E28BF
:10F8DC00D8A473EF7CF075EF7CF07DEF7CF0000E1C
:10F8EC00456E000E466E000E476E000E486E478E3B
:10F8FC00000E486E8AEF7CF0000E456E000E466ED0
:10F90C00000E476E000E486E4F504E5CD8B091EF13
:10F91C007CF093EF7CF0BAEF7CF04DAC98EF7CF080
:10F92C009AEF7CF09CEF7CF0800E4D1A4FC050F09B
:10F93C004EC04FF050C04EF041C050F045C041F0A9
:10F94C0050C045F042C050F046C042F050C046F0A6
:10F95C0043C050F047C043F050C047F044C050F093
:10F96C0048C044F050C048F0000E506E4F504EC08E
:10F97C0049F04A6A495E000E4A5A4ABECFEF7CF003
:10F98C004A5009E11A0E495CD8A0CFEF7CF0D1EFB8
:10F99C007CF008EF7DF04150421043104410D8A485
:10F9AC00DAEF7CF0DDEF7CF0010EDEEF7CF0000E88
:10F9BC00506E000E416E000E426E000E436E000E35
:10F9CC00446E4EC04FF011EF7DF050A0F0EF7CF084
:10F9DC00F2EF7CF0F8EF7CF0D89050300109506ECB
:10F9EC00FAEF7CF0D890503241A0FFEF7CF001EFA1
:10F9FC007DF002EF7DF0508E44344432433242327B
:10FA0C0041324F2A4E504F5CD8A00FEF7DF011EFD2
:10FA1C007DF0EBEF7CF04DBC16EF7DF018EF7DF038
:10FA2C0058EF7DF04F50D8A41EEF7DF020EF7DF005
:10FA3C002AEF7DF0000E416E000E426E000E436EFA
:10FA4C00000E446E79EF7EF045504126465042221E
:10FA5C00475043224850442244A037EF7DF039EF01
:10FA6C007DF0E5EF7DF050A03EEF7DF040EF7DF0B6
:10FA7C0046EF7DF0D89050300109506E48EF7DF084
:10FA8C00D890503241A04DEF7DF04FEF7DF050EF0C
:10FA9C007DF0508E443444324332423241324F2A4C
:10FAAC00E5EF7DF04550415C465042584750435875
:10FABC004450800A496E4850800A4958D8B069EFC2
:10FACC007DF06BEF7DF096EF7DF04150455C496E1B
:10FADC00425046584A6E435047584B6E4450485813
:10FAEC004C6EFF0E4924416EFF0E4A20426EFF0EF3
:10FAFC004B20436EFF0E4C20446E800E4D1A506C02
:10FB0C005050D8A48CEF7DF08EEF7DF09EEF7DF001
:10FB1C00010E4126000E4222432244229EEF7DF02C
:10FB2C004550415E4650425A4750435A4850445AF9
:10FB3C004150421043104410D8A4A7EF7DF0A9EF18
:10FB4C007DF0DEEF7DF05050D8A4AFEF7DF0B1EF3B
:10FB5C007DF0DEEF7DF0000E416E000E426E000E69
:10FB6C00436E000E446E79EF7EF0D89041364236EB
:10FB7C004336443650AEC5EF7DF0C7EF7DF0C8EF8D
:10FB8C007DF0418050A0CDEF7DF0CFEF7DF0D3EF35
:10FB9C007DF0D8805036D5EF7DF0D89050364F5050
:10FBAC00D8B4DBEF7DF0DDEF7DF0DEEF7DF04F06BE
:10FBBC0043AEE3EF7DF0E5EF7DF0BBEF7DF0000EA3
:10FBCC004E6E50AEECEF7DF0EEEF7DF006EF7EF07A
:10FBDC0050C049F07F0E4916D8B4F7EF7DF0F9EF1D
:10FBEC007DF0FDEF7DF0010E4E6E06EF7EF041A034
:10FBFC0002EF7EF004EF7EF006EF7EF0F9EF7DF081
:10FC0C004E50D8B40CEF7EF00EEF7EF039EF7EF054
:10FC1C00010E4126000E42224322442244A019EF39
:10FC2C007EF01BEF7EF039EF7EF041C049F042C010
:10FC3C004AF043C04BF044C04CF04C344C324B3285
:10FC4C004A32493249C041F04AC042F04BC043F0FD
:10FC5C004CC044F04F28D8B436EF7EF038EF7EF02D
:10FC6C0039EF7EF04F2A4F28D8B43FEF7EF041EFAA
:10FC7C007EF049EF7EF04F50D8A447EF7EF049EF6D
:10FC8C007EF05BEF7EF0000E416E000E426E000EB9
:10FC9C00436E000E446E4F50D8A457EF7EF059EFD0
:10FCAC007EF05BEF7EF0000E4D6E4FA060EF7EF0AD
:10FCBC0062EF7EF065EF7EF0438E66EF7EF0439E42
:10FCCC00D8904F30446E4DAE6EEF7EF070EF7EF0FC
:10FCDC0071EF7EF0448E41C041F042C042F043C00F
:10FCEC0043F044C044F01200006D6F6465203D2069
:10FCFC004C6F526120776974682046534B207265B3
:10FD0C0067697374657273206163636573730063F1
:10FD1C006F6E66696775726174696F6E2072656764
:10FD2C0069737465727320636F6E74656E743A00D8
:10FD3C005245475F444554454354494F4E5F5448E0
:10FD4C00524553484F4C44203D2030780052454793
:10FD5C005F4D41585F5041594C4F41445F4C454EAB
:10FD6C00475448203D203078004368616E6E656CC6
:10FD7C002041637469766974792044657465637491
:10FD8C00696F6E005245475F505245414D424C459C
:10FD9C005F4C53425F4C4F5241203D203078005213
:10FDAC0045475F505245414D424C455F4D53425F74
:10FDBC004C4F5241203D203078005245475F464918
:10FDCC00464F5F52585F424153455F414444522075
:10FDDC003D203078005245475F4649464F5F5458A6
:10FDEC005F424153455F41444452203D20307800EE
:10FDFC005245475F53594D425F54494D454F5554F9
:10FE0C005F4C5342203D203078005245475F4445BB
:10FE1C00544543545F4F5054494D495A45203D2059
:10FE2C00307800636F6E74696E756F7573207265D0
:10FE3C006365697665206D6F6465005245475F495F
:10FE4C0052515F464C4147535F4D41534B203D202F
:10FE5C003078006672657175656E63792073796EA2
:10FE6C0074686573697320525800667265717565A4
:10FE7C006E63792073796E74686573697320545856
:10FE8C00005245475F4D4F44454D5F434F4E4649E9
:10FE9C004731203D203078005245475F4D4F444557
:10FEAC004D5F434F4E46494732203D20307800523B
:10FEBC0045475F4649464F5F414444525F50545258
:10FECC00203D2030780073696E676C652072656325
:10FEDC0065697665206D6F6465005245475F484FD4
:10FEEC00505F504552494F44203D203078005245D8
:10FEFC00475F53594E435F574F5244203D20307853
:10FF0C00005245475F50415F434F4E464947203DA5
:10FF1C00203078005245475F494E564552545F4950
:10FF2C0051203D203078005245475F4952515F4681
:10FF3C004C414753203D203078003031323334353A
:10FF4C0036373839414243444546005245475F46AF
:10FF5C0052465F4C5342203D203078005245475F5B
:10FF6C004652465F4D5342203D2030780052454763
:10FF7C005F4652465F4D4944203D20307800524543
:10FF8C00475F4F505F4D4F4445203D203078005225
:10FF9C0045475F50415F52414D50203D2030780025
:10FFAC007374616E646279206D6F646500524547AD
:10FFBC005F4C4E41203D203078005245475F4F4307
:10FFCC0050203D203078006D6F6465203D204C6FD3
:10FFDC005261006D6F6465203D2046534B00736C7D
:10FFEC00656570206D6F6465005458206D6F646595
:04FFFC0000200000E1
:020000040020DA
:08000000FFFFFFFFFFFFFFFF00
:020000040030CA
:0E000000FF291E3CFFBD81FF0FC00FE00F4027
:00000001FF
