:020000040000FA
:04000000E4EF6EF0CB
:10DA0C00FFFF870ED56E200EF26E120093848A965D
:10DA1C0093968A98120000004040FFFF03E7010133
:10DA2C00928095809582958695889486948812002C
:10DA3C00D39ED3508F0B6009D36ED386D384D390EF
:10DA4C00D39212008A988A961A0E016EF80EE82E5E
:10DA5C00FED7012EFCD700D08A8612000F01388128
:10DA6C00389338953897389B000E3B6F000E3A6F01
:10DA7C00000E3C6F1200076E8D9007508009076EE8
:10DA8C000750BBEC6DF00650BBEC6DF08D801200B6
:10DA9C009E96C58052EF6DF09EA657EF6DF059EF34
:10DAAC006DF052EF6DF05BEF6DF01200016E5FEFF9
:10DABC006DF0ACA264EF6DF066EF6DF05FEF6DF0A2
:10DACC0068EF6DF001C0ADFF12009E96C59AC58837
:10DADC0070EF6DF09EA675EF6DF077EF6DF070EF57
:10DAEC006DF079EF6DF012009E96C58AC5887FEFB8
:10DAFC006DF09EA684EF6DF086EF6DF07FEF6DF00C
:10DB0C0088EF6DF012004FEC6EF09E96C5848FEF8F
:10DB1C006DF09EA694EF6DF096EF6DF08FEF6DF0BB
:10DB2C0098EF6DF01200106E8D9010507F0B106EF0
:10DB3C001050BBEC6DF0000EF1EC6DF00F6E8D80A3
:10DB4C000F5018EC6FF01200056E8D9005507F0B86
:10DB5C00056E0550BBEC6DF0000EF1EC6DF0046E33
:10DB6C008D800450BAEF6DF01200026E6FCF01F091
:10DB7C00A49E02C06FFFC3EF6DF0A4AEC8EF6DF0B2
:10DB8C00CAEF6DF0C3EF6DF0CCEF6DF012008A842C
:10DB9C009394820E016EDE0EE82EFED7012EFCD77A
:10DBAC009384820E016EDE0EE82EFED7012EFCD77A
:10DBBC001200026E4FEC6EF09E9602C0C9FFE7EFAA
:10DBCC006DF09EA6ECEF6DF0EEEF6DF0E7EF6DF003
:10DBDC00F0EF6DF01200026E6FCF01F0A49E02C048
:10DBEC006FFFF9EF6DF0A4AEFEEF6DF000EF6EF08D
:10DBFC00F9EF6DF06FCF03F003501200000E026EC0
:10DC0C004FEC6EF09E96C5860CEF6EF0C7A011EF30
:10DC1C006EF013EF6EF00CEF6EF09E96C9CF02F023
:10DC2C00025019EF6EF01200948694880F013A9707
:10DC3C003A99C69EC69CC68AC698C650F00B08096F
:10DC4C00C66E00F000F000F0130EC86E00F000F08D
:10DC5C0000F0C78EC79C9E96A1961200948C948E51
:10DC6C000F013A9F000EAC6E000EAB6EAC98AC9CE4
:10DC7C00AB9CAB88AB969D8A9D98AC84B8860C0EF9
:10DC8C00AF6E000EB06EAC8AAB8E9E9A9D8AF28CF3
:10DC9C00120053EF6EF053EF6EF0C7B458EF6EF006
:10DCAC005CEF6EF0016A012A5DEF6EF0016AC550FF
:10DCBC001F0B01100009D8A466EF6EF068EF6EF030
:10DCCC0053EF6EF06AEF6EF0120095900F013B91DE
:10DCDC00210EE82EFED700F095820F013B93210E0A
:10DCEC00E82EFED700F0959896908D806D9E210EB3
:10DCFC00E82EFED700F06D8C210EE82EFED700F03A
:10DD0C00200E6C6EC80EE82EFED712000F01428F4B
:10DD1C004251CF0B2009426F94EF6EF042AD99EF58
:10DD2C006EF09BEF6EF094EF6EF0C08EC086C088E4
:10DD3C00C08AC084C082C090C280C294C296C2986D
:10DD4C00C29AC29CC2925451F00B0B09546FC19EE3
:10DD5C009E9C1200000E066EC9EF6EF00650010D6F
:10DD6C0002C004F003C005F0F3500426F450052261
:10DD7C0004C0F6FF05C0F7FF0800F5505CEC6DF031
:10DD8C00062AC9EF6EF00650010D02C004F003C064
:10DD9C0005F0F3500426F450052204C0F6FF05C02C
:10DDAC00F7FF0800F5500009D8A4DFEF6EF0E1EFA3
:10DDBC006EF0B4EF6EF0E3EF6EF01200220EF66E22
:10DDCC00DA0EF76E000EF86E00EEAEF010EE0AF002
:10DDDC000900F5CFEEFFE550E150FAE10C0EF66EBE
:10DDEC00DA0EF76E000EF86E0900F5CF5EF0090042
:10DDFC00F5CF5FF001EE00F011EE00F0EE6AE550A9
:10DE0C00E150FCE1E250FAE100EE60F04E0EEE6AF9
:10DE1C00E806FDE15D6A5C6A5B6A000EF86E000163
:10DE2C0013EF79F00E6E480E0C6EFF0E0D6E0EC0D9
:10DE3C0001F0026A000E046E100E036EC5EC6FF05A
:10DE4C000CC009F00DC00AF00150092602500A223C
:10DE5C0009C0F6FF0AC0F7FF0800F5505CEC6DF046
:10DE6C000EC009F00F0E091609500C240A6E000E94
:10DE7C000D200B6E0AC0F6FF0BC0F7FF0800F55023
:10DE8C005CEC6DF00D0E5CEC6DF00A0E5CEC6DF064
:10DE9C001200000E066E68EF6FF00650010D02C006
:10DEAC0004F003C005F0F3500426F450052204C01E
:10DEBC00F6FF05C0F7FF0800F5505CEC6DF0062A84
:10DECC0068EF6FF00650010D02C004F003C005F0BE
:10DEDC00F3500426F450052204C0F6FF05C0F7FFEA
:10DEEC000800F5500009D8A47EEF6FF080EF6FF0BA
:10DEFC0053EF6FF082EF6FF00D0E5CEC6DF00A0ECD
:10DF0C005CEC6DF0120013C001F014C002F034ECA4
:10DF1C006EF00CEC6DF06BEC6EF0CDEC6DF028EC63
:10DF2C006DF0C10E026EFD0E036E4FEC6FF0000E25
:10DF3C00066E010E41EC6DF0800E066E010E41EC8A
:10DF4C006DF0810E066E010E41EC6DF0020E166E38
:10DF5C00040E156EBA0EE82EFED7152EFCD7162E13
:10DF6C00FAD700D060EC71F0EA0E026EFE0E036E72
:10DF7C004FEC6FF03BEC70F012EC72F01200000EF4
:10DF8C00066E04BECEEF6FF0CCEF6FF0D6EF6FF0F5
:10DF9C00036C041ED8B0042A010E066ED6EF6FF087
:10DFAC0002BEDDEF6FF0DBEF6FF0E5EF6FF0016CB1
:10DFBC00021ED8B0022A010E061AE5EF6FF0000E11
:10DFCC00086E000E076E03500410D8B4F0EF6FF01B
:10DFDC00F2EF6FF026EF70F0010E056EFCEF6FF0B4
:10DFEC00D89003360436052AFCEF6FF004AE01EF2F
:10DFFC0070F003EF70F0F6EF6FF007EF70F007EFD3
:10E00C0070F0D890073608360350015C0450025863
:10E01C00D8A013EF70F015EF70F01CEF70F00350F8
:10E02C00015E0450025A07801CEF70F0D890043245
:10E03C000332052E07EF70F026EF70F026EF70F02C
:10E04C000650D8B42CEF70F02EEF70F034EF70F067
:10E05C00076C081ED8B0082A34EF70F007C001F026
:10E06C0008C002F03AEF70F01200000E066E000EBF
:10E07C0041EC6DF0D80E066E060E41EC6DF0600EA4
:10E08C00066E070E41EC6DF0000E066E080E41ECAC
:10E09C006DF00C0E086E08508009066E090E41ECEE
:10E0AC006DF0190E066E0A0E41EC6DF02B0E066E1D
:10E0BC000B0E41EC6DF0230E066E0C0E41EC6DF068
:10E0CC00000E066E0D0E41EC6DF0800E066E0E0EFF
:10E0DC0041EC6DF0000E066E0F0E41EC6DF0000E73
:10E0EC00066E110E41EC6DF0FF0E066E120E41EC39
:10E0FC006DF0210E066E1D0E41EC6DF0C70E066E16
:10E10C001E0E41EC6DF0FF0E066E1F0E41EC6DF015
:10E11C00000E066E200E41EC6DF0080E066E210E00
:10E12C0041EC6DF0800E066E230E41EC6DF0000E8E
:10E13C00066E240E41EC6DF0C30E066E310E41ECF2
:10E14C006DF0270E066E330E41EC6DF00A0E066E66
:10E15C00370E41EC6DF0120E066E390E41EC6DF07F
:10E16C00120049344A34506E5050D8A4C0EF70F0AD
:10E17C00C2EF70F0CEEF70F0000E476E000E486EDE
:10E18C00000E496E000E4A6E5FEF71F05FEF71F09A
:10E19C0047C04BF048C04CF049C04DF04AC04EF05F
:10E1AC00200EDEEF70F0D8904E324D324C324B32A6
:10E1BC00E82ED9EF70F04B504F6E498EFF0E47167C
:10E1CC00FF0E4816FF0E4916000E4A16960E505EAC
:10E1DC0050BEF5EF70F0F3EF70F019EF71F0505096
:10E1EC00800A970FD8B0FDEF70F0FFEF70F00DEFD5
:10E1FC0071F0000E476E000E486E000E496E000E58
:10E20C004A6E5FEF71F05FEF71F00DEF71F0D89027
:10E21C004A32493248324732503E0DEF71F043EFEB
:10E22C0071F043EF71F01F0E50641FEF71F021EF8E
:10E23C0071F037EF71F0000E476E000E486E000E55
:10E24C00496E000E4A6E5FEF71F05FEF71F037EFC1
:10E25C0071F0D8904736483649364A36500637EF73
:10E26C0071F05050D8A43DEF71F03FEF71F02FEFEB
:10E27C0071F043EF71F043EF71F04F50D8B449EFA8
:10E28C0071F04BEF71F055EF71F04A1E491E481EAC
:10E29C00476C000E482249224A2255EF71F047C0C4
:10E2AC0047F048C048F049C049F04AC04AF05FEF17
:10E2BC0071F01200010EAAEC6DF0126E8C0E026E53
:10E2CC00FF0E036EB0EC6EF0125018EC6FF01250A3
:10E2DC00800B116E1150D8B476EF71F078EF71F0AD
:10E2EC0095EF71F01250400B116E1150D8A481EFC4
:10E2FC0071F083EF71F08BEF71F0D50E026EFF0EA3
:10E30C00036E4FEC6FF09DEF71F0430E026EFC0E3E
:10E31C00036E4FEC6FF09DEF71F09DEF71F0E10E1D
:10E32C00026EFF0E036E4FEC6FF09DEF71F012500A
:10E33C00070B116EE4EF71F0EC0E026EFF0E036E24
:10E34C004FEC6FF011EF72F0AE0E026EFF0E036E1B
:10E35C004FEC6FF011EF72F0520E026EFE0E036E68
:10E36C004FEC6FF011EF72F0F70E026EFF0E036EB2
:10E37C004FEC6FF011EF72F03B0E026EFE0E036E5F
:10E38C004FEC6FF011EF72F00B0E026EFE0E036E7F
:10E39C004FEC6FF011EF72F0AE0E026EFE0E036ECC
:10E3AC004FEC6FF011EF72F0200E026EFD0E036E4B
:10E3BC004FEC6FF011EF72F011EF72F011500F6E15
:10E3CC00106A1050000AD8B4EEEF71F011EF72F031
:10E3DC000F50000AD8B4A2EF71F0010AD8B4AAEF1A
:10E3EC0071F0030AD8B4B2EF71F0010AD8B4BAEFE5
:10E3FC0071F0070AD8B4C2EF71F0010AD8B4CAEFB1
:10E40C0071F0030AD8B4D2EF71F0010AD8B4DAEF84
:10E41C0071F011EF72F01200FB0E026EFE0E036E25
:10E42C004FEC6FF0690E026EFC0E036E4FEC6FF04A
:10E43C006A0E026EFF0E036EB0EC6EF0060E99ECD7
:10E44C006DF07B0E026EFF0E036EB0EC6EF0070EDD
:10E45C0099EC6DF0590E026EFF0E036EB0EC6EF07F
:10E46C00080E99EC6DF0100E026EFF0E036EB0EC00
:10E47C006EF0090E99EC6DF09D0E026EFF0E036EA0
:10E48C00B0EC6EF00A0E99EC6DF0C80E026EFF0E39
:10E49C00036EB0EC6EF00B0E99EC6DF0BB0E026ED1
:10E4AC00FF0E036EB0EC6EF00C0E99EC6DF0970E47
:10E4BC00026EFE0E036EB0EC6EF00D0E99EC6DF06C
:10E4CC008C0E026EFD0E036EB0EC6EF00E0E99EC1F
:10E4DC006DF0710E026EFD0E036EB0EC6EF00F0E51
:10E4EC0099EC6DF0230E026EFE0E036EB0EC6EF026
:10E4FC00110E99EC6DF0980E026EFC0E036EB0ECE2
:10E50C006EF0120E99EC6DF0690E026EFE0E036E3B
:10E51C00B0EC6EF01D0E99EC6DF0800E026EFE0EDE
:10E52C00036EB0EC6EF01E0E99EC6DF0A70E026E41
:10E53C00FD0E036EB0EC6EF01F0E99EC6DF0560EE6
:10E54C00026EFD0E036EB0EC6EF0200E99EC6DF0C9
:10E55C003B0E026EFD0E036EB0EC6EF0210E99ECCC
:10E56C006DF0040E026EFD0E036EB0EC6EF0230E19
:10E57C0099EC6DF0C20E026EFE0E036EB0EC6EF0F6
:10E58C00240E99EC6DF0DA0E026EFD0E036EB0ECFB
:10E59C006EF0310E99EC6DF0230E026EFF0E036ED1
:10E5AC00B0EC6EF0330E99EC6DF0CB0E026EFC0EEF
:10E5BC00036EB0EC6EF0370E99EC6DF0FD0E026E42
:10E5CC00FE0E036EB0EC6EF0390E99EC6DF012008D
:10E5DC00096E0950D8B4F5EF72F0F7EF72F019EF3D
:10E5EC0073F004BEFEEF72F0FCEF72F019EF73F0F3
:10E5FC0001C005F002C006F003C007F004C008F02B
:10E60C00051E061E071E081E052A000E06220722DE
:10E61C00082205C00BF006C00CF007C00DF008C0B6
:10E62C000EF023EF73F001C00BF002C00CF003C02E
:10E63C000DF004C00EF023EF73F001500210031024
:10E64C000410D8A42CEF73F02EEF73F03AEF73F0A4
:10E65C00000E016E000E026E000E036E000E046EB4
:10E66C00DBEF73F0DBEF73F0960E0A6E46EF73F090
:10E67C000A2AD8900E320D320C320B3246EF73F060
:10E68C00000E0B14056E000E0C14066E000E0D140D
:10E69C00076EFE0E0E14086E0550061007100810BB
:10E6AC00D8A45BEF73F05DEF73F03EEF73F06DEF9A
:10E6BC0073F06DEF73F00A2A010E0B26000E0C227C
:10E6CC000D220E22D8900E320D320C320B32000E6F
:10E6DC000B14056E000E0C14066E000E0D14076E56
:10E6EC00FF0E0E14086E0550061007100810D8A463
:10E6FC0082EF73F084EF73F061EF73F090EF73F0CF
:10E70C0090EF73F00A06D8900B360C360D360E3699
:10E71C0090EF73F00DBE95EF73F097EF73F0A1EFE0
:10E72C0073F0020E0A609DEF73F09FEF73F088EFA9
:10E73C0073F0A1EF73F00AB0A6EF73F0A8EF73F0CB
:10E74C00ABEF73F00D9EABEF73F0D8900A320AC0AA
:10E75C0005F0066A076A086A05C008F0076A066AC7
:10E76C00056A05500B1206500C1207500D1208507A
:10E77C000E120950D8B4C5EF73F0C7EF73F0D1EF98
:10E78C0073F004BECEEF73F0CCEF73F0D1EF73F0F7
:10E79C000E8ED1EF73F00BC001F00CC002F00DC067
:10E7AC0003F00EC004F0DBEF73F012004EEC6DF0D2
:10E7BC004E0EDFEC6DF089EC6DF0680E476EE40EDA
:10E7CC00E82EFED7472EFCD700D04EEC6DF04F0E46
:10E7DC00DFEC6DF000F004EC6EF00001A26F6BEC5E
:10E7EC006DF004EC6EF00001A16F6BEC6DF004ECBD
:10E7FC006EF00001A06F6BEC6DF004EC6EF000019C
:10E80C009F6F7AEC6DF089EC6DF0A2C047F03F0E73
:10E81C0047164750496E486A0001A1514810906F45
:10E82C004950916FA051476E486A060ED8904736F2
:10E83C004836E82E1CEF74F09F514710926F4850E9
:10E84C00936F90C001F091C002F0036A046A000E4D
:10E85C00EEEC72F001C088F002C089F003C08AF0BF
:10E86C0004C08BF088C02EF089C02FF08AC030F025
:10E87C008BC031F0000E326EF80E336E7F0E346E9C
:10E88C00460E356ECCEC74F02EC084F02FC085F0A3
:10E89C0030C086F031C087F084C015F085C016F00A
:10E8AC0086C017F087C018F0000E196E000E1A6E95
:10E8BC00C80E1B6E420E1C6EDCEC76F015C080F0A0
:10E8CC0016C081F017C082F018C083F092C001F01E
:10E8DC0093C002F0036A046A000EEEEC72F001C001
:10E8EC007CF002C07DF003C07EF004C07FF07CC0E1
:10E8FC002EF07DC02FF07EC030F07FC031F0000EC6
:10E90C00326EF80E336E7F0E346E460E356ECCECD6
:10E91C0074F02EC078F02FC079F030C07AF031C08E
:10E92C007BF078C015F079C016F07AC017F07BC078
:10E93C0018F0000E196E000E1A6E250E1B6E430E8B
:10E94C001C6EDCEC76F015C074F016C075F017C0B8
:10E95C0076F018C077F074C001F075C002F076C084
:10E96C0003F077C004F0000E056E000E066E200E4C
:10E97C00076EC20E086E5FEC7BF001C070F002C037
:10E98C0071F003C072F004C073F012003150800BB0
:10E99C003E6E31503124456E30AED7EF74F0D9EF66
:10E9AC0074F0DCEF74F04580DCEF74F04550D8B4B3
:10E9BC00E2EF74F0E4EF74F0FBEF74F04528D8A4A8
:10E9CC00EAEF74F0ECEF74F0F6EF74F0000E2E6ECC
:10E9DC00000E2F6E000E306E000E316EF6EF74F0DE
:10E9EC00308E000E316E05EF75F0000E2E6E000E9F
:10E9FC002F6E000E306E000E316E05EF75F0355037
:10EA0C00800B3E1A35503524466E34AE10EF75F03F
:10EA1C0012EF75F015EF75F0468015EF75F0465056
:10EA2C00D8B41BEF75F01DEF75F034EF75F0462878
:10EA3C00D8A423EF75F025EF75F02FEF75F0000ECD
:10EA4C00326E000E336E000E346E000E356E2FEFEC
:10EA5C0075F0348E000E356E3EEF75F0000E326E92
:10EA6C00000E336E000E346E000E356E3EEF75F0F8
:10EA7C003250331034103510D8A447EF75F049EFED
:10EA8C0075F063EF75F0000E2E6E000E2F6E000EFB
:10EA9C00306E000E316E800E30127F0E31123E50F1
:10EAAC0031122EC02EF02FC02FF030C030F031C0FC
:10EABC0031F0DBEF76F0DBEF76F04550D8A469EF60
:10EACC0075F06BEF75F07FEF75F0000E2E6E000E8B
:10EADC002F6E000E306E000E316E2EC02EF02FC039
:10EAEC002FF030C030F031C031F0DBEF76F0DBEFDF
:10EAFC0076F04650366E376A361E371E364A372A3F
:10EB0C004550386E396A36503826375039227F0EC8
:10EB1C0038243F6E000E3920406E2EC03AF02FC0C4
:10EB2C003BF030C03CF031C03DF0000E2E6E000EBC
:10EB3C002F6E000E306E000E316E000E416E000E08
:10EB4C00426E000E436E000E446E000E466EEBEFEE
:10EB5C0075F04650D8B4B5EF75F0B7EF75F0D0EF4F
:10EB6C0075F0D8903A363B363C363D36D8902E363A
:10EB7C002F363036313644AEC6EF75F0C8EF75F02F
:10EB8C00C9EF75F02E80D890413642364336443664
:10EB9C00D0EF75F032503A5C33503B5834503C58FF
:10EBAC0035503D58D8A0DDEF75F0DFEF75F0EAEF8A
:10EBBC0075F0448C32503A5E33503B5A34503C5AC8
:10EBCC0035503D5AEAEF75F0462A190E4664F1EFBE
:10EBDC0075F0F3EF75F0AFEF75F0F5EF75F03A50A7
:10EBEC003B103C103D10D8B4FEEF75F000EF76F002
:10EBFC001CEF76F041801CEF76F01CEF76F0D8908D
:10EC0C002E362F363036313644AE0FEF76F011EF0C
:10EC1C0076F012EF76F02E80D8904136423643369D
:10EC2C0044363F06D8A040061CEF76F030AE21EFFC
:10EC3C0076F023EF76F005EF76F025EF76F0000E08
:10EC4C00466E44AE2CEF76F02EEF76F056EF76F063
:10EC5C00FF0E4114366EFF0E4214376EFF0E431436
:10EC6C00386E7F0E4414396E365037103810391008
:10EC7C00D8B443EF76F045EF76F049EF76F0010E1D
:10EC8C00466E56EF76F02EA04EEF76F050EF76F003
:10EC9C0056EF76F0010E466E56EF76F056EF76F0A4
:10ECAC004650D8B45CEF76F05EEF76F086EF76F0F7
:10ECBC00010E2E26000E2F223022312231A069EFB8
:10ECCC0076F06BEF76F086EF76F02EC036F02FC034
:10ECDC0037F030C038F031C039F03934393238328D
:10ECEC003732363236C02EF037C02FF038C030F005
:10ECFC0039C031F03F4A402A86EF76F086EF76F045
:10ED0C0040BE91EF76F0405008E13F28D8A091EF3B
:10ED1C0076F093EF76F0A0EF76F0000E406E3F6841
:10ED2C00000E2E6E000E2F6E000E306E000E316E29
:10ED3C00A0EF76F040BEADEF76F0405006E13F0418
:10ED4C00D8B0ABEF76F0ADEF76F0BDEF76F0000E0D
:10ED5C00406E000E3F6E000E2E6E000E2F6E000EDB
:10ED6C00306E000E316E000E3E6EBDEF76F03FC081
:10ED7C0045F045A0C4EF76F0C6EF76F0C9EF76F01B
:10ED8C00308ECCEF76F0309ECCEF76F0D8904530CC
:10ED9C00316E3E5031122EC02EF02FC02FF030C0ED
:10EDAC0030F031C031F0DBEF76F012001850800BF0
:10EDBC00216E18501824276E17AEE7EF76F0E9EFA6
:10EDCC0076F0ECEF76F02780ECEF76F02750D8B4A5
:10EDDC00F2EF76F0F4EF76F009EF77F02728D8A46D
:10EDEC00FAEF76F0FCEF76F006EF77F0000E156E8A
:10EDFC00000E166E000E176E000E186E06EF77F0F2
:10EE0C00178E13EF77F0000E156E000E166E000EB7
:10EE1C00176E000E186E13EF77F01C50800B211A32
:10EE2C001C501C24266E1BAE1EEF77F020EF77F0E3
:10EE3C0023EF77F0268023EF77F02650D8B429EF14
:10EE4C0077F02BEF77F040EF77F02628D8A431EF4E
:10EE5C0077F033EF77F03DEF77F0000E196E000E80
:10EE6C001A6E000E1B6E000E1C6E3DEF77F01B8EA3
:10EE7C0048EF77F0000E196E000E1A6E000E1B6E26
:10EE8C00000E1C6E2650D8B44EEF77F050EF77F092
:10EE9C005AEF77F02750D8A456EF77F058EF77F069
:10EEAC0066EF77F05AEF77F0000E156E000E166EC7
:10EEBC00000E176E000E186E12EF79F012EF79F04B
:10EECC001B501502F3CF2CF0F4CF2DF02C50226EEA
:10EEDC00236A246A256A2D50286E296A2A6A2B6AAD
:10EEEC001A501602F3CF2CF0F4CF2DF02C50222612
:10EEFC00000E2322242225222D502826000E292202
:10EF0C002A222B2219501702F3CF2CF0F4CF2DF01C
:10EF1C002C502226000E2322242225222D50282676
:10EF2C00000E29222A222B2224C025F023C024F0F3
:10EF3C0022C023F0226A19501602F3CF2CF0F4CF22
:10EF4C002DF02C5022262D502322000E2422000EB0
:10EF5C0025221A501502F3CF2CF0F4CF2DF02C50A3
:10EF6C0022262D502322000E2422000E252224C0FE
:10EF7C0025F023C024F022C023F0226A1950150278
:10EF8C00F3CF2CF0F4CF2DF02C5022262D50232231
:10EF9C00000E2422000E25221B501602F3CF2CF05B
:10EFAC00F4CF2DF02C5028262D502922000E2A2289
:10EFBC00000E2B221A501702F3CF2CF0F4CF2DF0A9
:10EFCC002C5028262D502922000E2A22000E2B22EE
:10EFDC001B501702F3CF2CF0F4CF2DF02C501D6EDC
:10EFEC002D501E6E1F6A206A1FC020F01EC01FF01D
:10EFFC001DC01EF01D6A1D5028261E5029221F50B0
:10F00C002A2220502B2222C01DF023C01EF024C027
:10F01C001FF025C020F0190E19EF78F0D89020328F
:10F02C001F321E321D32E82E14EF78F01D502826A8
:10F03C001E5029221F502A2220502B2224C025F09A
:10F04C0023C024F022C023F0226A265027C01DF0D2
:10F05C001E6A1D26000E1E22820E1D242C6EFF0E13
:10F06C001E202D6E51EF78F0D890283629362A368E
:10F07C002B3625AE44EF78F046EF78F047EF78F07A
:10F08C002880D89022362336243625362C06D8A054
:10F09C002D0651EF78F02AAE56EF78F058EF78F055
:10F0AC003AEF78F05AEF78F0000E266E25AE61EF4D
:10F0BC0078F063EF78F08BEF78F0FF0E22141D6E72
:10F0CC00FF0E23141E6EFF0E24141F6E7F0E2514CC
:10F0DC00206E1D501E101F102010D8B478EF78F041
:10F0EC007AEF78F07EEF78F0010E266E8BEF78F0E9
:10F0FC0028A083EF78F085EF78F08BEF78F0010E95
:10F10C00266E8BEF78F08BEF78F02650D8B491EF19
:10F11C0078F093EF78F0BBEF78F0010E2826000E14
:10F12C0029222A222B222BA09EEF78F0A0EF78F038
:10F13C00BBEF78F028C01DF029C01EF02AC01FF0CC
:10F14C002BC020F0203420321F321E321D321DC045
:10F15C0028F01EC029F01FC02AF020C02BF02C4A2A
:10F16C002D2ABBEF78F0BBEF78F02DBEC6EF78F010
:10F17C002D5008E12C28D8A0C6EF78F0C8EF78F015
:10F18C00D2EF78F0000E286E000E296E800E2A6EDB
:10F19C007F0E2B6E06EF79F02DBEDFEF78F02D5041
:10F1AC0006E12C04D8B0DDEF78F0DFEF78F0EBEF70
:10F1BC0078F0000E286E000E296E000E2A6E000EDE
:10F1CC002B6E000E216E06EF79F02CC027F0FF0E8F
:10F1DC002816FF0E29167F0E2A16000E2B1627A0B6
:10F1EC00FAEF78F0FCEF78F0FFEF78F02A8EFFEF73
:10F1FC0078F0D89027302B6E06EF79F006EF79F087
:10F20C0021502B1228C015F029C016F02AC017F077
:10F21C002BC018F012EF79F01200000E0001AB6F4A
:10F22C00000EAA6F000EA96F000EA86F1EEC6DF0F9
:10F23C0016EC6DF08CEC6EF034EC6DF007EC6DF0C0
:10F24C004B0E146E000E136E89EC6FF01AEC6EF010
:10F25C00F28E9EC060F05EC061F05FC062F0B4C020
:10F26C0063F05EC064F05FC065F00E0EAAEC6DF04A
:10F27C00066E0D0E41EC6DF0060E066E220E41EC84
:10F28C006DF0000E5C6E000E5B6E5CBE57EF79F09D
:10F29C005C5009E1060E5B5CD8A057EF79F059EF92
:10F2AC0079F05DEF79F07AEF79F07AEF79F0600E22
:10F2BC005B24D96E000E5C20DA6EDF50066E000EF9
:10F2CC0041EC6DF05B4A5C2A5CBE76EF79F05C50E9
:10F2DC0009E1060E5B5CD8A076EF79F078EF79F057
:10F2EC005DEF79F07AEF79F0030E566E980EE82EFA
:10F2FC00FED7562EFCD7830E066E010E41EC6DF038
:10F30C00020E576E040E566EBA0EE82EFED7562E0F
:10F31C00FCD7572EFAD700D060EC71F0120EAAEC85
:10F32C006DF05D6EA2EF79F0120EAAEC6DF05D6ED1
:10F33C00A2EF79F0A2EF79F0030E576E080E566E1D
:10F34C00770EE82EFED7562EFCD7572EFAD700F0A4
:10F35C00FB0E026EFE0E036E4FEC6FF0D60E026EBD
:10F36C00FE0E036E4FEC6FF0120EAAEC6DF05D6E9C
:10F37C008A0E026EFC0E036EB0EC6EF05D5018EC53
:10F38C006FF0FF0E066E120E41EC6DF0CEEF79F0C1
:10F39C00DCEC73F0000E326E000E336E8C0E346E9D
:10F3AC00420E356E000E196E000E1A6E7F0E1B6E1D
:10F3BC00430E1C6E000E056E000E066EF00E076EF0
:10F3CC00410E086E70C001F071C002F072C003F003
:10F3DC0073C004F05FEC7BF001C015F002C016F0B6
:10F3EC0003C017F004C018F0DCEC76F015C02EF05A
:10F3FC0016C02FF017C030F018C031F0CCEC74F000
:10F40C002EC047F02FC048F030C049F031C04AF050
:10F41C00B7EC70F04750596E000E326E000E336E22
:10F42C00C80E346E420E356E000E196E000E1A6E3A
:10F43C007F0E1B6E430E1C6E80C015F081C016F043
:10F44C0082C017F083C018F0DCEC76F015C02EF0FB
:10F45C0016C02FF017C030F018C031F0CCEC74F09F
:10F46C002EC047F02FC048F030C049F031C04AF0F0
:10F47C00B7EC70F047505A6E000E326E000E336EC1
:10F48C00400E346E400E356E000E196E000E1A6E64
:10F49C007F0E1B6E430E1C6EAEC015F0AFC016F087
:10F4AC00B0C017F0B1C018F0DCEC76F015C02EF03F
:10F4BC0016C02FF017C030F018C031F0CCEC74F03F
:10F4CC002EC047F02FC048F030C049F031C04AF090
:10F4DC00B7EC70F04750586E010E0001666FB7C064
:10F4EC0067F0B5C068F0030E696F59C06AF05AC076
:10F4FC006BF00E0EAAEC6DF0066E0D0E41EC6DF07D
:10F50C00060E066E220E41EC6DF0000E5C6E000EC7
:10F51C005B6E5CBE9BEF7AF05C5009E1060E5B5CA7
:10F52C00D8A09BEF7AF09DEF7AF0A1EF7AF0BEEFC6
:10F53C007AF0BEEF7AF0660E5B24D96E000E5C207A
:10F54C00DA6EDF50066E000E41EC6DF05B4A5C2A01
:10F55C005CBEBAEF7AF05C5009E1060E5B5CD8A099
:10F56C00BAEF7AF0BCEF7AF0A1EF7AF0BEEF7AF056
:10F57C00060E566E300EE82EFED7562EFCD700D057
:10F58C00830E066E010E41EC6DF0020E576E040EEA
:10F59C00566EBA0EE82EFED7562EFCD7572EFAD73B
:10F5AC0000D060EC71F0120EAAEC6DF05D6EE7EF1E
:10F5BC007AF0120EAAEC6DF05D6EE7EF7AF0E7EFE1
:10F5CC007AF0030E576E080E566E770EE82EFED7A5
:10F5DC00562EFCD7572EFAD700F0FB0E026EFE0EFD
:10F5EC00036E4FEC6FF0D60E026EFE0E036E4FECF8
:10F5FC006FF0120EAAEC6DF05D6E8A0E026EFC0EB0
:10F60C00036EB0EC6EF05D5018EC6FF0FF0E066EF2
:10F61C00120E41EC6DF0660E576E760E566EC10EE4
:10F62C00E82EFED7562EFCD7572EFAD700F0660ED2
:10F63C00576E760E566EC10EE82EFED7562EFCD7A0
:10F64C00572EFAD700F0660E576E760E566EC10E18
:10F65C00E82EFED7562EFCD7572EFAD700F0660EA2
:10F66C00576E760E566EC10EE82EFED7562EFCD770
:10F67C00572EFAD700F0660E576E760E566EC10EE8
:10F68C00E82EFED7562EFCD7572EFAD700F0660E72
:10F69C00576E760E566EC10EE82EFED7562EFCD740
:10F6AC00572EFAD700F0CEEF79F0CEEF79F000EFCD
:10F6BC0000F00450800B116E04500424136E03AE42
:10F6CC006AEF7BF06CEF7BF06FEF7BF013806FEFEA
:10F6DC007BF01350D8B475EF7BF077EF7BF08EEFA7
:10F6EC007BF01328D8A47DEF7BF07FEF7BF089EFC4
:10F6FC007BF0000E016E000E026E000E036E000E0B
:10F70C00046E89EF7BF0038E000E046E98EF7BF095
:10F71C00000E016E000E026E000E036E000E046EE3
:10F72C0098EF7BF00850800B126E11501218D8B461
:10F73C00A2EF7BF0A4EF7BF0A7EF7BF0118CA7EF8F
:10F74C007BF008500824126E07AEAFEF7BF0B1EFE0
:10F75C007BF0B4EF7BF01280B4EF7BF01250D8B496
:10F76C00BAEF7BF0BCEF7BF0D3EF7BF01228D8A480
:10F77C00C2EF7BF0C4EF7BF0CEEF7BF0000E056E9A
:10F78C00000E066E000E076E000E086ECEEF7BF0BC
:10F79C00078E000E086EDDEF7BF0000E056E000E7E
:10F7AC00066E000E076E000E086EDDEF7BF0135038
:10F7BC00125CD8B0E4EF7BF0E6EF7BF011EF7CF05D
:10F7CC0011ACEBEF7BF0EDEF7BF0F1EF7BF0800E0B
:10F7DC00111AF1EF7BF013C014F012C013F014C027
:10F7EC0012F001C014F005C001F014C005F002C005
:10F7FC0014F006C002F014C006F003C014F007C0E9
:10F80C0003F014C007F004C014F008C004F014C0D6
:10F81C0008F011EF7CF0000E146E1350096E0A6A9A
:10F82C00091E0A1E094A0A2A12500B6E0C6A09504C
:10F83C000B260A500C220CBE2DEF7CF00C5009E16B
:10F84C001A0E0B5CD8A02DEF7CF02FEF7CF06CEF38
:10F85C007CF00150021003100410D8A438EF7CF097
:10F86C003BEF7CF0010E3CEF7CF0000E146E000EB2
:10F87C00016E000E026E000E036E000E046E12C0BE
:10F88C0013F077EF7CF06CEF7CF014A050EF7CF071
:10F89C0052EF7CF058EF7CF0D89014300109146EC4
:10F8AC005CEF7CF0D89014325CEF7CF001A061EF3F
:10F8BC007CF063EF7CF066EF7CF0148E66EF7CF0EE
:10F8CC0004340432033202320132132A1250135C14
:10F8DC00D8A073EF7CF075EF7CF04BEF7CF077EFFA
:10F8EC007CF011BC7CEF7CF07EEF7CF0C6EF7CF002
:10F8FC001350D8A484EF7CF086EF7CF092EF7CF070
:10F90C00000E016E000E026E000E036E000E046EF1
:10F91C0020EF7EF020EF7EF00550012606500222EB
:10F92C00075003220850042204A09FEF7CF0A1EFA3
:10F93C007CF076EF7DF014A0A6EF7CF0A8EF7CF0C5
:10F94C00AEEF7CF0D89014300109146EB2EF7CF05D
:10F95C00D8901432B2EF7CF001A0B7EF7CF0B9EF85
:10F96C007CF0BCEF7CF0148EBCEF7CF004340432E1
:10F97C00033202320132132A76EF7DF076EF7DF0FE
:10F98C000550015C06500258075003580450800A79
:10F99C00096E0850800A0958D8B0D7EF7CF0D9EF1F
:10F9AC007CF017EF7DF001C009F002C00AF003C033
:10F9BC000BF004C00CF0091E0A1E0B1E0C1E092AAB
:10F9CC00000E0A220B220C22055009240D6E065043
:10F9DC000A200E6E07500B200F6E08500C20106E74
:10F9EC00FF0E0D24016EFF0E0E20026EFF0E0F2077
:10F9FC00036EFF0E1020046E800E111A146C14503E
:10FA0C00D8A40BEF7DF00DEF7DF01FEF7DF0010E14
:10FA1C000126000E0222032204221FEF7DF01FEFAD
:10FA2C007DF00550015E0650025A0750035A0850EB
:10FA3C00045A0150021003100410D8A428EF7DF0D2
:10FA4C002AEF7DF06BEF7DF01450D8A430EF7DF0F1
:10FA5C0032EF7DF06BEF7DF0000E016E000E026E4A
:10FA6C00000E036E000E046E20EF7EF020EF7EF091
:10FA7C006BEF7DF0D890013602360336043614AEA7
:10FA8C004AEF7DF04CEF7DF04FEF7DF001804FEFB2
:10FA9C007DF014A054EF7DF056EF7DF05AEF7DF021
:10FAAC00D88014365EEF7DF0D89014365EEF7DF082
:10FABC001350D8B464EF7DF066EF7DF06BEF7DF002
:10FACC0013066BEF7DF06BEF7DF003AE70EF7DF006
:10FADC0072EF7DF040EF7DF076EF7DF076EF7DF00C
:10FAEC00000E126E14AE7DEF7DF07FEF7DF09BEF7C
:10FAFC007DF014C009F07F0E0916D8B488EF7DF0A4
:10FB0C008AEF7DF08EEF7DF0010E126E9BEF7DF093
:10FB1C0001A093EF7DF095EF7DF09BEF7DF0010E52
:10FB2C00126E9BEF7DF09BEF7DF01250D8B4A1EFDD
:10FB3C007DF0A3EF7DF0D4EF7DF0010E0126000ED9
:10FB4C0002220322042204A0AEEF7DF0B0EF7DF080
:10FB5C00D4EF7DF001C009F002C00AF003C00BF035
:10FB6C0004C00CF00C340C320B320A32093209C0CE
:10FB7C0001F00AC002F00BC003F00CC004F0132813
:10FB8C00D8B4CBEF7DF0CDEF7DF0D4EF7DF0132A20
:10FB9C00D4EF7DF0D4EF7DF0D4EF7DF01328D8B402
:10FBAC00DAEF7DF0DCEF7DF0E6EF7DF01350D8A4BA
:10FBBC00E2EF7DF0E4EF7DF0FCEF7DF0E6EF7DF021
:10FBCC00000E016E000E026E000E036E000E046E2F
:10FBDC001350D8A4F4EF7DF0F6EF7DF0FCEF7DF040
:10FBEC00000E116EFCEF7DF0FCEF7DF013A001EF29
:10FBFC007EF003EF7EF006EF7EF0038E09EF7EF0D1
:10FC0C00039E09EF7EF0D8901330046E11AE11EF05
:10FC1C007EF013EF7EF016EF7EF0048E16EF7EF082
:10FC2C0001C001F002C002F003C003F004C004F0F4
:10FC3C0020EF7EF01200006D6F6465203D204C6F4C
:10FC4C00526120776974682046534B20726567694E
:10FC5C0073746572732061636365737300636F6E95
:10FC6C0066696775726174696F6E20726567697316
:10FC7C007465727320636F6E74656E743A0062659E
:10FC8C00666F726520636C6561723A205245475FFE
:10FC9C004952515F464C414753203D20307800611A
:10FCAC006674657220636C6561723A205245475FD9
:10FCBC004952515F464C414753203D203078005209
:10FCCC0045475F444554454354494F4E5F54485251
:10FCDC004553484F4C44203D203078007374657078
:10FCEC0020323A20736574206D6F646520746F2028
:10FCFC004C6F5261205458005245475F4D41585F3C
:10FD0C005041594C4F41445F4C454E475448203D5F
:10FD1C00203078004368616E6E656C2041637469B5
:10FD2C007669747920446574656374696F6E0052EA
:10FD3C0045475F505245414D424C455F4C53425FE5
:10FD4C004C4F5241203D203078005245475F505275
:10FD5C0045414D424C455F4D53425F4C4F52412003
:10FD6C003D203078005245475F4649464F5F525818
:10FD7C005F424153455F41444452203D203078005E
:10FD8C005245475F4649464F5F54585F4241534581
:10FD9C005F41444452203D203078005245475F5328
:10FDAC00594D425F54494D454F55545F4C53422079
:10FDBC003D20307800736574206D6F646520746F1E
:10FDCC00204C6F5261207374616E646279005245ED
:10FDDC00475F4445544543545F4F5054494D495A2D
:10FDEC0045203D203078007374657020333A2054E0
:10FDFC0078446F6E6520666C616720736574006370
:10FE0C006F6E74696E756F75732072656365697654
:10FE1C0065206D6F6465005245475F4952515F46DE
:10FE2C004C4147535F4D41534B203D203078006689
:10FE3C0072657175656E63792073796E746865731C
:10FE4C006973205258006672657175656E6379200E
:10FE5C0073796E7468657369732054580052454702
:10FE6C005F4D4F44454D5F434F4E46494731203D12
:10FE7C00203078005245475F4D4F44454D5F434F0E
:10FE8C004E46494732203D203078005245475F4668
:10FE9C0049464F5F414444525F505452203D2030FC
:10FEAC00780073696E676C65207265636569766549
:10FEBC00206D6F6465005245475F484F505F504559
:10FECC0052494F44203D20307800737465702034C3
:10FEDC003A20636C65617220666C61677300696EB1
:10FEEC00697469616C697A65206D6F64756C6520E5
:10FEFC00005245475F53594E435F574F5244203D84
:10FF0C00203078005245475F50415F434F4E464981
:10FF1C0047203D203078005245475F494E564552A8
:10FF2C00545F4951203D2030780073746570203146
:10FF3C003A206C6F6164204649464F0030313233B1
:10FF4C0034353637383941424344454600524547EB
:10FF5C005F4652465F4C5342203D2030780052455C
:10FF6C00475F4652465F4D5342203D203078005249
:10FF7C0045475F4652465F4D4944203D203078004E
:10FF8C005245475F4F505F4D4F4445203D203078E0
:10FF9C00005245475F50415F52414D50203D20304B
:10FFAC0078007374616E646279206D6F64650052C1
:10FFBC0045475F4C4E41203D203078005245475F0D
:10FFCC004F4350203D203078006D6F6465203D20FC
:10FFDC004C6F5261006D6F6465203D2046534B00A1
:10FFEC00736C656570206D6F6465005458206D6F7F
:04FFFC006465000038
:020000040020DA
:08000000FFFFFFFFFFFFFFFF00
:020000040030CA
:0E000000FF291E3CFFBD81FF0FC00FE00F4027
:00000001FF
