:020000040000FA
:04000000FCEF71F0B0
:10E0DA00120EEDEC70F0120093848A9693968A9849
:10E0EA001200FF0E066E120ED2EC70F01200000043
:10E0FA004040FFFFFFFF03E701019E96C5809EA6F1
:10E10A0089EF70F08BEF70F084EF70F01200016EFF
:10E11A00ACA292EF70F094EF70F08DEF70F001C046
:10E12A00ADFF12009E96C59AC5889EA69FEF70F015
:10E13A00A1EF70F09AEF70F012009E96C58AC5881A
:10E14A009EA6AAEF70F0ACEF70F0A5EF70F0120087
:10E15A008A988A961A0E016EF80EE82EFED7012EBC
:10E16A00FCD700D08A86120040EC71F09E96C584D6
:10E17A009EA6C2EF70F0C4EF70F0BDEF70F012000F
:10E18A00026E6F50A49E02C06FFFA4AECFEF70F074
:10E19A00D1EF70F0CAEF70F01200076E8D90075041
:10E1AA008009076E0750C5EC70F00650C5EC70F098
:10E1BA008D801200026E40EC71F09E9602C0C9FF7B
:10E1CA009EA6EAEF70F0ECEF70F0E5EF70F0120047
:10E1DA00056E8D9005507F0B056E0550C5EC70F0ED
:10E1EA00000EFCEC70F0046E8D8004501200026E7A
:10E1FA006F50A49E02C06FFFA4AE06EF71F008EF45
:10E20A0071F001EF71F06FCF03F00350120040EC90
:10E21A0071F09E96C586C7A015EF71F017EF71F0E1
:10E22A0010EF71F09E96C9CF02F0025012008A8454
:10E23A009394820E016EDE0EE82EFED7012EFCD7D5
:10E24A009384820E016EDE0EE82EFED7012EFCD7D5
:10E25A001200830E066E010ED2EC70F0020E096EE9
:10E26A00040E086EBA0EE82EFED7082EFCD7092E29
:10E27A00FAD700D01200C7B445EF71F049EF71F038
:10E28A00016A012A4AEF71F0016AC5501F0B011099
:10E29A000009D8A453EF71F055EF71F040EF71F017
:10E2AA001200948694880F013A973A99C69EC69CA2
:10E2BA00C68AC698C650F00B0809C66E00F000F070
:10E2CA0000F0130EC86E00F000F000F0C78EC79C75
:10E2DA009E96A1961200948C948E0F013A9F000E7E
:10E2EA00AC6E000EAB6EAC98AC9CAB9CAB88AB969C
:10E2FA009D8A9D98AC84B8860C0EAF6E000EB06EE7
:10E30A00AC8AAB8E9E9A9D8AF28C120095900F0170
:10E31A003B91210EE82EFED700F095820F013B9328
:10E32A00210EE82EFED700F0959896908D806D9E6E
:10E33A00210EE82EFED700F06D8C210EE82EFED7B6
:10E34A0000F0200E6C6EC80EE82EFED71200000EEA
:10E35A00066EBFEF71F006500224046E000E032011
:10E36A00056E04C0F6FF05C0F7FF0800F5508CECF7
:10E37A0070F0062A06500224046E000E0320056E71
:10E38A0004C0F6FF05C0F7FF0800F5500009D8A43D
:10E39A00D1EF71F0D3EF71F0B0EF71F0120071ECC0
:10E3AA0070F08BEC71F01CEC71F0ADEC70F0000EBB
:10E3BA00066E010ED2EC70F0800E066E010ED2ECE3
:10E3CA0070F0810E066E010ED2EC70F0020E146E21
:10E3DA00040E136EBA0EE82EFED7132EFCD7142E97
:10E3EA00FAD700D0E7EC73F0EBEC72F01200F80EFB
:10E3FA00F66EE00EF76E000EF86E00EEAEF010EE5E
:10E40A000CF00900F5CFEEFFE550E150FAE101EE1C
:10E41A0000F011EE00F0EE6AE550E150FCE1E25046
:10E42A00FAE100EE60F0300EEE6AE806FDE15F6A9E
:10E43A005E6A5D6A000EF86E000116EF77F0000E54
:10E44A00066E37EF72F006500224046E000E0320A7
:10E45A00056E04C0F6FF05C0F7FF0800F5508CEC06
:10E46A0070F0062A06500224046E000E0320056E80
:10E47A0004C0F6FF05C0F7FF0800F5500009D8A44C
:10E48A0049EF72F04BEF72F028EF72F00D0E8CEC40
:10E49A0070F00A0E8CEC70F012000E6E460E0C6EC6
:10E4AA00FF0E0D6E0EC001F0026A000E046E100E11
:10E4BA00036E89EC72F00CC009F00DC00AF001502D
:10E4CA00092602500A2209C0F6FF0AC0F7FF08000F
:10E4DA00F5508CEC70F00EC009F00F0E09160950B9
:10E4EA000C240A6E000E0D200B6E0AC0F6FF0BC03C
:10E4FA00F7FF0800F5508CEC70F00D0E8CEC70F004
:10E50A000A0E8CEC70F01200000E066E04BE92EF3A
:10E51A0072F090EF72F098EF72F0036C041ED8B0AC
:10E52A00042A010E066E02BE9FEF72F09DEF72F092
:10E53A00A5EF72F0016C021ED8B0022A010E061A6B
:10E54A00000E086E000E076E03500410D8B4B0EF28
:10E55A0072F0B2EF72F0DAEF72F0010E056EBAEFF6
:10E56A0072F0D89003360436052A04AEBFEF72F073
:10E57A00C1EF72F0B6EF72F0D89007360836035042
:10E58A00015C04500258D8A0CDEF72F0CFEF72F0C0
:10E59A00D4EF72F00350015E0450025A0780D890FB
:10E5AA0004320332052EC1EF72F00650D8B4E0EF00
:10E5BA0072F0E2EF72F0E6EF72F0076C081ED8B064
:10E5CA00082A07C001F008C002F01200000E066E09
:10E5DA00000ED2EC70F0D80E066E060ED2EC70F079
:10E5EA00600E066E070ED2EC70F0000E066E080E74
:10E5FA00D2EC70F08C0E066E090ED2EC70F0190E89
:10E60A00066E0A0ED2EC70F02B0E066E0B0ED2ECD2
:10E61A0070F0230E066E0C0ED2EC70F0000E066E31
:10E62A000D0ED2EC70F0800E066E0E0ED2EC70F06B
:10E63A00000E066E0F0ED2EC70F0000E066E110E72
:10E64A00D2EC70F0FF0E066E120ED2EC70F0210EB4
:10E65A00066E1D0ED2EC70F0C70E066E1E0ED2ECC0
:10E66A0070F0FF0E066E1F0ED2EC70F0000E066EF2
:10E67A00200ED2EC70F0080E066E210ED2EC70F06D
:10E68A00800E066E230ED2EC70F0000E066E240E7B
:10E69A00D2EC70F0C30E066E310ED2EC70F0270E7B
:10E6AA00066E330ED2EC70F00A0E066E370ED2ECFE
:10E6BA0070F0120E066E390ED2EC70F0120053345E
:10E6CA0054345A6E5A50D8A46DEF73F06FEF73F04A
:10E6DA0079EF73F0000E516E000E526E000E536EFB
:10E6EA00000E546EE6EF73F051C055F052C056F06A
:10E6FA0053C057F054C058F0200E89EF73F0D890E9
:10E70A005832573256325532E82E84EF73F055504C
:10E71A00596E538EFF0E5116FF0E5216FF0E5316E8
:10E72A00000E5416960E5A5E5ABEA0EF73F09EEF74
:10E73A0073F0B6EF73F05A50800A970FD8B0A8EF6B
:10E74A0073F0AAEF73F0ACEF73F06FEF73F0D89039
:10E75A0054325332523251325A3EACEF73F0CEEF4A
:10E76A0073F01F0E5A64BCEF73F0BEEF73F0C6EF7E
:10E77A0073F06FEF73F0D8905136523653365436E1
:10E78A005A065A50D8A4CCEF73F0CEEF73F0C0EF0C
:10E79A0073F05950D8B4D4EF73F0D6EF73F0DEEFBC
:10E7AA0073F0541E531E521E516C000E52225322F5
:10E7BA00542251C051F052C052F053C053F054C0C9
:10E7CA0054F01200010EEDEC70F0126E8A0E026E19
:10E7DA00FF0E036EACEC71F0125052EC72F0125054
:10E7EA00800B116E1150D8B4FDEF73F0FFEF73F088
:10E7FA001AEF74F01250400B116E1150D8A408EFA2
:10E80A0074F00AEF74F012EF74F0D30E026EFF0E7A
:10E81A00036E24EC72F020EF74F0D30E026EFC0E3D
:10E82A00036E24EC72F020EF74F0DF0E026EFF0E1E
:10E83A00036E24EC72F01250070B116E65EF74F040
:10E84A00EA0E026EFF0E036E24EC72F092EF74F081
:10E85A00AC0E026EFF0E036E24EC72F092EF74F0AF
:10E86A00750E026EFE0E036E24EC72F092EF74F0D7
:10E87A00F50E026EFF0E036E24EC72F092EF74F046
:10E88A005E0E026EFE0E036E24EC72F092EF74F0CE
:10E89A002E0E026EFE0E036E24EC72F092EF74F0EE
:10E8AA00D10E026EFE0E036E24EC72F092EF74F03B
:10E8BA00740E026EFD0E036E24EC72F092EF74F089
:10E8CA0011500F6E106A1050000AD8B46FEF74F02E
:10E8DA0092EF74F00F50000AD8B425EF74F0010AD1
:10E8EA00D8B42DEF74F0030AD8B435EF74F0010AE6
:10E8FA00D8B43DEF74F0070AD8B445EF74F0010AB2
:10E90A00D8B44DEF74F0030AD8B455EF74F0010A85
:10E91A00D8B45DEF74F092EF74F01200000E556EE9
:10E92A00000E566E000E576E82EC70F04E0EDFEC43
:10E93A0070F0B9EC70F0680E516EE40EE82EFED756
:10E94A00512EFCD700D082EC70F04F0EDFEC70F045
:10E95A0000F00CEC71F0546E97EC70F00CEC71F066
:10E96A00556E97EC70F00CEC71F0566E97EC70F0F7
:10E97A000CEC71F0576EA2EC70F0B9EC70F054C068
:10E98A0051F03F0E51165150536E526A5550521063
:10E99A000001766F5350776F5650516E526A060EC9
:10E9AA00D89051365236E82ED5EF74F057505110A0
:10E9BA00786F5250796F000E136EF80E146E7F0E38
:10E9CA00156E460E166E76C001F077C002F0036A25
:10E9DA00046A000E5DEC75F001C00FF002C010F081
:10E9EA0003C011F004C012F027EC78F00FC028F031
:10E9FA0010C029F011C02AF012C02BF0000E2C6EA4
:10EA0A00000E2D6EC80E2E6E420E2F6EF4EC79F0AB
:10EA1A0028C06EF029C06FF02AC070F02BC071F0C8
:10EA2A00000E2C6E000E2D6E250E2E6E430E2F6ECE
:10EA3A00000E136EF80E146E7F0E156E460E166ECD
:10EA4A0078C001F079C002F0036A046A000E5DEC36
:10EA5A0075F001C00FF002C010F003C011F004C03D
:10EA6A0012F027EC78F00FC028F010C029F011C07E
:10EA7A002AF012C02BF0F4EC79F028C041F029C03A
:10EA8A0042F02AC043F02BC044F0000E456E000E3F
:10EA9A00466E200E476EC20E486E09EC7CF041C0ED
:10EAAA006AF042C06BF043C06CF044C06DF01200D3
:10EABA00096E0950D8B464EF75F066EF75F088EF07
:10EACA0075F004BE6DEF75F06BEF75F088EF75F0B9
:10EADA0001C005F002C006F003C007F004C008F048
:10EAEA00051E061E071E081E052A000E06220722FC
:10EAFA00082205C00BF006C00CF007C00DF008C0D4
:10EB0A000EF090EF75F001C00BF002C00CF003C0DC
:10EB1A000DF004C00EF00150021003100410D8A426
:10EB2A0099EF75F09BEF75F0A5EF75F0000E016E89
:10EB3A00000E026E000E036E000E046E36EF76F0C3
:10EB4A00960E0A6EAFEF75F00A2AD8900E320D3281
:10EB5A000C320B32000E0B14056E000E0C14066EEE
:10EB6A00000E0D14076EFE0E0E14086E05500610E8
:10EB7A0007100810D8A4C4EF75F0C6EF75F0A9EF16
:10EB8A0075F0D4EF75F00A2A010E0B26000E0C223E
:10EB9A000D220E22D8900E320D320C320B32000E9C
:10EBAA000B14056E000E0C14066E000E0D14076E83
:10EBBA00FF0E0E14086E0550061007100810D8A490
:10EBCA00E9EF75F0EBEF75F0C8EF75F0F3EF75F05C
:10EBDA000A06D8900B360C360D360E360DBEF8EFF7
:10EBEA0075F0FAEF75F002EF76F0020E0A6000EFA8
:10EBFA0076F002EF76F0EDEF75F00AB007EF76F0F7
:10EC0A0009EF76F00AEF76F00D9ED8900A320AC024
:10EC1A0005F0066A076A086A05C008F0076A066A04
:10EC2A00056A05500B1206500C1207500D120850B7
:10EC3A000E120950D8B424EF76F026EF76F02EEFB4
:10EC4A0076F004BE2DEF76F02BEF76F02EEF76F00D
:10EC5A000E8E0BC001F00CC002F00DC003F00EC006
:10EC6A0004F01200000E136E000E146E8C0E156E58
:10EC7A00420E166E000E2C6E000E2D6E7F0E2E6E3C
:10EC8A00430E2F6E000E456E000E466EF00E476E56
:10EC9A00410E486E96C041F097C042F098C043F0CA
:10ECAA0099C044F009EC7CF041C028F042C029F038
:10ECBA0043C02AF044C02BF0F4EC79F028C00FF0DE
:10ECCA0029C010F02AC011F02BC012F027EC78F0FE
:10ECDA000FC051F010C052F011C053F012C054F0DE
:10ECEA0064EC73F051500001A46F000E136E000E15
:10ECFA00146EC80E156E420E166E000E2C6E000EA5
:10ED0A002D6E7F0E2E6E430E2F6E9AC028F09BC07A
:10ED1A0029F09CC02AF09DC02BF0F4EC79F028C0B1
:10ED2A000FF029C010F02AC011F02BC012F027EC06
:10ED3A0078F00FC051F010C052F011C053F012C059
:10ED4A0054F064EC73F051500001A56F000E136E7D
:10ED5A00000E146E400E156E400E166E000E2C6ECE
:10ED6A00000E2D6E7F0E2E6E430E2F6E92C028F06F
:10ED7A0093C029F094C02AF095C02BF0F4EC79F0F6
:10ED8A0028C00FF029C010F02AC011F02BC012F0D1
:10ED9A0027EC78F00FC051F010C052F011C053F0B8
:10EDAA0012C054F064EC73F051500001A66F0E0EBD
:10EDBA00EDEC70F0066E0D0ED2EC70F0060E066EDB
:10EDCA00220ED2EC70F0010E00019E6F91C09FF0EE
:10EDDA0090C0A0F0A6C0A1F0A4C0A2F0A5C0A3F064
:10EDEA00000EA86F000EA76F9E0EA725D96E000E03
:10EDFA00A821DA6EDF50066E000ED2EC70F0000128
:10EE0A00A74BA82BA8BF13EF77F0A85109E1060E6C
:10EE1A00A75DD8A013EF77F015EF77F0F9EF76F04A
:10EE2A001200000E00018D6F000E8C6F000E8B6FAA
:10EE3A00000E8A6F4B0E026E000E016E70EC71F0BE
:10EE4A00D4EC71F056EC71F0F28E000E0001606F96
:10EE5A0061696269030E636F0E0EEDEC70F0066E67
:10EE6A000D0ED2EC70F0040E066E220ED2EC70F08B
:10EE7A00000E00017D6F000E7C6F600E7C25D96E3E
:10EE8A00000E7D21DA6EDF50066E000ED2EC70F0B5
:10EE9A0000017C4B7D2B7DBF5CEF77F07D5109E152
:10EEAA00040E7C5DD8A05CEF77F05EEF77F042EF5E
:10EEBA0077F0030E5B6E980EE82EFED75B2EFCD71A
:10EECA00830E066E010ED2EC70F0020E5C6E040E1A
:10EEDA005B6EBA0EE82EFED75B2EFCD75C2EFAD7F5
:10EEEA0000D0120EEDEC70F00001896F030E5C6E1B
:10EEFA00080E5B6E770EE82EFED75B2EFCD75C2ED3
:10EF0A00FAD700F0FD0E026EFF0E036E24EC72F0CB
:10EF1A00F90E026EFE0E036E24EC72F0120EEDEC88
:10EF2A0070F00001896F1A0E026EFD0E036EACECD2
:10EF3A0071F00001895152EC72F0FF0E066E120E4A
:10EF4A00D2EC70F093EC74F0010E0001906FE70EB2
:10EF5A00916FAEC092F0AFC093F0B0C094F0B1C060
:10EF6A0095F06AC096F06BC097F06CC098F06DC0CF
:10EF7A0099F06EC09AF06FC09BF070C09CF071C09F
:10EF8A009DF0010E37EC76F02EEC71F06DEC70F01E
:10EF9A0076EC70F0030E5C6E080E5B6E770EE82E50
:10EFAA00FED75B2EFCD75C2EFAD700F0660E5C6E9D
:10EFBA00760E5B6EC10EE82EFED75B2EFCD75C2E5A
:10EFCA00FAD700F0660E5C6E760E5B6EC10EE82E06
:10EFDA00FED75B2EFCD75C2EFAD700F0660E5C6E6D
:10EFEA00760E5B6EC10EE82EFED75B2EFCD75C2E2A
:10EFFA00FAD700F0660E5C6E760E5B6EC10EE82ED6
:10F00A00FED75B2EFCD75C2EFAD700F0660E5C6E3C
:10F01A00760E5B6EC10EE82EFED75B2EFCD75C2EF9
:10F02A00FAD700F0660E5C6E760E5B6EC10EE82EA5
:10F03A00FED75B2EFCD75C2EFAD700F0A7EF77F04D
:10F04A0000EF00F01250800B1F6E12501224266E31
:10F05A0011AE32EF78F034EF78F035EF78F02680A1
:10F06A002650D8B43BEF78F03DEF78F052EF78F0C5
:10F07A002628D8A443EF78F045EF78F04DEF78F0E2
:10F08A00000E0F6E000E106E000E116E000E126E44
:10F09A00118E000E126E5AEF78F0000E0F6E000EEF
:10F0AA00106E000E116E000E126E1650800B1F1A93
:10F0BA0016501624276E15AE65EF78F067EF78F0D4
:10F0CA0068EF78F027802750D8B46EEF78F070EFA9
:10F0DA0078F085EF78F02728D8A476EF78F078EFE3
:10F0EA0078F080EF78F0000E136E000E146E000EAA
:10F0FA00156E000E166E158E000E166E8DEF78F0D8
:10F10A00000E136E000E146E000E156E000E166EB3
:10F11A001350141015101610D8A496EF78F098EF23
:10F12A0078F0B0EF78F0000E0F6E000E106E000E41
:10F13A00116E000E126E800E11127F0E12121F50E7
:10F14A0012120FC00FF010C010F011C011F012C04F
:10F15A0012F0F3EF79F02650D8A4B6EF78F0B8EFB2
:10F16A0078F0C2EF78F0000E0F6E000E106E000EEF
:10F17A00116E000E126EF3EF79F0275026C017F0C9
:10F18A00186A175E000E185A7F0E1724206E000E9A
:10F19A001820216E0FC01BF010C01CF011C01DF00A
:10F1AA0012C01EF0000E0F6E000E106E000E116ED1
:10F1BA00000E126E000E226E000E236E000E246EDA
:10F1CA00000E256E000E276E23EF79F02750D8B473
:10F1DA00F1EF78F0F3EF78F00AEF79F0D8901B3678
:10F1EA001C361D361E36D8900F361036113612369A
:10F1FA0025AE02EF79F004EF79F005EF79F00F8090
:10F20A00D890223623362436253613501B5C1450E8
:10F21A001C5815501D5816501E58D8A017EF79F0D3
:10F22A0019EF79F022EF79F0258C13501B5E1450F8
:10F23A001C5A15501D5A16501E5A272A190E276491
:10F24A0029EF79F02BEF79F0EBEF78F01B501C10D7
:10F25A001D101E10D8B434EF79F036EF79F04EEF66
:10F26A0079F022804EEF79F0D8900F3610361136A9
:10F27A00123625AE43EF79F045EF79F046EF79F093
:10F28A000F80D89022362336243625362006D8A079
:10F29A00210611AE53EF79F055EF79F039EF79F095
:10F2AA00000E276E25AE5CEF79F05EEF79F082EF03
:10F2BA0079F0FF0E2214176EFF0E2314186EFF0E3C
:10F2CA002414196E7F0E25141A6E1750181019106F
:10F2DA001A10D8B473EF79F075EF79F079EF79F005
:10F2EA00010E276E82EF79F00FA07EEF79F080EFA2
:10F2FA0079F082EF79F075EF79F02750D8B488EF7A
:10F30A0079F08AEF79F0AEEF79F0010E0F26000E50
:10F31A0010221122122212A095EF79F097EF79F0BC
:10F32A00AEEF79F00FC017F010C018F011C019F045
:10F33A0012C01AF01A341A3219321832173217C098
:10F34A000FF018C010F019C011F01AC012F0204ABC
:10F35A00212A21BEB9EF79F0215008E12028D8A04E
:10F36A00B9EF79F0BBEF79F0C6EF79F0000E216EB4
:10F37A002068000E0F6E000E106E000E116E000E49
:10F38A00126E21BED3EF79F0215006E12004D8B0E5
:10F39A00D1EF79F0D3EF79F0E1EF79F0000E216E39
:10F3AA00000E206E000E0F6E000E106E000E116E13
:10F3BA00000E126E000E1F6E20C026F026A0E8EF87
:10F3CA0079F0EAEF79F0EDEF79F0118EEEEF79F05E
:10F3DA00119ED8902630126EA4EF78F012002B50AE
:10F3EA00800B346E2B502B243A6E2AAEFFEF79F045
:10F3FA0001EF7AF002EF7AF03A803A50D8B408EF87
:10F40A007AF00AEF7AF01DEF7AF03A28D8A410EFD2
:10F41A007AF012EF7AF01AEF7AF0000E286E000EE8
:10F42A00296E000E2A6E000E2B6E2A8E25EF7AF0B8
:10F43A00000E286E000E296E000E2A6E000E2B6E2C
:10F44A002F50800B341A2F502F24396E2EAE30EFE6
:10F45A007AF032EF7AF033EF7AF039803950D8B453
:10F46A0039EF7AF03BEF7AF04EEF7AF03928D8A4E8
:10F47A0041EF7AF043EF7AF04BEF7AF0000E2C6E00
:10F48A00000E2D6E000E2E6E000E2F6E2E8E56EF73
:10F49A007AF0000E2C6E000E2D6E000E2E6E000EEF
:10F4AA002F6E3950D8B45CEF7AF05EEF7AF066EFDF
:10F4BA007AF03A50D8A464EF7AF066EF7AF070EFF7
:10F4CA007AF0000E286E000E296E000E2A6E000ECB
:10F4DA002B6E08EF7CF02E502802F3CF3FF0F4CFCA
:10F4EA0040F03F50356E366A376A386A40503B6E94
:10F4FA003C6A3D6A3E6A2D502902F3CF3FF0F4CFB1
:10F50A0040F03F503526000E36223722382240502E
:10F51A003B26000E3C223D223E222C502A02F3CFEB
:10F52A003FF0F4CF40F03F503526000E3622372206
:10F53A00382240503B26000E3C223D223E2237C054
:10F54A0038F036C037F035C036F0356A2C5029020B
:10F55A00F3CF3FF0F4CF40F03F50352640503622EB
:10F56A00000E3722000E38222D502802F3CF3FF02A
:10F57A00F4CF40F03F50352640503622000E372255
:10F58A00000E382237C038F036C037F035C036F0B2
:10F59A00356A2C502802F3CF3FF0F4CF40F03F50A9
:10F5AA00352640503622000E3722000E38222E50C1
:10F5BA002902F3CF3FF0F4CF40F03F503B264050B2
:10F5CA003C22000E3D22000E3E222D502A02F3CF8D
:10F5DA003FF0F4CF40F03F503B2640503C22000E13
:10F5EA003D22000E3E222E502A02F3CF3FF0F4CFE6
:10F5FA0040F03F50306E4050316E326A336A32C04A
:10F60A0033F031C032F030C031F0306A30503B262E
:10F61A0031503C2232503D2233503E2235C030F028
:10F62A0036C031F037C032F038C033F0190E23EF4C
:10F63A007BF0D8903332323231323032E82E1EEF3C
:10F64A007BF030503B2631503C2232503D22335021
:10F65A003E2237C038F036C037F035C036F0356A4A
:10F66A0039503AC030F0316A3026000E3122820E0B
:10F67A0030243F6EFF0E3120406E59EF7BF0D89058
:10F68A003B363C363D363E3638AE4EEF7BF050EFD9
:10F69A007BF051EF7BF03B80D890353636363736E3
:10F6AA0038363F06D8A040063DAE5EEF7BF060EFED
:10F6BA007BF044EF7BF0000E396E38AE67EF7BF0DB
:10F6CA0069EF7BF08DEF7BF0FF0E3514306EFF0E85
:10F6DA003614316EFF0E3714326E7F0E3814336EC5
:10F6EA003050311032103310D8B47EEF7BF080EFF7
:10F6FA007BF084EF7BF0010E396E8DEF7BF03BA03F
:10F70A0089EF7BF08BEF7BF08DEF7BF080EF7BF066
:10F71A003950D8B493EF7BF095EF7BF0B9EF7BF0DB
:10F72A00010E3B26000E3C223D223E223EA0A0EFC7
:10F73A007BF0A2EF7BF0B9EF7BF03BC030F03CC02E
:10F74A0031F03DC032F03EC033F03334333232321E
:10F75A003132303230C03BF031C03CF032C03DF083
:10F76A0033C03EF03F4A402A40BEC4EF7BF04050CF
:10F77A0008E13F28D8A0C4EF7BF0C6EF7BF0D0EFBA
:10F78A007BF0000E3B6E000E3C6E800E3D6E7F0ECF
:10F79A003E6EFEEF7BF040BEDDEF7BF0405006E1AF
:10F7AA003F04D8B0DBEF7BF0DDEF7BF0E9EF7BF0D5
:10F7BA00000E3B6E000E3C6E000E3D6E000E3E6E5D
:10F7CA00000E346EFEEF7BF03FC03AF0FF0E3B16A0
:10F7DA00FF0E3C167F0E3D16000E3E163AA0F8EFBD
:10F7EA007BF0FAEF7BF0FBEF7BF03D8ED8903A305E
:10F7FA003E6E34503E123BC028F03CC029F03DC05A
:10F80A002AF03EC02BF012004450800B4D6E44503B
:10F81A0044244F6E43AE14EF7CF016EF7CF017EFE2
:10F82A007CF04F804F50D8B41DEF7CF01FEF7CF076
:10F83A0034EF7CF04F28D8A425EF7CF027EF7CF03A
:10F84A002FEF7CF0000E416E000E426E000E436EEA
:10F85A00000E446E438E000E446E3CEF7CF0000EA8
:10F86A00416E000E426E000E436E000E446E48500A
:10F87A00800B4E6E4D504E18D8B446EF7CF048EFD0
:10F88A007CF049EF7CF04D8C485048244E6E47AED0
:10F89A0051EF7CF053EF7CF054EF7CF04E804E50E9
:10F8AA00D8B45AEF7CF05CEF7CF071EF7CF04E2814
:10F8BA00D8A462EF7CF064EF7CF06CEF7CF0000E71
:10F8CA00456E000E466E000E476E000E486E478E5D
:10F8DA00000E486E79EF7CF0000E456E000E466E03
:10F8EA00000E476E000E486E4F504E5CD8B080EF47
:10F8FA007CF082EF7CF0A9EF7CF04DAC87EF7CF0D6
:10F90A0089EF7CF08BEF7CF0800E4D1A4FC050F0DF
:10F91A004EC04FF050C04EF041C050F045C041F0CB
:10F92A0050C045F042C050F046C042F050C046F0C8
:10F93A0043C050F047C043F050C047F044C050F0B5
:10F94A0048C044F050C048F0000E506E4F504EC0B0
:10F95A0049F04A6A495E000E4A5A4ABEBEEF7CF036
:10F96A004A5009E11A0E495CD8A0BEEF7CF0C0EFFC
:10F97A007CF0F7EF7CF04150421043104410D8A4B9
:10F98A00C9EF7CF0CCEF7CF0010ECDEF7CF0000EDD
:10F99A00506E000E416E000E426E000E436E000E57
:10F9AA00446E4EC04FF000EF7DF050A0DFEF7CF0C8
:10F9BA00E1EF7CF0E7EF7CF0D89050300109506E0F
:10F9CA00E9EF7CF0D890503241A0EEEF7CF0F0EFF6
:10F9DA007CF0F1EF7CF0508E4434443243324232B0
:10F9EA0041324F2A4E504F5CD8A0FEEF7CF000EF18
:10F9FA007DF0DAEF7CF04DBC05EF7DF007EF7DF08E
:10FA0A0047EF7DF04F50D8A40DEF7DF00FEF7DF05A
:10FA1A0019EF7DF0000E416E000E426E000E436E2D
:10FA2A00000E446E68EF7EF0455041264650422251
:10FA3A00475043224850442244A026EF7DF028EF45
:10FA4A007DF0D4EF7DF050A02DEF7DF02FEF7DF00B
:10FA5A0035EF7DF0D89050300109506E37EF7DF0C8
:10FA6A00D890503241A03CEF7DF03EEF7DF03FEF61
:10FA7A007DF0508E443444324332423241324F2A6E
:10FA8A00D4EF7DF04550415C4650425847504358A8
:10FA9A004450800A496E4850800A4958D8B058EFF5
:10FAAA007DF05AEF7DF085EF7DF04150455C496E5F
:10FABA00425046584A6E435047584B6E4450485835
:10FACA004C6EFF0E4924416EFF0E4A20426EFF0E15
:10FADA004B20436EFF0E4C20446E800E4D1A506C24
:10FAEA005050D8A47BEF7DF07DEF7DF08DEF7DF057
:10FAFA00010E4126000E4222432244228DEF7DF060
:10FB0A004550415E4650425A4750435A4850445A1B
:10FB1A004150421043104410D8A496EF7DF098EF5C
:10FB2A007DF0CDEF7DF05050D8A49EEF7DF0A0EF90
:10FB3A007DF0CDEF7DF0000E416E000E426E000E9C
:10FB4A00436E000E446E68EF7EF0D890413642361E
:10FB5A004336443650AEB4EF7DF0B6EF7DF0B7EFE2
:10FB6A007DF0418050A0BCEF7DF0BEEF7DF0C2EF8A
:10FB7A007DF0D8805036C4EF7DF0D89050364F5083
:10FB8A00D8B4CAEF7DF0CCEF7DF0CDEF7DF04F0613
:10FB9A0043AED2EF7DF0D4EF7DF0AAEF7DF0000EF8
:10FBAA004E6E50AEDBEF7DF0DDEF7DF0F5EF7DF0D0
:10FBBA0050C049F07F0E4916D8B4E6EF7DF0E8EF61
:10FBCA007DF0ECEF7DF0010E4E6EF5EF7DF041A079
:10FBDA00F1EF7DF0F3EF7DF0F5EF7DF0E8EF7DF0EA
:10FBEA004E50D8B4FBEF7DF0FDEF7DF028EF7EF0AC
:10FBFA00010E4126000E42224322442244A008EF6D
:10FC0A007EF00AEF7EF028EF7EF041C049F042C054
:10FC1A004AF043C04BF044C04CF04C344C324B32A7
:10FC2A004A32493249C041F04AC042F04BC043F01F
:10FC3A004CC044F04F28D8B425EF7EF027EF7EF071
:10FC4A0028EF7EF04F2A4F28D8B42EEF7EF030EFFF
:10FC5A007EF038EF7EF04F50D8A436EF7EF038EFC2
:10FC6A007EF04AEF7EF0000E416E000E426E000EEC
:10FC7A00436E000E446E4F50D8A446EF7EF048EF14
:10FC8A007EF04AEF7EF0000E4D6E4FA04FEF7EF0F1
:10FC9A0051EF7EF054EF7EF0438E55EF7EF0439E97
:10FCAA00D8904F30446E4DAE5DEF7EF05FEF7EF040
:10FCBA0060EF7EF0448E41C041F042C042F043C042
:10FCCA0043F044C044F01200006D6F6465203D208B
:10FCDA004C6F526120776974682046534B207265D5
:10FCEA006769737465727320616363657373006314
:10FCFA006F6E66696775726174696F6E2072656787
:10FD0A0069737465727320636F6E74656E743A00FA
:10FD1A006265666F726520636C6561723A2052454E
:10FD2A00475F4952515F464C414753203D20307846
:10FD3A00005245475F444554454354494F4E5F542A
:10FD4A0048524553484F4C44203D20307800524594
:10FD5A00475F4D41585F5041594C4F41445F4C45B4
:10FD6A004E475448203D203078004368616E6E65E6
:10FD7A006C2041637469766974792044657465639B
:10FD8A0074696F6E005245475F505245414D424C6F
:10FD9A00455F4C53425F4C4F5241203D2030780022
:10FDAA005245475F505245414D424C455F4D534283
:10FDBA005F4C4F5241203D203078005245475F4604
:10FDCA0049464F5F52585F424153455F414444524E
:10FDDA00203D203078005245475F4649464F5F54E0
:10FDEA00585F424153455F41444452203D20307898
:10FDFA00005245475F53594D425F54494D454F554F
:10FE0A00545F4C5342203D203078005245475F44AE
:10FE1A0045544543545F4F5054494D495A45203D36
:10FE2A0020307800636F6E74696E756F7573207217
:10FE3A00656365697665206D6F6465005245475F45
:10FE4A004952515F464C4147535F4D41534B203D08
:10FE5A00203078006672657175656E6379207379F2
:10FE6A006E7468657369732052580066726571759D
:10FE7A00656E63792073796E74686573697320544B
:10FE8A0058005245475F4D4F44454D5F434F4E46DC
:10FE9A00494731203D203078005245475F4D4F4455
:10FEAA00454D5F434F4E46494732203D203078004A
:10FEBA005245475F4649464F5F414444525F50545A
:10FECA0052203D2030780073696E676C6520726538
:10FEDA006365697665206D6F6465005245475F48C2
:10FEEA004F505F504552494F44203D2030780073AF
:10FEFA0074657020343A20636C65617220666C61A7
:10FF0A006773005245475F53594E435F574F5244F8
:10FF1A00203D203078005245475F50415F434F4EA5
:10FF2A00464947203D203078005245475F494E56A2
:10FF3A004552545F4951203D2030780030313233E8
:10FF4A0034353637383941424344454600524547ED
:10FF5A005F4652465F4C5342203D2030780052455E
:10FF6A00475F4652465F4D5342203D20307800524B
:10FF7A0045475F4652465F4D4944203D2030780050
:10FF8A005245475F4F505F4D4F4445203D203078E2
:10FF9A00005245475F50415F52414D50203D20304D
:10FFAA0078007374616E646279206D6F64650052C3
:10FFBA0045475F4C4E41203D203078005245475F0F
:10FFCA004F4350203D203078006D6F6465203D20FE
:10FFDA004C6F5261006D6F6465203D2046534B00A3
:10FFEA00736C656570206D6F6465005458206D6F81
:06FFFA0064650020000018
:020000040020DA
:08000000FFFFFFFFFFFFFFFF00
:020000040030CA
:0E000000FF291E3CFFBD81FF0FC00FE00F4027
:00000001FF
